:020000040000FA
:1000000070040020E5020000ED020000EF02000095
:10001000F1020000F3020000F50200000000000001
:10002000000000000000000000000000F7020000D7
:10003000F902000000000000FB0200006917000048
:10004000FF0200000103000003030000050300009D
:1000500007030000BD1700000B0300000D030000A4
:100060000F0300001103000013030000150300003C
:1000700017030000190300001B0300001D0300000C
:100080001F030000210300002303000025030000DC
:1000900027030000290300002B0300002D030000AC
:1000A0002F0300003103000033030000350300007C
:1000B00037030000390300003B0300003D0300004C
:1000C0003F0300004103000043030000450300001C
:1000D00047030000490300004B0300004D030000EC
:1000E0004F030000510300005303000055030000BC
:1000F00057030000590300005B0300005D0300008C
:100100005F0300006103000063030000650300005B
:1001100067030000690300006B0300006D0300002B
:100120006F030000710300007303000075030000FB
:1001300077030000790300007B0300007D030000CB
:100140007F03000081030000830300009D03000083
:1001500000000000000000009F030000A103000059
:10016000A3030000A503000000000000A703000097
:10017000A9030000AB030000AD030000AF030000C3
:10018000B1030000B3030000B5030000B703000093
:10019000B9030000BB030000BD030000BF03000063
:1001A000C1030000C3030000C5030000C703000033
:1001B000C9030000CB030000CD030000CF03000003
:1001C000D1030000D3030000D5030000D7030000D3
:1001D000D9030000DB030000DD030000DF030000A3
:1001E000E1030000E3030000E5030000E703000073
:1001F000E9030000EB030000ED030000EF03000043
:1002000000F002F800F04AF80AA090E8000C8244DE
:100210008344AAF10107DA4501D100F03FF8AFF2BB
:10022000090EBAE80F0013F0010F18BFFB1A43F0D4
:10023000010318478C210000AC210000103A24BFB4
:1002400078C878C1FAD8520724BF30C830C144BF3B
:1002500004680C607047000000230024002500267D
:10026000103A28BF78C1FBD8520728BF30C148BF19
:100270000B607047642900F01381002070471FB5A0
:1002800001F0AEFD00F040FB04000020002101F071
:1002900091FD401C60601FBD10B510BD00F046FB15
:1002A0001146FFF7ECFF01F05BFB00F064FB03B4C9
:1002B000FFF7F2FF03BC00F067FB0000EFF31080D4
:1002C00072B67047EFF310807047EFF3108062B69C
:1002D000704730BF704780F311887047EFF311808B
:1002E000704700004548804745480047FEE7FEE765
:1002F000FEE7FEE7FEE7FEE7FEE7FEE7FEE7FEE7D6
:10030000FEE7FEE7FEE7FEE7FEE7FEE7FEE7FEE7C5
:10031000FEE7FEE7FEE7FEE7FEE7FEE7FEE7FEE7B5
:10032000FEE7FEE7FEE7FEE7FEE7FEE7FEE7FEE7A5
:10033000FEE7FEE7FEE7FEE7FEE7FEE7FEE7FEE795
:10034000FEE7FEE7FEE7FEE7FEE7FEE7FEE7FEE785
:10035000FEE7FEE7FEE7FEE7FEE7FEE7FEE7FEE775
:10036000FEE7FEE7FEE7FEE7FEE7FEE7FEE7FEE765
:10037000FEE7FEE7FEE7FEE7FEE7FEE7FEE7FEE755
:10038000FEE7FEE7FEE7FEE7FEE7FEE7FEE7FEE745
:10039000FEE7FEE7FEE7FEE7FEE7FEE7FEE7FEE735
:1003A000FEE7FEE7FEE7FEE7FEE7FEE7FEE7FEE725
:1003B000FEE7FEE7FEE7FEE7FEE7FEE7FEE7FEE715
:1003C000FEE7FEE7FEE7FEE7FEE7FEE7FEE7FEE705
:1003D000FEE7FEE7FEE7FEE7FEE7FEE7FEE7FEE7F5
:1003E000FEE7FEE7FEE7FEE7FEE7FEE7FEE7FEE7E5
:1003F00004480549034A054B704700009D1700005B
:100400000102000070020020700400207002002031
:100410000FB41CB5074B06AA7B44694600900598AB
:1004200000F007FA0020694600F016FA1CBC5DF8DF
:1004300014FB00003D0400002DE9F0410E46044687
:10044000002020622046E168884730B3252805D087
:10045000D4E901219047206A401CF2E7E168204678
:1004600000278847050018D0A5F14100192802D8B7
:1004700020354FF400673246294620462760FFF7B3
:10048000F9FE40B1012804D0F61D26F00706083613
:10049000D8E7361DD6E72846DAE7206ABDE8F081BE
:1004A0002DE9F0410646002410687529314616A54D
:1004B00010D0AFF30080002802DA404213A507E015
:1004C00031688A0701D512A502E0490704D511A5B4
:1004D000012401E0AFF3008000210A2206F1240785
:1004E00009E0B0FBF2FCB0FBF2F302FB1C00303081
:1004F00078541846491C0028F3D123462A46304632
:10050000BDE8F04100F036B9000000002D00000009
:100510002B0000002000000070B5064600F026F910
:100520000468054630460A22002100F002F82C60DB
:1005300070BD2DE9F04791460F46804604460026DF
:1005400014F8015B2DB100F009F90068405DC007A7
:10055000F6D12B2D02D02D2D18D0641E4A463946D7
:10056000204600F07EF927B13968A14201D1C7F8D1
:1005700000804FF0020471050BD54042002803DDD6
:1005800000F0F4F80460A007BDE8F08746F4806648
:10059000E4E70028F8DA00F0E9F804606FF00040C2
:1005A000F2E7401ECAB210F8011F8A4202D00029A9
:1005B000F9D10020704740EA0103024630B59B079D
:1005C00010D14FF0013400E008C208C91D1B9D4343
:1005D00015EAC41FF8D013F0FF0102F8011B0DD07B
:1005E0001B0AF8E711F8013B002B02F8013B05D08C
:1005F00011F8013B002B02F8013BF3D130BD10B5DF
:10060000431C02E010F8011B71B18107FAD14FF0D1
:10061000013202C88C1A8C4314EAC211F9D0C01AF4
:100620000A0603D0C01E10BDC01A10BD0A0401D0B6
:10063000801E10BD0902FCD0401E10BD40EA01031F
:1006400070B59B072ED14FF00136042A2AD308C873
:1006500010C99D1B9D43121F15EAC61517D0D8B2AD
:10066000E1B2401A50EA056110D198B2A1B2401A25
:1006700050EA05410AD123F07F4024F07F41401A1F
:1006800050EA052102D1180EA0EB146070BDA34200
:10069000DBD018BA21BA884201D9012070BD4FF0D1
:1006A000FF3070BD0AB9002070BD10F8013B11F891
:1006B000014B63B1A3420AD1521E08D010F8013B8E
:1006C00011F8014B1BB1A34201D1521EEDD1181BF1
:1006D00070BD00004FF0013C50F8042B51F8043B72
:1006E0009A4221D1A2EB0C03934313EACC1317D106
:1006F00050F8042B51F8043B9A4215D1A2EB0C039D
:10070000934313EACC130BD150F8042B51F8043B5C
:100710009A4209D1A2EB0C03934313EACC13DBD02A
:100720004FF00000704700BFD01A01BAB1FA81F152
:1007300001F0180122FA01F0CB40C1F12001DBB237
:10074000C0B2C01A2CFA01F3D11A914311EAC311B5
:10075000E6D17047704770477047000010B500F051
:10076000D3F8001D10BD00BF4D16000000487047B3
:100770000C0200202DE9F0470D46994692460446AA
:1007800000F124080168880604D5E06921F0100111
:10079000216000E00120A84201DD471B00E00027A6
:1007A000A1697A1902EB0900081AA0612078C00635
:1007B00002D42046AFF30080002608E0D4E90121EE
:1007C0001AF806009047206A401C761C20624E45AD
:1007D000F4DB2078C0060AD52046AFF3008006E09F
:1007E000D4E9012130209047206A401C2062381E45
:1007F000A7F10107F4DC07E0D4E9012118F80500AE
:100800009047206A401C2062281EA5F10105F3DCF8
:100810002046AFF300802078000602D50220BDE814
:10082000F0870120FBE7000001694A1C026108789B
:10083000704700B58FB0CDE9013100210591054920
:100840007944CDE9031011466846FFF7F5FD0FB076
:1008500000BD0000E5FFFFFF0A6802F8010B0A6017
:1008600070472DE9F05F824615468B4600270AF156
:100870000104B9460078302801D09DB113E014F886
:10088000010B0127782803D0582801D045B10AE090
:100890000DB1102D07D1002714F8010B102502E02F
:1008A000082500E00A250026B0460EE005FB0800FA
:1008B00005FB06F101271FFA80F801EB1046B6F59B
:1008C000803F00D3B94614F8010B294600F020F808
:1008D0000028EBDABBF1000F05D00FB1641E00E079
:1008E0005446CBF80040B9F1000F06D0FFF73EFFA9
:1008F00002210160C81EBDE8F09F48EA0640FAE701
:10090000004870470C020020004870472C0200206D
:100910003A2800D2303820F02002412A01D3A2F137
:100920003700884201D34FF0FF3070477546FFF71C
:10093000E7FFAE4605006946534620F007008546AE
:1009400018B020B5FFF754FDBDE820404FF0000679
:100950004FF000074FF000084FF0000B21F00701A7
:10096000AC46ACE8C009ACE8C009ACE8C009ACE8EA
:10097000C0098D46704710B50446AFF3008020468D
:10098000BDE81040FFF793BC01491820ABBEFEE75D
:10099000260002007047000010B504462046FFF70D
:1009A0002EFE202800D310BD1349144A126801EB13
:1009B00042102146FFF7FFFD10480068401C0A2145
:1009C00090FBF1F201FB12000C4908600C48006832
:1009D0000A2805DA0A480068401C0949086009E04D
:1009E00008480068401C0A2190FBF1F201FB12004C
:1009F0000449086000BFD6E7CC000020700000204A
:100A0000780000207400002030B502460B464FF6F7
:100A1000FF70002112E0555C684000240AE000F0FD
:100A2000010525B14AF2010585EA600000E04010A9
:100A3000651CECB2082CF2DB4D1CA9B29942EADB32
:100A400030BDD0F8003412F0010F14BF0B438B43BC
:100A5000C0F8003412F0020FD0F8202414BF114364
:100A600022EA0101C0F8201470472DE9F0030126A5
:100A70004FF0000C0325C2F3411706FA0CF40C42A8
:100A800011D0D0F8C48F4FEA4C0405FA04F928EAD3
:100A90000908C0F8C48FD0F8C48F07FA04F448EAF4
:100AA0000404C0F8C44F0CF1010C0CF0FF0CBCF1B5
:100AB000080FE2D3D0F800C512F0010F14BF4CEAC2
:100AC000010C2CEA010CC0F800C5D0F804C512F0E6
:100AD000020F14BF4CEA010C2CEA010CC0F804C54B
:100AE000D0F808C512F0040F14BF4CEA010C2CEA30
:100AF000010CC0F808C5D0F818C512F0080F14BFD3
:100B00004CEA010C2CEA010CC0F818C512F0100FC9
:100B1000D0F83C2514BF0A438A43C0F83C25D0F8DE
:100B20000C2513F0010F14BF0A438A43C0F80C25AB
:100B3000D0F8102513F0020F14BF0A438A43C0F8FF
:100B40001025D0F8142513F0040F14BF0A438A436C
:100B5000C0F81425D0F81C2513F0080F14BF0A4361
:100B60008A43C0F81C25D0F8442513F4007F14BF35
:100B70000A438A43C0F84425D0F8402513F4407F47
:100B800014BF0A438A43C0F84025D0F82825002B1B
:100B90000CBF114322EA0101C0F82815BDE8F0039B
:100BA000704700000E4AC0F30741D26E01238B400C
:100BB0001A420C4A1ABF02EBC101496852F83110BF
:100BC000020AD1F82C354FF00F0C0CFA02FC00F0A1
:100BD0000F0023EA0C0390401843C1F82C0570471E
:100BE00000E00F40D01F000050F82100704730B5E2
:100BF0000C4605460022FFF724FF21462846BDE8A3
:100C0000304008230122FFF730BF30B50C460546BF
:100C100008230122FFF729FF21462846BDE830407E
:100C20000122FFF70EBF30B50C4605460222FFF742
:100C300008FF21462846BDE8304009230122FFF77E
:100C400014BF30B50C4605460222FFF7FAFE2146D6
:100C50002846BDE8304008230122FFF706BF30B523
:100C60000C4605460222FFF7ECFE21462846BDE869
:100C7000304008230122FFF7F8BE40F821207047DA
:100C80000146302906DB392904DCA1F130000F4A86
:100C9000105C7047412906DB5A2904DCA1F14100B0
:100CA0000B4A105CF5E7612906DB7A2904DCA1F127
:100CB0006100074A105CECE72D2901D14020E8E7EC
:100CC000202901D10020E4E70020E2E7141E000003
:100CD0001E1E00002DE9F04104460F46154600BFD8
:100CE000184800F031F80028FAD1002221461548B2
:100CF00000F070F83946134800F02EF8032111482F
:100D000000F028F800BF0F4800F01EF80028FAD1C4
:100D10000C4800F028F8C6B229460A4800F01CF832
:100D20000521084800F016F800BF064800F00CF84E
:100D30000028FAD1034800F016F8C6B23046BDE8E4
:100D4000F081000000000240406810F0010018BF70
:100D5000012070474160704781607047016A41F02F
:100D6000100101627047406810F0010F05D110F0CA
:100D7000120F1CBF00F01C007047002070470000DD
:100D8000036A43F010030362002A14BF0E4A0F4A9D
:100D900002EB820301EB830302EB820292005B1EF3
:100DA000B3FBF2F2521EC260D0F8C02F12F0010F56
:100DB00008BF7047064A1144521CB1FBF2F1491EAC
:100DC00041F08001C1607047801A0600A0860100D2
:100DD0007F47370142EA4101016070471649042804
:100DE00004BF086840F4803018D0052804BF0868A4
:100DF00040F4003012D0062812D00F2815D0102849
:100E000038BF7047103800F01F01012202FA01F1CB
:100E100042090A4850F82200016070470860704794
:100E2000086840F48020086070474FF0E0200169B6
:100E300041F002010161704724ED00E01C21000037
:100E400010B5FFF742FA002818BF012010BD0000BE
:100E50002DE9F04FA3B000201290119013ACC549BA
:100E600013A8FFF7A8FB5E2113A8FFF79AFB8246A1
:100E7000BAF1000F24D000208AF800000A220021D5
:100E80000AF10100FFF755FB80B2129013A8FFF79B
:100E9000B6FB1FFA80FB594613A8FFF7B5FD11906A
:100EA000DDE9111088420BD0B3A000F025FD05202C
:100EB000B64908700020B649087023B0BDE8F08F2D
:100EC0000922B4A12046FFF7B9FB00284FD1607A70
:100ED000303800F0FF09B9F1000F02D0B9F1010F6D
:100EE0003BD1AF4880F80090007848BB0020AD4966
:100EF0000860AD48096830F82100AC490880084610
:100F0000008800EB80004000A94908600020A94942
:100F10000870A94908600120A8490860A849A948A3
:100F2000FFF749FBA649A848FFF745FBA548FFF78F
:100F300066FBA64908600020A549086000F0EAFCAD
:100F4000A4A000F0D9FC012090490870002090492D
:100F5000087013A8FFF720FD0AE1A0A000F0CCFC68
:100F600005208A49087000208949087000E109229B
:100F7000A0A12046FFF762FB00283DD188480078F9
:100F8000012809D09EA000F0B7FC05207F49087019
:100F900000207F49087090E704F10900FFF72FFB5C
:100FA000082809D98DA000F0A7FC05207749087012
:100FB00000207749087080E704F109018148FFF7B4
:100FC000FAFA80498048FFF7F6FA7E48FFF717FBE8
:100FD0007E49086000207E49086000F09BFC7DA0EF
:100FE00000F08AFC012069490870002068490870F7
:100FF00013A8FFF7D1FCBBE00A2288A12046FFF727
:101000001DFB002857D1002565480078012809D02C
:101010007BA000F071FC05205C49087000205C4951
:1010200008704AE72E2104F10A00FFF7BAFA804659
:10103000B8F1000F13D004F10A00FFF76DFAC6B241
:1010400098F801003038C7B24FF47A7016FB00F000
:1010500007EBC70101EB071100EB810507E004F185
:101060000A00FFF759FA4FF47A7100FB01F5642D7D
:1010700017D342F21070854213D84D4805600A20FC
:10108000B5FBF0F04949088052A000F035FC012082
:101090003E49087000203E49087013A8FFF77CFC09
:1010A00066E04EA000F028FC0520384908700020BA
:1010B000374908705CE05CA12046FFF70BFB28BBBA
:1010C0003B4800684FF47A71B0FBF1F0C6B2384883
:1010D0000068B0FBF1F201FB12006421B0FBF1F0FB
:1010E000C7B233462E480097027852A101A8FFF7F5
:1010F0008FF901A800F000FC0120244908700020AD
:101100002349087013A8FFF747FC31E051A120469E
:10111000FFF7E0FA18BB264800684FF47A71B0FB7D
:10112000F1F0C6B222480068B0FBF1F201FB1200F8
:101130006421B0FBF1F0C7B23B46324648A101A89A
:10114000FFF766F901A800F0D7FB01200F490870EE
:1011500000200F49087013A8FFF71EFC08E044A008
:1011600000F0CAFB052009490870002008490870F2
:1011700000BFA2E68C0000204552524F523A204355
:101180004845434B53554D0D0A0000006C000020AC
:101190006D000020534554204D4F44452000000071
:1011A000680000205C000020041E00006000002099
:1011B000640000207C0000208000002058000020F7
:1011C000EC1D00000C0000202C0000204C00002032
:1011D000540000204F4B0D0A000000004552524FB2
:1011E000523A20494E56414C494420504152414DBB
:1011F0000D0A00005345542044495350200000007C
:101200004552524F523A204E4F5420494E2055419C
:101210005254204D4F44450D0A00000053455420C0
:1012200053504545442000004745542053544154F1
:10123000555300005354415455533A4D4F44453D86
:1012400025642C53504545443D25642E25640D0AE4
:10125000000000004745542053504545440000001D
:1012600053504545443A25642E25640D0A0000007C
:101270004552524F523A20494E56414C4944204320
:101280004F4D4D414E440D0A0000000010B5194865
:1012900000F02CFA00BF174800F03CFA0028FAD002
:1012A0001448C01C00F022FA00BF1248C01C00F015
:1012B00031FA0028F9D00F48C01D00F017FA00BF1E
:1012C0000C48C01D00F026FA0028F9D001210A4878
:1012D000FFF79BFC01210948FFF797FC0321084811
:1012E000FFF785FC0A23012203210548FFF7BDFB18
:1012F00010BD0000050800F000500240004006400C
:1013000000D0034010B51E4800F0F0F91D4800F071
:10131000EDF91D48FFF746FC1C48FFF743FC04218C
:101320001B48FFF78EFC08211948FFF77CFC0122BF
:10133000184801681848FFF723FD1748FFF70EFD0E
:10134000FF220C212220FFF7C5FC044600220D21BC
:101350002220FFF7BFFC044600220E212220FFF7C7
:10136000B9FC0446002203211820FFF7B3FC044611
:10137000FF2201211820FFF7ADFC044610BD00003C
:10138000002000F0010800F002080100020C01003A
:1013900000500040080000200000024010B5164830
:1013A00000F0A4F9154800F0A1F900BF134800F0BF
:1013B000B1F90028FAD00120FFF7F4FB40F2014018
:1013C000FFF7F0FB03214FF04020FFF748FC6023BC
:1013D0004FF4E1320A4801680A4800F048FA002256
:1013E0000121084800F07AFA1520FFF7F7FC502198
:1013F000044800F078FA10BD001800F0000800F072
:101400000800002000C000402DE9F003AD4D024669
:101410002868AD4B1840A0F18053B3F5A02358D0F5
:1014200002F03809DFF8A482C2F38414B9F1100F76
:1014300024D0B9F1300F04BF47F230504FF40013FD
:101440000CD03820904304BF4FF40040C30105D0B6
:1014500012F0380F1CBF0020034613D09C4F12F42B
:10146000605F4FF0000618BF00222CD057F83240C2
:1014700044457DD307EBC2025268DFE000234046BB
:101480001524EBE7A4F10900122822D29148D5F8DF
:101490007CC04FF04C7350F824002CF01C0C072C2F
:1014A000A8BF4CF0100CC5F87CC02E6D4FF4002C7A
:1014B00016F4807FD2D1BCF1010C0AD02E6D16F447
:1014C000807FF8D0CAE712F0380F18BFB9F1100FBB
:1014D00003D0BDE8F00300207047C2F30268DFF8D4
:1014E000F8C1002257F83290E14503D307EBC2025E
:1014F000526803E0521C062AF4D33246C5F8C020D5
:10150000D5F8B020DFF8D4C102EA0C0242F0004264
:10151000C5F8B020DFF8C8C1A4F109024C1E5CF880
:1015200028C0A444BCFBF1FCD5F8B0101943C5F8A1
:10153000B01008EBC80101EB41046A4902EB42021A
:1015400001EBC40101EB82046468C5F86441D5F87D
:1015500064416FF0FF0808EB0C2C44EA0C0CC5F852
:1015600064C151F82210D5F8602102F4000200E0B5
:101570005FE01143C5F86011D5F86011D5F860211E
:10158000C1F38921C2F30904D5F86421C2F304220E
:1015900002F1010CD5F8642102F01F02521CB0FBCD
:1015A000F2F04A09C2F100084443424301EB4811FA
:1015B00004EB5212484302EB9020B0FBFCF04108D0
:1015C0000846002257F832C0844503D307EBC20017
:1015D000466802E0521C062AF4D3C5F8C060D5F86C
:1015E000600110F4000F1DBFD5F8B00040F080403E
:1015F000C5F8B000D5F8600104BF40F40000C5F89C
:1016000060014FF40040D5F8682112F0010F02D1BB
:10161000401E0028F7DC002808BF002148D0D5F87C
:10162000B000184340F0010040F01040C5F8B00091
:101630003EE0521C062AFFF419AF3246C5F8C0201E
:10164000D5F8602122F40002C5F86021D5F8B02059
:10165000DFF894C002EA0C0242F00042C5F8B02064
:10166000002908BF4FF0000C0AD0B0FBF1FCBCF120
:10167000000F18BFACF1010C0CF10101B0FBF1F14E
:101680000846002257F83240844203D307EBC200D9
:10169000466802E0521C062AF4D3C5F8C060D5F8AB
:1016A000B00043EA8C22104340F00040C5F8B0007F
:1016B000D5F8B00020F47000C5F8B000BDE8F00324
:1016C0000846704700E00F400000FF700024F4005F
:1016D000902300007421000040787D0100FC0FE0A1
:1016E0006C210000E0210000FF0300EFC0F307239E
:1016F0000749C0B2194401F07043C1F3130143EA32
:10170000411141EA800040F0007001220260704700
:1017100000E60F40C0F307220849C0B2114401F0AF
:101720007042C1F3130142EA411141EA800040F0E6
:1017300000700068002818BF0120704700EA0F40C1
:101740004FF0E020016941F00501016170474FF061
:10175000E020016941F00201016170474FF0E02192
:10176000401E48617047000001200949087009487F
:10177000008828B107480088401E0649088005E017
:101780000A200449088001200349087070470000BE
:10179000050000200000002004000020044800682C
:1017A00040F470000249086002480349086070472D
:1017B00088ED00E00024F4008800002070B50121CD
:1017C0001C4800F094F8054629461A4800F089F8AC
:1017D00029E0184800F038F80446232C0ED11648AA
:1017E000007838B900201549154A1278885401202C
:1017F0001449087000201249087014E0114800785C
:1018000088B90D48007870B90D4800783F2807DA8C
:101810000B490878411C0A4B197008490C5402E026
:10182000012005490870034800F01CF80028D0D1B9
:1018300070BD000000C000406B0000208C00002044
:10184000690000206A000020816911F0100F0CBFB0
:1018500000684FF0FF307047826912F0200FFBD113
:10186000016070478069012121EA10107047D0F8AB
:1018700018C01CF0080FFAD1D0F82CC02CF0100CB6
:10188000C0F82CC0D0F830C02CF0010C2CF4407CF7
:10189000C0F830C0D0F830C0B1EB021F34BF4CF0FC
:1018A000200C2CF0200CC0F830C038BF5208C90002
:1018B000B1FBF2F1491C49088A09426201F03F017B
:1018C0008162C36200218161C16A41F01001C1627D
:1018D000016B40F2013211430163704711434163D0
:1018E000704741647047826B1143816370470029E0
:1018F00014BF006CC06B704710B5044604E014F8C8
:10190000011B0348FFF7A8FF20780028F7D110BD7E
:1019100000C000400F480068082805DD0D48006839
:1019200008380D49086002E000200B4908600B48A8
:10193000006809490968884204DD074800680749CA
:10194000086006E005480068002802DA0020034924
:10195000086070474C000020500000205400002018
:1019600086B000250126012005904FF00009E949C5
:10197000E948FFF749FDE9490860084600684FF467
:101980007A71B0FBF1F00190FFF7E8FEFFF7D8FEA7
:10199000FFF7DDFEFFF754FAFFF778FCFFF7B2FC24
:1019A000FFF7FCFCDE48FEF72AFEDE490860FFF781
:1019B000B1FFDD490868C11700EB5171C910A0EBF8
:1019C000C101C1F10701C9B2029101210298814010
:1019D000C843C2B201211820FFF77CF999E1D3482E
:1019E000007838B1FFF734FA0020D0490870D049A8
:1019F00008700FE0CF48007860B1CFA0FFF77CFF00
:101A00000520D44908700020D3490870C9490870DE
:101A1000C7490870D148007858B30020CF490870F2
:101A2000C14800684719BF480068874203DABC48CC
:101A3000C05D049001E0202004900498FFF720F995
:101A400003900120A84000F0FF0A00220621222076
:101A5000FFF740F905212220039AFFF73BF9524690
:101A600006212220FFF736F9681CC5B2082D00DBDD
:101A70000025BB4800780028B0D00020B849087085
:101A80000121B848FFF7B0F808B1012000E00020BC
:101A900004460221B348FFF7A7F808B1012000E08F
:101AA00000208346B048007838BB012E05D124B908
:101AB000AE4800684042AD4908600598012873D1DE
:101AC000BBF1000F70D1AA480068401CA84908600B
:101AD00008460068042801DB00200860A548A449E6
:101AE000096830F82100A44908800846008800EB06
:101AF00080004000A149086056E0012E3BD1D4BBD4
:101B00009F480068002836DD01209E4908709E48E5
:101B10000068401C9C4908600846006898490968AC
:101B2000884202DD0120984908609848006896497B
:101B30000968401A0A300A2190FBF1F201FB1208F1
:101B4000934800EB48117648FEF735FD7448FEF7E0
:101B500056FD74490860002073490860FFF7DAFEFB
:101B60008CA0FFF7C9FE8A4901EB4810FFF7C4FEBD
:101B70008BA0FFF7C1FE012C16D18A48007898B9D6
:101B80008048007880B100207E490870864964480A
:101B9000FEF711FD6248FEF732FD62490860002041
:101BA00061490860FFF7B6FE26467E480470CDF80E
:101BB00014B074480078B8BB09F101001FFA80F92D
:101BC0006D48008881452FDB4FF0000956480068BA
:101BD0006649096808445449086008460068734922
:101BE0000968884203DD00204F49086007E04E483D
:101BF0000068002803DA6D4800684B4908604A49CC
:101C00000868C11700EB5171C910A0EBC101C1F107
:101C10000701C9B20291012102988140C843C2B2B2
:101C200001211820FFF756F84B480078401C4A491C
:101C3000087048480078072864D2DFE800F06304A1
:101C4000142434435300012211465948FFF715F874
:101C500041480078052805DB02203E490870002035
:101C60003D49087054E0002201215148FFF705F872
:101C700039480078052805DB032036490870002024
:101C80003549087044E0012211464948FEF7F5FF46
:101C900031480078052805DB04202E490870002013
:101CA0002D49087034E0002201214148FEF7E5FF8C
:101CB00029480078052804DB0020264908702649B9
:101CC000087025E0012211463948FEF7D6FF224868
:101CD00000781E2805DB06201E49087000201E49DA
:101CE000087015E0002201213148FEF7C6FF1A48AE
:101CF00000781E2805DB05201649087000201649CB
:101D0000087005E0002201212948FEF7B6FF00BF58
:101D100000BF64E6002D3101500500F108000020ED
:101D20000C0000204C000020540000206A0000201D
:101D3000690000206B0000204552524F523A204269
:101D40005546464552204F564552464C4F570D0A70
:101D5000000000006C0000206D0000200500002045
:101D60000400002000D0034068000020580000203C
:101D70005C000020041E00006000002064000020C1
:101D8000780000207C0000208000002070000020EF
:101D9000CC000020484953544F52593A00000000EB
:101DA0000D0A0000840000202C00002050000020BC
:101DB0000050024010B500290AD00878002807D04A
:101DC00005487844FEF786FC002801D0002010BDAD
:101DD0000248784410BD00001E06000016060000F0
:101DE0004FF04070E1EE100A704700005335323476
:101DF0003033313931303732374375694A756E7453
:101E00006F6E6700000200008000000030000000DC
:101E1000100000003F065B4F666D7D077F6F777C8B
:101E2000395E79713D76301E753837543F7367508F
:101E30006D783E3E3E766E5B004000401000000034
:101E4000008005401000000000500040110000001C
:101E500000900540110000000060004012000000EA
:101E600000A00540120000000070004013000000B8
:101E700000B00540130000000040024014000000C4
:101E800000C0054014000000005002402E00000079
:101E900000D005402E000000006002402F0000002E
:101EA00000E005402F0000000070024030000000FC
:101EB00000F005403000000000D003404600000064
:101EC00000000640460000000010064047000000E9
:101ED0000020064048000000003006407F0000005F
:101EE00000400640800000000050064084000000D2
:101EF000006006408C000000004000401000000020
:101F0000008005401000000000500040110000005B
:101F10000090054011000000006000401200000029
:101F200000A00540120000000070004013000000F7
:101F300000B0054013000000004002401400000003
:101F400000C0054014000000005002402E000000B8
:101F500000D005402E000000006002402F0000006D
:101F600000E005402F00000000700240300000003B
:101F700000F005403000000000D0034043000000A6
:101F8000000006404300000000100640440000002E
:101F900000200640450000000030064058000000C8
:101FA0000040064059000000005006405C00000060
:101FB0000060064064000000007006406C000000F5
:101FC000008006406D000000009006407F00000089
:101FD0000040004000800540005000400090054057
:101FE0000060004000A005400070004000B00540C7
:101FF0000040024000C005400050024000D00540B3
:102000000060024000E005400070024000F0054022
:1020100000D00340000006400010064000100640BB
:1020200000200640002006400030064000300640F8
:102030000040064000400640005006400050064068
:1020400000600640006006400070064000700640D8
:102050000080064000800640009006400090064048
:10206000000700000006000000050000000400005A
:10207000000300000002000000010000000000005A
:102080000000000018ED00E01CED00E020ED00E095
:1020900000E400E004E400E008E400E00CE400E018
:1020A00010E400E014E400E018E400E01CE400E0C8
:1020B00020E400E024E400E028E400E02CE400E078
:1020C00030E400E034E400E038E400E03CE400E028
:1020D00040E400E044E400E048E400E04CE400E0D8
:1020E00050E400E054E400E058E400E05CE400E088
:1020F00060E400E064E400E068E400E06CE400E038
:1021000070E400E074E400E078E400E07CE400E0E7
:1021100080E400E084E400E088E400E000E100E026
:1021200004E100E008E100E00CE100E010E100E083
:1021300080E100E084E100E088E100E08CE100E083
:1021400090E100E000E200E004E200E008E200E0EC
:102150000CE200E010E200E080E200E084E200E057
:1021600088E200E08CE200E090E200E0006889098B
:10217000001C4E0E40420F0000201C0080841E00F8
:1021800000802500999E36000040380000093D007F
:1021900000803E0000004B00404B4C0000204E00F1
:1021A000808D5B0000C05D000080700000127A002E
:1021B00000007D0080969800001BB7000080BB00E7
:1021C000C0E8CE00647ADA000024F4000000FA00CF
:1021D00080A81201002D310100366E0140787D018A
:1021E0004000000000000000000100003E00080068
:1021F0000000000000010000A0000000020000003C
:102200000001000034540100000000000001000043
:102210002B700600000000000001000028000000F4
:102220000000000000010000270001000000000085
:10223000000100002000000000000000000100007C
:102240005000000002000000000100001AAC000075
:1022500000000000000100001794090000000000C9
:1022600000010000169805000000000000010000B9
:1022700014000000000000000001000013800800AE
:102280000000000000010000A000000008000000A5
:10229000000100001000000000000000000100002C
:1022A00028000000020000000001000040000000C3
:1022B00004000000000100006000000000000000B9
:1022C000000100005D000C000000000000010000A3
:1022D0005000000000000000000100004E0002005D
:1022E000000000000001000041AC010000000000FF
:1022F000000100003C0000000000000000010000A0
:102300003A800900000000000001000030000000D9
:102310000000000000010000280000000000000094
:102320000001000027000100000000000001000083
:10233000236006000000000000010000216008008A
:1023400000000000000100001E000000000000006E
:10235000000100001DC0040000000000000100009A
:102360005000000002000000000100001800000002
:102370000000000000010000140000000000000048
:1023800000010000600000000400000000010000E7
:102390000024F40030003000005A620291009100E5
:1023A00000879303D200D20000B4C40413011301C8
:1023B00000E1F50554015401000E27079501950130
:1023C000F0240000000000208C0000003C0200000F
:1023D0007C2500008C000020E4030000580200006F
:1023E0001001000043000000F8FFFFFF00404040E4
:1023F00040404040404041414141414040404040D8
:102400004040404040404040404040404005020283
:102410000202020202020202020202020220202042
:10242000202020202020200202020202020290909E
:10243000909090901010101010101010101010109C
:1024400010101010101010100202020202028888F0
:1024500088888888080808080808080808080808FC
:1024600008080808080808080202020240000000E4
:10247000000000000000000000000000000000005C
:10248000000000000000000000000000000000004C
:10249000000000000000000000000000000000003C
:1024A000000000000000000000000000000000002C
:1024B000000000000000000000000000000000001C
:1024C000000000000000000000000000000000000C
:1024D00000000000000000000000000000000000FC
:1024E00000000000000000000000000000000000EC
:1024F00000000000000000000000000053353234EE
:102500003033313931303732374375694A756E743B
:102510006F6E670000000000000000005335323489
:102520003033313931303732374375694A756E741B
:102530006F6E670000000000000000000000000057
:10254000000000000000000001000000000000008A
:102550000002000000140000000000000000000065
:10256000000000000000000000000000000000006B
:0C25700000000000010000000024F40046
:04000005000002E510
:00000001FF
