:020000040000FA
:1000000040090020F5020000FD020000FF02000090
:1000100001030000030300000503000000000000CE
:1000200000000000000000000000000007030000C6
:1000300009030000000000000B030000C1380000AD
:100040000F0300001103000013030000150300005C
:1000500017030000453A00001B0300001D030000C9
:100060001F030000210300002303000025030000FC
:1000700027030000290300002B0300002D030000CC
:100080002F0300003103000033030000350300009C
:1000900037030000390300003B0300003D0300006C
:1000A0003F0300004103000043030000450300003C
:1000B00047030000490300004B0300004D0300000C
:1000C0004F030000510300005303000055030000DC
:1000D00057030000590300005B0300005D030000AC
:1000E0005F0300006103000063030000650300007C
:1000F00067030000690300006B0300006D0300004C
:100100006F0300007103000073030000750300001B
:1001100077030000790300007B0300007D030000EB
:100120007F030000810300008303000085030000BB
:1001300087030000890300008B0300008D0300008B
:100140008F0300009103000093030000AD03000043
:100150000000000000000000AF030000B103000039
:10016000B3030000B503000000000000B703000067
:10017000B9030000BB030000BD030000BF03000083
:10018000C1030000C3030000C5030000C703000053
:10019000C9030000CB030000CD030000CF03000023
:1001A000D1030000D3030000D5030000D7030000F3
:1001B000D9030000DB030000DD030000DF030000C3
:1001C000E1030000E3030000E5030000E703000093
:1001D000E9030000EB030000ED030000EF03000063
:1001E000F1030000F3030000F5030000F703000033
:1001F000F9030000FB030000FD030000FF03000003
:1002000000F002F800F053F80AA090E8000C8244D5
:100210008344AAF10107DA4501D100F048F8AFF2B2
:10022000090EBAE80F0013F0010F18BFFB1A43F0D4
:10023000010318473C4300005C430000103A24BF10
:1002400078C878C1FAD8520724BF30C830C144BF3B
:1002500004680C607047000000230024002500267D
:10026000103A28BF78C1FBD8520728BF30C148BF19
:100270000B607047642900F03781752900F03481E4
:10028000782900F06D81732900F0618300207047A8
:100290001FB503F049FE00F0E9FB04000020002137
:1002A00003F02CFE401C60601FBD10B510BD00F0B7
:1002B000EFFB1146FFF7ECFF03F008FD00F00DFC2B
:1002C00003B4FFF7F2FF03BC00F050FCEFF3108023
:1002D00072B67047EFF310807047EFF3108062B68C
:1002E000704730BF704780F311887047EFF311807B
:1002F000704700004548804745480047FEE7FEE755
:10030000FEE7FEE7FEE7FEE7FEE7FEE7FEE7FEE7C5
:10031000FEE7FEE7FEE7FEE7FEE7FEE7FEE7FEE7B5
:10032000FEE7FEE7FEE7FEE7FEE7FEE7FEE7FEE7A5
:10033000FEE7FEE7FEE7FEE7FEE7FEE7FEE7FEE795
:10034000FEE7FEE7FEE7FEE7FEE7FEE7FEE7FEE785
:10035000FEE7FEE7FEE7FEE7FEE7FEE7FEE7FEE775
:10036000FEE7FEE7FEE7FEE7FEE7FEE7FEE7FEE765
:10037000FEE7FEE7FEE7FEE7FEE7FEE7FEE7FEE755
:10038000FEE7FEE7FEE7FEE7FEE7FEE7FEE7FEE745
:10039000FEE7FEE7FEE7FEE7FEE7FEE7FEE7FEE735
:1003A000FEE7FEE7FEE7FEE7FEE7FEE7FEE7FEE725
:1003B000FEE7FEE7FEE7FEE7FEE7FEE7FEE7FEE715
:1003C000FEE7FEE7FEE7FEE7FEE7FEE7FEE7FEE705
:1003D000FEE7FEE7FEE7FEE7FEE7FEE7FEE7FEE7F5
:1003E000FEE7FEE7FEE7FEE7FEE7FEE7FEE7FEE7E5
:1003F000FEE7FEE7FEE7FEE7FEE7FEE7FEE7FEE7D5
:1004000004480549034A054B704700004539000080
:1004100001020000400700204009002040070020A2
:100420000FB41CB5074B06AA7B446946009005989B
:1004300000F063FA0020694600F072FA1CBC5DF817
:1004400014FB0000F504000070B5044685690068DF
:10045000C10601D5302600E02026C00707D070BDB8
:10046000D4E9012130469047206A401C20626D1E6D
:10047000F6D570BD70B5044685690078C00707D110
:1004800070BDD4E9012120209047206A401C2062E1
:100490006D1EF6D570BD70B50C460546012A05D017
:1004A0002878800600D5EA69002302E0012305E0F0
:1004B0005B1C934202D2E05C0028F9D1A869E618DF
:1004C000C01AA861286A184428622846FFF7BCFFB2
:1004D00004E0D5E9012114F8010B9047B442F8D3A8
:1004E0002846FFF7C7FF70BD2DE9F04106460024FE
:1004F00010687529314616A510D0AFF3008000288A
:1005000002DA404213A507E031688A0701D512A537
:1005100002E0490704D511A5012401E0AFF30080F2
:1005200000210A2206F1240709E0B0FBF2FCB0FB2F
:10053000F2F302FB1C00303078541846491C0028A6
:10054000F3D123462A463046BDE8F04100F076B9A3
:10055000000000002D0000002B0000002000000023
:1005600070B504460D4621461068AFF3008021881F
:10057000090502D50F4A7A4402E00E4A7A440E3247
:10058000002104F1240305E000F00F060009965D48
:100590005E54491C0028F7D120780023000704D5B9
:1005A000702D02D009B1022311322046BDE87040FF
:1005B00000F044B9723F00002DE9F05F894604461F
:1005C0004FF0000ADFF874B1FB44C0F820A02046C9
:1005D000E1688847002874D0252806D0D4E9012195
:1005E0009047206A401C2062F1E700265F462046C3
:1005F000E16888472028054607DB312D05D27819A8
:1006000010F8200C08B10643F1E7B00701D526F039
:100610000406C4F81CA00027C4F818A02A2D09D08D
:10062000284603F04BFB38B304EB8708303DC8F88D
:10063000185019E059F8041B204604EB8702916119
:10064000E1688847012F054618D1E069002820DAC3
:1006500026F020061DE0D8F8180000EB800005EB1E
:1006600040003038C8F818002046E1688847054641
:1006700003F024FB0028EED1012F0AD02E2D08D143
:100680002046E16888477F1C0546022F46F0200679
:10069000C4DBA069002803DA404246F00106A061ED
:1006A000F00701D026F010066C2D0BD0682D09D074
:1006B0004C2D39D06A2D35D0742D35D07A2D33D0CC
:1006C00016E038E0E1682F4620468847B8420546E4
:1006D00009D16C2F26D04FF48060E1680643204694
:1006E0008847054604E06C2F1AD04FF4807006430B
:1006F0000DB3A5F14100192802D8203546F4006653
:100700004A462946204626604E46FFF7B3FD80B193
:1007100001280BD0F61D26F0070000F1080956E766
:100720004020E4E78020D8E70020D6E706F104095E
:100730004DE7284652E7206ABDE8F09F483F000099
:1007400070B5064600F076F80468054630460A2281
:10075000002100F04FF92C6070BD2DE9F05F934649
:100760000F4680460446002600F064F8D0F800905A
:10077000824614F8015B2DB100F054F80068405D2A
:10078000C007F6D12B2D02D02D2D1AD0641E0021CA
:10079000CAF800105A463946204600F0DCF80146F7
:1007A00027B13868A04201D1C7F80080DAF800000C
:1007B000022809D0CAF80090700505D54842BDE866
:1007C000F09F46F48066E2E70846F8E7401ECAB2AA
:1007D00010F8011F8A4202D00029F9D10020704789
:1007E00010B5431C02E010F8011B71B18107FAD16A
:1007F0004FF0013202C88C1A8C4314EAC211F9D0AE
:10080000C01A0A0603D0C01E10BDC01A10BD0A04CB
:1008100001D0801E10BD0902FCD0401E10BD7047E3
:100820007047704710B500F021F9001D10BD00BFE2
:10083000CD36000000487047E00600202DE9F04763
:100840000D4699469246044600F124080168880640
:1008500004D5E06921F01001216000E00120A842E8
:1008600001DD471B00E00027A1697A1902EB0900AE
:10087000081AA0612078C00602D42046FFF7E4FDE4
:10088000002608E0D4E901211AF806009047206A02
:10089000401C761C20624E45F4DB2078C0060AD549
:1008A0002046FFF7D1FD06E0D4E901213020904732
:1008B000206A401C2062381EA7F10107F4DC07E023
:1008C000D4E9012118F805009047206A401C2062F5
:1008D000281EA5F10105F3DC2046FFF7CBFD2078AB
:1008E000000602D50220BDE8F0870120FBE70000EA
:1008F00001694A1C02610878704700B58FB0CDE9E4
:1009000001310021059105497944CDE903101146D3
:100910006846FFF751FE0FB000BD0000E5FFFFFF86
:100920000A6802F8010B0A60704710B5436913B1F9
:10093000AFF3008001E0FFF7AEFD012010BD12789B
:1009400000F124010A7000224A700122EDE71168CB
:100950004FF0FF32E9E72DE9F05F824615468B46FE
:1009600000270AF10104B9460078302801D09DB172
:1009700013E014F8010B0127782803D0582801D080
:1009800045B10AE00DB1102D07D1002714F8010B75
:10099000102502E0082500E00A250026B0460EE0FA
:1009A00005FB080005FB06F101271FFA80F801EBA3
:1009B0001046B6F5803F00D3B94614F8010B29461E
:1009C00000F058F80028EBDABBF1000F05D00FB1AA
:1009D000641E00E05446CBF80040B9F1000F06D089
:1009E000FFF728FF02210160C81EBDE8F09F48EA1A
:1009F0000640FAE72DE9F04791460F468046044647
:100A0000002614F8015B2DB1FFF70CFF0068405D74
:100A1000C007F6D12B2D02D02D2D18D0641E4A46CA
:100A200039462046FFF797FF27B13968A14201D127
:100A3000C7F800804FF0020471050BD54042002832
:100A400003DDFFF7F7FE0460A007BDE8F08746F47A
:100A50008066E4E70028F8DAFFF7ECFE04606FF048
:100A60000040F2E700487047E00600200048704769
:100A7000000700203A2800D2303820F02002412A16
:100A800001D3A2F13700884201D34FF0FF30704705
:100A90007546FFF7E7FFAE4605006946534620F06E
:100AA0000700854618B020B5FFF7AAFCBDE8204036
:100AB0004FF000064FF000074FF000084FF0000B1A
:100AC00021F00701AC46ACE8C009ACE8C009ACE8CD
:100AD000C009ACE8C0098D46704710B50446AFF3B5
:100AE00000802046BDE81040FFF7EABB4FF0013C14
:100AF00050F8042B51F8043B9A4221D1A2EB0C038D
:100B0000934313EACC1317D150F8042B51F8043B4C
:100B10009A4215D1A2EB0C03934313EACC130BD1E9
:100B200050F8042B51F8043B9A4209D1A2EB0C0374
:100B3000934313EACC13DBD04FF00000704700BFA3
:100B4000D01A01BAB1FA81F101F0180122FA01F0CC
:100B5000CB40C1F12001DBB2C0B2C01A2CFA01F3C4
:100B6000D11A914311EAC311E6D170470149182007
:100B7000ABBEFEE72600020070470000144A12795F
:100B800002B97047124A527902B1FAE70021C278DD
:100B90000F4B1B789A4214D102790D4B5B789A4225
:100BA0000FD142790A4B9B789A420AD1084AD278EF
:100BB0000AB9012105E0064AD27883789A4200D129
:100BC000012111B10122024B5A7100BFD9E7000087
:100BD0000000002007200449087000204870887039
:100BE000C8700871487170470000002001484079C2
:100BF0007047000000000020002001494871704744
:100C00000000002010B500200C4908700C49088035
:100C1000FF200C49087000220121182001F0A4FBDC
:100C2000002004E03821084A1154411CC8B20828A9
:100C3000F8DBFF21054A117010BD0000A60000205E
:100C4000A80000208D000020370000203600002082
:100C500070B5A2480088401CA0490880A0480078D0
:100C600008286FD2DFE800F00423426189A8F5F379
:100C70009A4800881E2819DB002098490880012026
:100C800097490870002097490870FF220121182019
:100C900001F06AFB002404E0202093490855601C01
:100CA000C4B2082CF8DB00209049087012E18B4890
:100CB0000088142819DB0020884908800220884910
:100CC0000870FF208749087000220121182001F0D8
:100CD0004BFB002404E0382083490855601CC4B253
:100CE000082CF8DBFF2081490870F3E07B4800887E
:100CF0001E2819DB002079490880032078490870F4
:100D0000002078490870FF220121182001F02CFBF7
:100D1000002404E0202074490855601CC4B2082C4B
:100D2000F8DB002071490870D4E06C480088142872
:100D300022DB0020694908800420694908700820E6
:100D400000240CE0C3E0844204DA69A1095D664A2C
:100D5000115502E02021644A1155611CCCB2082CC7
:100D6000F1DB002061490870FF205E490870002215
:100D70000121182001F0F8FAACE05848008850280A
:100D800019DB0020554908800520554908700020CE
:100D900054490870FF220121182001F0E5FA0024CF
:100DA00004E0202050490855601CC4B2082CF8DB30
:100DB00000204E4908708DE05048007830BB47480D
:100DC0000088142842DB082500240BE0AC4204DA3A
:100DD0004BA0005D4449085502E0202042490855D7
:100DE000601CC4B2082CF1DB002040490870FF20D1
:100DF0003C49087000220121182001F0B5FA0020BA
:100E00003649088001203D4908701FE033480088BA
:100E100050281BDB0020314908800620304908702B
:100E20000020364908702F490870FF220121182040
:100E300001F09AFA002404E020202B490855601C98
:100E4000C4B2082CF8DB00202849087042E03FE0DB
:100E5000FFE72E48007830BB20480088142835DB97
:100E6000072500240BE0AC4204DA29A0005D1E49EE
:100E7000085502E020201C490855601CC4B2082C0B
:100E8000F1DB002019490870FF2016490870002284
:100E90000121182001F068FA002010490880012083
:100EA0001A49087012E00D48008878280EDB0020EF
:100EB0000A49088007200A49087000201349087071
:100EC000084908700121072001F034FF02E000BF4B
:100ED000012070BD00BF0020FBE70000A80000203B
:100EE000A60000208D0000203700002036000020E2
:100EF000333139313037323700000000AA0000208A
:100F00004355494A4E544E4700000000AB000020B4
:100F1000564552312E302000002004490870044903
:100F200008700449087004490870704706000020E2
:100F300007000020080000200900002000200149CF
:100F400008707047060000200120014908707047B2
:100F50000600002000B51448007818B90020134995
:100F6000087000BD12480078401C114908701148F3
:100F70000078401C0F49087008460078642802DB9E
:100F800000F02EF8EDE70A490878C11700EB9171DF
:100F90008910A0EB8101022902DAFFF7D5FF01E0F9
:100FA000FFF7CCFF00BFDCE70700002006000020B1
:100FB00008000020090000200120054908700020D9
:100FC000044908700449087004490870704700001B
:100FD0000700002008000020090000200600002073
:100FE0000020044908700449087004490870044945
:100FF000087070470700002008000020090000204A
:101000000600002070B509480078C043C4B2084803
:10101000007810B104F07F0401E044F0800422461F
:101020000121182001F0A0F9054670BD8D000020B7
:1010300006000020F0B504460B461546022B03DCE3
:1010400003F10C06621E01E01E4622462946771C6B
:1010500007EB870C0CEBC7074FF0050C97FBFCF771
:10106000394411444FEAE27C02EB9C7C01EBAC0179
:10107000491DA1F1280739B2072791FBF7FC07FBAF
:101080001C11002901DACF1D39B2C8B2F0BD000031
:1010900070B506460C46012C01DB0C2C01DD1E2030
:1010A00070BD601E05490D5C022C04D1304600F075
:1010B00023F800B11D252846F2E70000323F00006A
:1010C0002DE9F04704460D4616461F46DDE908891E
:1010D0000848047045708670C77080F8048080F8F6
:1010E0000590324629462046FFF7A4FF0149887142
:1010F000BDE8F0870A000020024602F5FA614FF4CD
:10110000C87091FBF0F300FB131008B90120704781
:10111000642091FBF0F300FB131008B90020F6E700
:10112000CB1701EB93739B10A1EB83030BB9012049
:10113000EDE70020EBE7000010B52D484079401C9A
:101140002B494871084640793C2800DA10BD002040
:101150002749487108460079401C08710846007903
:101160003C2800DAF2E70020214908710846C078DF
:10117000401CC8700846C078182800DAE6E700204E
:101180001B49C87008468079401C887108468079E0
:10119000062801DD0020887115488078401C14491C
:1011A00088700A4651781078FFF772FF10498978E5
:1011B000884200DBCAE701200D4988700846407864
:1011C000401C4870084640780C2800DCBEE701202F
:1011D0000749487008460078401C087008780122CA
:1011E0001146FFF727FF0249887100BFAEE70000F4
:1011F0000A0000201CB50C48007968B10A48C07884
:1012000009498978CDE9001007484378027807A199
:101210000C48FFF705F903E00BA10A48FFF700F9B6
:10122000084802F06BF81CBD000000204F4B202541
:101230003032642E253032642E253032642025640D
:101240000D0A00005E0600204F4B204F46460D0A57
:101250000000000038B50A480078642190FBF1F2E4
:1012600001FB120406488078009005484378224626
:1012700004A10948FFF7D4F8074802F03FF838BD49
:101280000A0000204F4B20253032642E2530326476
:101290002E253032640D0A005E06002010B5084885
:1012A000007828B1074A08A10948FFF7B9F803E018
:1012B00008A10748FFF7B4F8054802F01FF810BD71
:1012C00034000020120000204F4B2025730D0A002F
:1012D0005E0600204F4B204F46460D0A00000000DE
:1012E00010B506480078012803D105A002F006F8E1
:1012F00002E006A002F002F810BD0000330000205A
:101300004F4B2052494748540D0A00004F4B204C88
:101310004546540D0A00000008B507484079009082
:1013200005480379C27805A10948FFF779F808480C
:1013300001F0E4FF08BD00000A0000204F4B20250B
:101340003032642E253032642E253032640D0A008E
:101350005E06002010B50548026805A10748FFF7A2
:101360005FF8064801F0CAFF10BD0000A000002091
:101370002A504F4E4720256C750D0A005E0600204E
:1013800010B502A001F0BAFF10BD00004F4B0D0ACE
:10139000000000002DE9F84305460027009557E0BE
:1013A00034A1404601F010FD50B1002032490871CF
:1013B0004871FFF715FE31A001F0A0FFBDE8F883EA
:1013C000684601F045FD06461EB92EA001F096FFC5
:1013D000F4E73046FFF7B4F9C4B22CA1404601F05F
:1013E000F3FC60B1172C03DD26A001F087FFE5E7D1
:1013F00021480470012020490871012727E025A118
:10140000404601F0E1FC60B13B2C03DD1DA001F082
:1014100075FFD3E718484470012017490871012768
:1014200015E01EA1404601F0CFFC60B13B2C03DD6E
:1014300014A001F063FFC1E70F48847001200E493A
:101440000871012703E00FA001F058FFB6E700BFC5
:10145000684601F0FDFCB0F10008A1D12FB10649AA
:10146000487106A001F04AFF02E006A001F046FF25
:1014700000BFA3E74F464600000000204F4B0D0A77
:10148000000000004552524F520D0A00484F55527D
:10149000000000004D494E75746500005345436FD0
:1014A0006E64000031B5684601F0D2FC05461DB9F6
:1014B0000EA001F023FF38BD2846FFF741F904468E
:1014C0000A2C03D341F28830844203D907A001F0EB
:1014D00015FFF0E7FFF738FD0A20B4FBF0F00549EF
:1014E000088005A001F00AFF00BFE4E74552524F13
:1014F000520D0A00A40000204F4B0D0A000000000E
:101500002DE9FE4305463D48016800918188ADF80C
:10151000041080798DF806000027029543E002A8A8
:1015200001F096FC064626B935A001F0E7FEBDE8BD
:10153000FE833046FFF704F9C4B233A1404601F000
:1015400043FC48B1632C03DD2DA001F0D7FEEEE78C
:101550008DF80040012725E02DA1404601F034FC24
:1015600058B1012C01DB0C2C03DD25A001F0C6FED7
:10157000DDE78DF80140012714E027A1404601F086
:1015800023FC58B1012C01DB1F2C03DD1CA001F052
:10159000B5FECCE78DF80240012703E018A001F06A
:1015A000ADFEC4E700BF02A801F052FCB0F1000894
:1015B000B5D1F7B19DF801109DF80000FFF768FD67
:1015C0009DF80210884207DA9DF801109DF800008E
:1015D000FFF75EFD8DF80200084800990160BDF834
:1015E000041081809DF8061081710DA001F086FE27
:1015F00002E003A001F082FE00BF98E70A0000208D
:101600004552524F520D0A00594541520000000008
:101610004D4F4E5448000000444154450000000026
:101620004F4B0D0A0000000031B5684601F010FC78
:1016300004461CB910A001F061FE38BD10A120467F
:1016400001F0C2FB30B101200E4908700EA001F07C
:1016500055FE0EE00EA1204601F0B6FB30B1002091
:101660000849087008A001F049FE02E002A001F05C
:1016700045FE00BFE1E700004552524F520D0A00FF
:101680004F4E0000340000204F4B0D0A00000000B8
:101690004F46460031B5684601F0DAFB04461CB9F6
:1016A00010A001F02BFE38BD10A1204601F08CFBEC
:1016B00030B1002000F0EAFA0EA001F01FFE0EE0AB
:1016C0000EA1204601F080FB30B1012000F0DEFACF
:1016D00008A001F013FE02E002A001F00FFE00BF1F
:1016E000E1E700004552524F520D0A004C45465466
:1016F000000000004F4B0D0A00000000524947480F
:1017000054000000F1B5684601F0A2FB05461DB982
:101710000FA001F0F3FDF8BD002411E0204601F018
:1017200093F806463146284601F04EFB30B120467C
:1017300001F0B4FA08A001F0E1FDECE7601CC4B2CE
:101740000A2CEBDB02A001F0D9FD00BFE3E70000AB
:101750004552524F520D0A004F4B0D0A0000000037
:1017600011B581B001A801F073FB04461CB90BA0B0
:1017700001F0C4FD1CBD6946204601F088FB18B984
:1017800006A001F0BBFDF5E79DF8000005490870D3
:1017900005A001F0B3FD00BFECE700004552524F39
:1017A000520D0A008D0000204F4B0D0A0000000072
:1017B00031B5684601F04CFB04461CB917A001F096
:1017C0009DFD38BD17A1204601F0FEFA68B100204A
:1017D00000F070FA0121072001F0ACFA002000F0BF
:1017E000FBFB11A001F08AFD15E011A1204601F0DC
:1017F000EBFA68B1012000F05DFA0021072001F04A
:1018000099FA012000F0E8FB07A001F077FD02E063
:1018100002A001F073FD00BFD3E700004552524F14
:10182000520D0A00444159004F4B0D0A00000000C0
:101830004E4947485400000070B50546284601F05F
:1018400085FE04460CB1207818B90AA001F056FDB7
:1018500070BD2046FEF7C4FF202803D905A001F083
:101860004DFDF5E7204600F0EDF904A001F046FD3E
:1018700000BFEDE74552524F520D0A004F4B0D0A83
:10188000000000002DE9F8430546002700953FE0E1
:10189000684601F0DDFA064626B925A001F02EFDC6
:1018A000BDE8F8833046FEF74BFFC4B222A14046A4
:1018B00001F08AFA48B1172C03DD1DA001F01EFDCE
:1018C000EEE71F48C470012721E01EA1404601F049
:1018D0007BFA48B13B2C03DD15A001F00FFDDFE7DB
:1018E00017480471012712E018A1404601F06CFA74
:1018F00048B13B2C03DD0EA001F000FDD0E71048FD
:101900004471012703E00AA001F0F8FCC8E700BF1A
:10191000684601F09DFAB0F10008B9D11FB10DA0E1
:1019200001F0ECFC02E002A001F0E8FC00BFB7E728
:101930004552524F520D0A00484F555200000000C8
:101940000A0000204D494E75746500005345436FF1
:101950006E6400004F4B0D0A00000000002100E003
:10196000491C8142FCD370472DE9FF413C48FEF7FA
:1019700037FFC7B2002411E03A480088204405B27E
:10198000002D06DBBD4204DA3548405D02A908554A
:1019900002E0202002A90855601C04B2082CEBDBF1
:1019A000002600241AE002A8005D2E2814D1002C85
:1019B00004DD601E01218140C8B20643E0B205E0AB
:1019C00002AA411C515C1154411CC8B20728F7DB24
:1019D00020218DF80F1000BF601C04B2082CE2DB40
:1019E0002148007801282CD1002407E0C4F1070227
:1019F00002AB9A5C0DF80420621C14B2082CF5DBD3
:101A0000002000240FE00122A24032404AB1C4F17C
:101A10000702D1B2072904DA4A1C01239340DAB243
:101A20001043621C14B2082CEDDB002405E01DF805
:101A3000042002AB1A55621C14B2082CF7DB0646D0
:101A400000BF002405E002A8005D08490855601C9D
:101A500004B2082CF7DB06480670BDE8FF810000E1
:101A6000120000204000002033000020370000203A
:101A70003600002070B515480078032800D070BDEE
:101A80001348FEF7ADFE05B2082D00DCF7E7A5F11F
:101A9000080004B20F4800880F4991F9001008446B
:101AA00000B20C4908800846B0F90000A04202DDEF
:101AB0000020088006E00748B0F90000002801DA9D
:101AC00004480480FFF750FF00BFD8E73200002031
:101AD0001200002040000020420000200146302972
:101AE00006DB392904DCA1F13000114A105C704793
:101AF000412906DB5A2904DCA1F141000D4A105CA2
:101B0000F5E7612906DB7A2904DCA1F16100094AC5
:101B1000105CECE72D2901D14020E8E75F2901D1D5
:101B20000820E4E73D2901D14820E0E70020DEE776
:101B30003E3F0000483F000010B500220621222051
:101B400000F012FC00220521222000F00DFC0024F0
:101B500004E0202011490855601CC4B2082CF8DBB1
:101B600000200F4908700F4908700F4908700120C4
:101B70000E49087000200E4908700E4908800120A7
:101B80000D49087000200D49087032200C4908806A
:101B900000200C4908800C49087010BD3700002057
:101BA00036000020320000203300002034000020E6
:101BB00035000020400000204200002043000020AB
:101BC0004400002046000020120000202DE9F041D2
:101BD0000446082C01DBBDE8F0810022062122200A
:101BE00000F0C2FB1348007800B9F4E7124800780F
:101BF000012802D1042C00DBEDE71048075D3846D0
:101C0000FFF76CFF05460120A0400D490978084008
:101C100008B145F080052A460521222000F0A4FBEA
:101C20000120A040C6B232460621222000F09CFBD3
:101C300000BFD0E73400002035000020370000202E
:101C40003600002070B506463046FEF7C9FDC5B225
:101C5000202D00DB1F25002404E0305D08490855D5
:101C6000601CC4B2AC42F8DB002005494855054968
:101C70000880032004490870FFF776FE70BD00005D
:101C800012000020400000203200002010B5044661
:101C90000CB1012C01D102480470FFF765FE10BDA4
:101CA00033000020032801DC014908707047000060
:101CB0003200002001490870704700003500002004
:101CC00070B58AB004462848007840B96079009021
:101CD0002379E27825A102A8FEF7A2FB25E022489D
:101CE000007801280ED12078642190FBF1F201FBED
:101CF0001206A0780090637832461CA102A8FEF775
:101D00008FFB12E01848007802280AD1A0780090D2
:101D10006378207800F5FA6218A102A8FEF780FB2C
:101D200003E0FFF721FE0AB070BD002510E002A815
:101D3000FEF756FDC0B2A84204DD02A8405D13497B
:101D4000485503E000201149485503E0681CC5B21E
:101D5000202DECDB00BF00200C49C8770C4908801F
:101D6000FFF702FE00BFDEE73200002025303264BC
:101D70002E253032642E2530326400002530346444
:101D8000253032642530326400000000120000204B
:101D900040000020F0B585B004460D4616461F46AB
:101DA0003946304600F0BCF8284600F0FFF860796C
:101DB00000902379E27803A101A8FEF731FB05B07A
:101DC000F0BD0000253032643A253032643A2530C7
:101DD0003264000070B5054624480078102801DB05
:101DE000002070BD2846FEF7FBFCC4B2402C00DB8F
:101DF0003F2400200AE0295C1D4A127802EB4212BF
:101E00001C4B03EB42021154411CC8B2A042F2DB4E
:101E10000021174A127802EB4212164B03EB4202E2
:101E200011551348007800EB4010194601EB4000B3
:101E300080F8404001200E49097801EB41111A4613
:101E400002EB410181F8410009480078401C084933
:101E5000087008460078102801DB0020087003484D
:101E60000078401C014908700120BAE74A000020B0
:101E700048000020B800002003480078002801DD59
:101E8000012070470020FCE74A000020002013E0FA
:101E9000002100EB40120E4B03F8121000EB401231
:101EA00003EB420282F8401000EB401203EB4202C7
:101EB00082F84110411CC8B21028E9DB0021054A14
:101EC0001170054A1170054A1170054A118070475A
:101ED000B800002048000020490000204A000020EF
:101EE0004C00002010B504461CB104A0FFF772FF9F
:101EF00002E006A0FFF76EFF10BD00002A45565411
:101F00003A414C41524D0D0A000000002A455654FA
:101F10003A414C41524D204F46460D0A0000000008
:101F200070B594B005460E4600240BE02DB1285D37
:101F300018B1285D01A9085502E0202001A9085523
:101F4000601CC4B2082CF1DB00208DF80C00334675
:101F500001AA04A104A8FEF763FA04A8FFF73AFF58
:101F600014B070BD2A4556543A4449535020257345
:101F700020253032580D0A0030B591B00446204675
:101F800000F062FC05462A4604A101A8FEF748FAC3
:101F900001A8FFF71FFF11B030BD00002A455654BD
:101FA0003A4B45592025730D0A00000010B590B03A
:101FB0000446224604A16846FEF732FA6846FFF757
:101FC00009FF10B010BD00002A4556543A4C454454
:101FD00020253032580D0A0010B50446012C03D1DB
:101FE00003A0FFF7F7FE02E006A0FFF7F3FE10BD27
:101FF0002A4556543A4D4F4445204E494748540DC2
:102000000A0000002A4556543A4D4F4445204441A9
:10201000590D0A0070B529480088401C27490880DE
:1020200008460088052800DA70BD00202349088092
:102030002348007800B9F7E72248007800EB401009
:10204000214901EB400090F8410010B9FFF71EFF55
:10205000EAE71C48007800EB40101B4901EB400503
:10206000002404E0285D01F009FD601CC4B215489D
:10207000007800EB4010144901EB400090F840005C
:10208000A042EFDC00200F49097801EB41110E4A14
:1020900002EB410181F841000A480078401C0949DF
:1020A000087008460078102801DB002008700448FA
:1020B0000078401E0249087000BFB5E74C000020C0
:1020C0004A00002049000020B8000020D0F8003469
:1020D00012F0010F14BF0B438B43C0F8003412F011
:1020E000020FD0F8202414BF114322EA0101C0F8E6
:1020F000201470472DE9F00301264FF0000C032552
:10210000C2F3411706FA0CF40C4211D0D0F8C48F78
:102110004FEA4C0405FA04F928EA0908C0F8C48F0C
:10212000D0F8C48F07FA04F448EA0404C0F8C44F96
:102130000CF1010C0CF0FF0CBCF1080FE2D3D0F84D
:1021400000C512F0010F14BF4CEA010C2CEA010C7F
:10215000C0F800C5D0F804C512F0020F14BF4CEA55
:10216000010C2CEA010CC0F804C5D0F808C512F027
:10217000040F14BF4CEA010C2CEA010CC0F808C58E
:10218000D0F818C512F0080F14BF4CEA010C2CEA65
:10219000010CC0F818C512F0100FD0F83C2514BF80
:1021A0000A438A43C0F83C25D0F80C2513F0010FF0
:1021B00014BF0A438A43C0F80C25D0F8102513F049
:1021C000020F14BF0A438A43C0F81025D0F8142523
:1021D00013F0040F14BF0A438A43C0F81425D0F843
:1021E0001C2513F0080F14BF0A438A43C0F81C25AE
:1021F000D0F8442513F4007F14BF0A438A43C0F883
:102200004425D0F8402513F4407F14BF0A438A4385
:10221000C0F84025D0F82825002B0CBF114322EA36
:102220000101C0F82815BDE8F00370470E4AC0F35D
:102230000741D26E01238B401A420C4A1ABF02EBAF
:10224000C101496852F83110020AD1F82C354FF01B
:102250000F0C0CFA02FC00F00F0023EA0C03904074
:102260001843C1F82C05704700E00F40FC40000007
:1022700050F82100704730B50C4605460022FFF7A4
:1022800025FF21462846BDE8304008230122FFF7FC
:1022900031BF30B50C4605460222FFF717FF214635
:1022A0002846BDE8304009230122FFF723BF30B59F
:1022B0000C4605460222FFF709FF21462846BDE8E5
:1022C000304008230122FFF715BF30B50C46054604
:1022D0000222FFF7FBFE21462846BDE830400823D6
:1022E0000122FFF707BF00002DE9F04104460E462A
:1022F00000BF1C4800F078F80028FAD100222146DF
:10230000184800F0B9F83146164800F077F8072170
:10231000144800F06FF800BF124800F05FF8002882
:10232000FAD1104800F071F8C7B20120FFF716FB90
:10233000012221460B4800F09FF80721094800F0D0
:1023400059F800BF074800F049F80028FAD10548BD
:1023500000F052F8C5B20120FFF700FB2846BDE8A7
:10236000F0810000000002402DE9F04104460F46D4
:10237000154600BF184800F037F80028FAD10022AF
:102380002146154800F078F83946134800F036F831
:102390000321114800F02EF800BF0F4800F024F888
:1023A0000028FAD10C4800F030F8C6B229460A4895
:1023B00000F024F80521084800F01CF800BF06488A
:1023C00000F012F80028FAD1034800F01EF8C6B257
:1023D0003046BDE8F081000000000240406810F087
:1023E000400018BF01207047406810F0010018BF7E
:1023F0000120704741607047806870478160704776
:10240000016A41F0100101627047406810F0010F4D
:1024100005D110F0120F1CBF00F01C007047002007
:1024200070470000036A43F010030362002A14BFE0
:102430000E4A0F4A02EB820301EB830302EB820296
:1024400092005B1EB3FBF2F2521EC260D0F8C02FA6
:1024500012F0010F08BF7047064A1144521CB1FB2D
:10246000F2F1491E41F08001C1607047801A0600F8
:10247000A08601007F47370142EA410101607047B1
:102480001649042804BF086840F4803018D0052895
:1024900004BF086840F4003012D0062812D00F287C
:1024A00015D0102838BF7047103800F01F010122E6
:1024B00002FA01F142090A4850F82200016070470F
:1024C00008607047086840F48020086070474FF04B
:1024D000E020016941F002010161704724ED00E054
:1024E0004842000010B5FDF7F8FE002818BF012093
:1024F00010BD000010B5FEF779FB10B1FEF77CFBB4
:1025000010BD0D48007818B9012000F083F811E0E3
:1025100009480078012803D1022000F07BF809E087
:1025200005480078022803D1032000F073F801E089
:1025300000F08AF800BFE3E77900002070B5044698
:102540000D462E48007818B14FF4FA702C490880D7
:102550000A2C50D2DFE804F00511171D2530414C3C
:102560004D4E3DB12548007830B100F0B7FA00F08B
:102570006BF801E0FFF7BEFF3EE02048007808B1AD
:1025800000F03CFA38E01D48007808B100F06CF922
:1025900032E01A48007818B100F0A0FA00F054F8C0
:1025A0002AE018480078401CC6B2022E00DD002642
:1025B0003046FFF777FB1FE01348007830B9012061
:1025C000114908700A201149088005E000200E49D1
:1025D000087032200D4908800EE00D48007818B9C7
:1025E0000120FFF753FB02E00020FFF74FFB03E061
:1025F00000BF00BF00E000BF00BF70BD7900002039
:102600007C00002032000020430000204400002015
:102610003300002010B50446074804700020074925
:1026200008704FF4FA7006490880002005490870C8
:1026300000F0B4F910BD0000790000207A000020FD
:102640007C0000207E00002000200449087004491E
:102650000870044908800449087070477900002018
:102660007A0000207C0000207E000020F8B504469F
:102670000E461B480078012811D11A4800786421C1
:1026800090FBF1F201FB1205164880780090154886
:1026900043782A4614A12046FDF7C2FE1FE01048E9
:1026A000007802280AD10F48407900900D4803793C
:1026B000C2780DA12046FDF7B3FE10E0084800786F
:1026C00003280AD10C48807800900B4843780278A0
:1026D00005A12046FDF7A4FE01E000202070F8BD12
:1026E000790000207F000020253032642E25303212
:1026F000642E2530326400008600002001480078F6
:10270000704700007900002070B506460D46002491
:102710001FE01248005DD0B134701048005D0228FF
:1027200001D1012000E00020287029782046FFF721
:1027300005FF00200949085509480078002804DDF4
:1027400007480078401E06490870012070BD601CD3
:10275000C4B20A2CDDDB0020F8E7000014050020DD
:102760007800002010B525480078012814D12448AD
:10277000007808B9632010BD21480078012801D1F4
:102780000C20F8E71E480078022835D11D4A517800
:102790001078FEF77DFCEEE718480078022810D18B
:1027A0001748007808B91720E5E715480078012890
:1027B00001D13B20DFE71248007802281CD13B20E2
:1027C000D9E70E480078032816D10D48007808B9DB
:1027D0001720D0E70A480078012801D13B20CAE73A
:1027E00007480078022801D13B20C4E7044800785C
:1027F000032801D11F20BEE73B20BCE77900002061
:102800007A0000207F0000200D48007801280AD1BE
:102810000C480078012800D170470A480078022847
:1028200001D10120F8E706480078032805D10548C2
:102830000078032801D10020EEE70020ECE700003B
:10284000790000207A00002001460A2903DA0348B3
:1028500050F82100704702A0FCE700005000002063
:10286000554E4B4E4F574E0070B5FFF77BFF054658
:10287000FFF7CAFF0646002428480078012803D045
:1028800026480078022826D124480078012810D153
:102890002348007800B9234C21480078012801D151
:1028A000204C641C1E48007802282ED11D4CA41C0C
:1028B0002BE01B48007808B91A4CE41C1848007833
:1028C000012801D1174C241D1548007802281CD17D
:1028D000144C641D19E011480078032815D11048E4
:1028E000007800B9104C0E480078012801D10E4C38
:1028F000641C0B480078022801D10B4CA41C08482A
:102900000078032801D1084CE41C34B12078401C25
:1029100020702078A84200DD267070BD790000206C
:102920007A0000207F00002086000020002010E0B8
:1029300001210F4A11540F4A11540F4A115400211A
:102940000E4A11540E4A22F810100E4A1154411C1E
:10295000C8B20A28ECDB00210B4A11700B4A117037
:102960000B4A11700B4A11800B4A1170704700001E
:10297000D8040020E2040020EC040020F60400202B
:1029800000050020140500207800002079000020B8
:102990007A0000207C0000207E0000201248007891
:1029A000012808D1114812490A6802608A88828089
:1029B0008979817116E00C480078022808D10B490A
:1029C0000B4802680A6082888A808079887109E0F1
:1029D00005480078032805D1064807490A680260BF
:1029E0008988818070470000790000207F000020E6
:1029F0000A00002086000020000000200F4909780E
:102A0000012901D103200CE00C490978022901D1E8
:102A1000032006E009490978032901D1042000E0D8
:102A2000704707490978491C054A11701146097811
:102A3000814201DB0021117000BFF1E77900002025
:102A40007A00002070B501212048FFF711FC08B181
:102A5000012000E000201E49087001211D48FFF7F9
:102A600007FC08B1012000E000201949487002214C
:102A70001848FFF7FDFB08B1012000E000201449D1
:102A8000887001211448FFF7F3FB08B1012000E032
:102A900000200F49C87000212220FFF725FC0446C2
:102AA000254604F001000A490871C4F3400048714A
:102AB000C4F380008871C4F3C000C871C4F300106F
:102AC0000872C4F34010487270BD0000005002400C
:102AD000D804002000D00340004006401048007891
:102AE000012803D00E48007802280BD10D480E496A
:102AF0000A6802608A888280897981710020094988
:102B000088710CE006480078032808D10748084976
:102B10000A68026089888180012004490871704731
:102B2000790000200A0000207F0000200000002023
:102B30008600002070B5FFF785FF002472E04D4845
:102B4000055D4D48065DB5422CD04C48005D03281C
:102B500005DA4A48005D401C4849085560E046488F
:102B600005550020454908551DB9454921F814006F
:102B700056E0434830F8140050280EDA4148005D12
:102B800058B9414800780A2807DA01203D4908551C
:102B90003D480078401C3C4908700020384921F825
:102BA00014003DE0BDBB364830F81400401C3449E9
:102BB00021F81400084630F8140050280ED131488E
:102BC000005D58B9304800780A2807DA02202D49FC
:102BD00008552D480078401C2B490870022C16D14E
:102BE000274830F81400502811DD254830F814002B
:102BF0000A2190FBF1F201FB120040B92348007852
:102C000028B1FFF731FE4FF4FA7021490880002007
:102C10001A49085504E0FFE70020194921F814007B
:102C2000601CC4B20A2C8ADB1848007800B318482C
:102C30000088002809DD16480088401E14490880D5
:102C40000846008808B9FFF7FFFC12480078401CCE
:102C50001049087008460078322809DB0020087007
:102C60000D48007808B9012000E000200A490870EA
:102C700070BD0000D8040020E2040020F60400200B
:102C800000050020140500207800002079000020B5
:102C90007C0000208C0000207E00002010B504463F
:102CA0000A2C03DA00212046FFF748FC10BD000083
:102CB0000C48007808B9012000E00020094908709C
:102CC0000846007830B10848007840F00100064915
:102CD000087005E00448007800F0FE000249087022
:102CE00070470000900000208D00002010B50020EB
:102CF00006490870064908700649087006490870B8
:102D0000FF2201211820FFF72FFB10BD8D000020AE
:102D10008E0000208F0000209000002000B50121CF
:102D2000042000F007F814200149087000BD0000DD
:102D30008E000020072800DD704741B1012282404B
:102D4000D2B2074B1B781A43054B1A7006E00122DA
:102D50008240034B1B789343014A137000BFEBE79B
:102D60008D00002000B501210520FFF7E3FF1420AE
:102D70000149087000BD00008F00002000B5104818
:102D8000007800280BDD0E480078401E0C490870C2
:102D90000846007818B900210420FFF7CBFF094846
:102DA000007800280BDD07480078401E05490870B0
:102DB0000846007818B900210520FFF7BBFF00BDC9
:102DC0008E0000208F0000202DE9F05F81460D4627
:102DD0004846FDF705FD00F0FF082846FDF700FD19
:102DE00000F0FF0A4FF0000B00240BE0285D4128A3
:102DF00006DB285D5A2803DC0BF1010000F0FF0B15
:102E0000601CC4B25445F1DBD84501DBD04502DD7E
:102E10000020BDE8F09F002416E019F804602F5D43
:102E2000612E04DB7A2E02DCA6F12000C6B2612FEF
:102E300004DB7A2F02DCA7F12000C7B2BE4201D02A
:102E40000020E6E7601CC4B24445E6DB0120E0E771
:102E500070B50546286800F079FB0446207808B96B
:102E6000002070BD264600E0641C207828B1207840
:102E7000202802D020780928F6D1207820B100201F
:102E80002070601C286000E02C603046E9E72DE9E6
:102E9000F843054688462846FDF7A2FCC7B20FB1A5
:102EA000022F02DD0020BDE8F883002415E0285D34
:102EB000302802DB285D39280DDD285D412802DB42
:102EC000285D462807DD285D612802DB285D66282D
:102ED00001DD0020E7E7601CC4B2BC42E7DB102242
:102EE00069462846FDF739FC06460098007808B187
:102EF0000020D8E7FF2E01D90020D4E788F8006031
:102F00000120D0E770B505460D480088401C84B20A
:102F1000FF2C00DD00240B480088844203D10120EF
:102F20000949087070BD0948054909884554044895
:102F30000480FFF7F3FE0448067800BFF2E70000C4
:102F4000AC000020AE000020B00000201E050020D4
:102F5000002004E000210A4A1154411C88B2FF28D5
:102F6000F8DD0021074A1180074A1180074A1170D5
:102F7000074A1170074A1170074A11707047000024
:102F80001E050020AC000020AE000020B000002094
:102F9000B10000201E0600205E0600202DE9F84347
:102FA00005462846FDF71CFC441E10E0285D0D2850
:102FB00008D0285D0A2805D0285D202802D0285D89
:102FC000092803D100202855641E00E001E0002CF0
:102FD000ECDA00BF0095009800782A2804D072A08F
:102FE00000F08CF9BDE8F8830098401C009068461A
:102FF000FFF72EFF07461FB96BA000F07FF9F1E73E
:103000006BA13846FFF7E0FE10B1FEF7B9F9E9E72A
:1030100068A13846FFF7D8FE10B1FEF79BF9E1E74B
:1030200066A13846FFF7D0FE28B965A13846FFF7FC
:10303000CBFE002872D061A13846FFF7C5FE08B16B
:10304000012000E0002004463A213846FDF7BEFB8F
:103050008146B9F1000F07D0002089F8000009F17E
:103060000106DDF800800EE06846FFF7F1FE064637
:1030700016B130783A2803D04BA000F03FF9B1E701
:10308000761CDDF800804FA13046FFF79DFE38B179
:103090001CB14046FEF734FA80E0FEF7DBF87DE035
:1030A0004AA13046FFF790FE38B11CB14046FEF70A
:1030B000E9FB73E0FEF730F970E046A13046FFF718
:1030C00083FE38B11CB14046FEF764F966E0FEF7B6
:1030D00091F863E041A13046FFF776FE38B11CB1AC
:1030E0004046FEF7A1FA59E0FEF7D8F856E03DA1B8
:1030F0003046FFF769FE38B11CB14046FEF7CAFA08
:103100004CE0FEF7EDF849E038A13046FFF75CFEF1
:1031100048B124B14046FEF78FFB3FE03FE022A0DC
:1031200000F0ECF83AE032A13046FFF74DFE40B136
:103130001CB14046FEF7B6F930E01BA000F0DEF807
:103140002CE02DA13046FFF73FFE40B11CB14046B8
:10315000FEF706FB22E014A000F0D0F81EE027A145
:103160003046FFF731FE40B11CB14046FEF7CAFAC7
:1031700014E00DA000F0C2F810E021A13046FFF7E6
:1031800023FE40B11CB14046FEF712FB06E006A04C
:1031900000F0B4F802E004A000F0B0F822E702A0CA
:1031A00000F0ACF800BF1DE74552524F520D0A0027
:1031B0005253540050494E470000000053455400FC
:1031C00047455400444154450000000054494D45D2
:1031D00000000000414C41524D0000004449535052
:1031E0006C617900464F524D415400004D534700E9
:1031F00042454550000000004C4544004B455900F5
:103200004D4F44450000000010B53448007860B1CF
:1032100033A000F073F8002030490870324908806C
:10322000324908803249087010BD4EE031482F49BC
:103230000988445C2D480088401C2C4908800846B9
:103240000088FF2801DD002008800D2C01D00A2C09
:1032500027D10D2C16D1254800882349098888429A
:1032600010D0244821490988405C0A280AD11F4807
:103270000088401C1D49088008460088FF2801DDA1
:10328000002008801A48007800281EDD00201A4916
:10329000174A12788854164908701748FFF77EFEBF
:1032A00013E0134800783F2809DA134810490978D9
:1032B00044540F480078401C0D49087005E0002078
:1032C0000B49087006A000F019F808480088064964
:1032D00009888842AAD100BFA6E70000B0000020FC
:1032E0004552524F520D0A00AC000020AE000020A3
:1032F000B10000201E0500201E0600202DE9F04F21
:10330000A1B081464846FDF76BFAC5B2802D00D3C7
:103310007F25002405E019F8040001A90855601C68
:10332000C4B2AC42F7DB002001A948551E48007822
:10333000012829D1032D27DD9DF804004F2823D132
:103340009DF805004B281FD19DF8060020281BD1B1
:10335000CF1C3846FDF744FA00F0FF0800260DE0C8
:1033600017F806A0A8F10100801B385CB855A8F139
:103370000100801B07F800A0701CC6B208EBD871D2
:10338000B6EB610FECDB00BF002405E001A9085D8E
:1033900000F074FB601CC4B2AC42F7DBFFF7E2FC48
:1033A000AB4621B0BDE8F08F3300002010B51F48B8
:1033B00000F048FA00BF1D4800F058FA0028FAD083
:1033C0001A48C01C00F03EFA00BF1848C01C00F0AC
:1033D0004DFA0028F9D01548C01D00F033FA00BF9F
:1033E0001248C01D00F042FA0028F9D0012110480F
:1033F000FEF741FF0A23012211460D48FEF77AFE2F
:1034000003210C48FEF737FF0A2301220321094854
:10341000FEF770FE01210848FEF72DFF0A23012266
:1034200011460548FEF766FE10BD0000050800F0D5
:103430000050024000D003400040064010B5214833
:1034400000F000FA204800F0FDF900BF1E4800F02F
:103450000DFA0028FAD01D48FEF7E8FE1C48FEF7DA
:10346000E5FE04211B48FEF722FF08211948FEF75C
:1034700010FF0122184801681848FEF7D3FF1748CB
:10348000FEF7BEFFFF220C212220FEF76DFF04464F
:1034900000220D212220FEF767FF044300220E21A7
:1034A0002220FEF761FF0443002203211820FEF7CB
:1034B0005BFF0443FF2201211820FEF755FF044360
:1034C00010BD0000002000F0010800F0020801001B
:1034D000020C010000500040940000200000024057
:1034E00010B5164800F0AEF9154800F0ABF900BF72
:1034F000134800F0BBF90028FAD00120FEF796FE31
:1035000040F20140FEF792FE03214FF04020FEF70B
:10351000DCFE60234FF4E1320A4801680A4800F0FB
:10352000CAFA00220121084800F0FCFA1520FEF733
:10353000A7FF5021044800F0FAFA10BD001800F06F
:10354000000800F09400002000C0004000E0401C93
:1035500001782029FBD001780929F8D070470000B4
:103560002DE9F003AD4D02462868AD4B1840A0F19F
:103570008053B3F5A02358D002F03809DFF8A482B5
:10358000C2F38414B9F1100F24D0B9F1300F04BF85
:1035900047F230504FF400130CD03820904304BF52
:1035A0004FF40040C30105D012F0380F1CBF0020BB
:1035B000034613D09C4F12F4605F4FF0000618BF13
:1035C00000222CD057F8324044457DD307EBC2028D
:1035D0005268DFE0002340461524EBE7A4F1090020
:1035E000122822D29148D5F87CC04FF04C7350F885
:1035F00024002CF01C0C072CA8BF4CF0100CC5F8B4
:103600007CC02E6D4FF4002C16F4807FD2D1BCF11B
:10361000010C0AD02E6D16F4807FF8D0CAE712F0A4
:10362000380F18BFB9F1100F03D0BDE8F003002028
:103630007047C2F30268DFF8F8C1002257F83290F1
:10364000E14503D307EBC202526803E0521C062A8D
:10365000F4D33246C5F8C020D5F8B020DFF8D4C185
:1036600002EA0C0242F00042C5F8B020DFF8C8C1FF
:10367000A4F109024C1E5CF828C0A444BCFBF1FC78
:10368000D5F8B0101943C5F8B01008EBC80101EB2C
:1036900041046A4902EB420201EBC40101EB8204DE
:1036A0006468C5F86441D5F864416FF0FF0808EB21
:1036B0000C2C44EA0C0CC5F864C151F82210D5F862
:1036C000602102F4000200E05FE01143C5F86011E0
:1036D000D5F86011D5F86021C1F38921C2F309043E
:1036E000D5F86421C2F3042202F1010CD5F864215B
:1036F00002F01F02521CB0FBF2F04A09C2F10008AE
:103700004443424301EB481104EB5212484302EB9D
:103710009020B0FBFCF041080846002257F832C068
:10372000844503D307EBC200466802E0521C062A18
:10373000F4D3C5F8C060D5F8600110F4000F1DBFC8
:10374000D5F8B00040F08040C5F8B000D5F8600171
:1037500004BF40F40000C5F860014FF40040D5F804
:10376000682112F0010F02D1401E0028F7DC00286A
:1037700008BF002148D0D5F8B000184340F0010040
:1037800040F01040C5F8B0003EE0521C062AFFF49D
:1037900019AF3246C5F8C020D5F8602122F40002E6
:1037A000C5F86021D5F8B020DFF894C002EA0C0219
:1037B00042F00042C5F8B020002908BF4FF0000CCD
:1037C0000AD0B0FBF1FCBCF1000F18BFACF1010C4A
:1037D0000CF10101B0FBF1F10846002257F832402C
:1037E000844203D307EBC200466802E0521C062A5B
:1037F000F4D3C5F8C060D5F8B00043EA8C2210437A
:1038000040F00040C5F8B000D5F8B00020F47000DA
:10381000C5F8B000BDE8F0030846704700E00F406F
:103820000000FF700024F400BC440000A04200002F
:1038300040787D0100FC0FE0984200000C4300003E
:10384000FF0300EFC0F307230749C0B2194401F09A
:103850007043C1F3130143EA411141EA800040F093
:10386000007001220260704700E60F40C0F307229B
:103870000849C0B2114401F07042C1F3130142EA99
:10388000411141EA800040F000700068002818BF34
:103890000120704700EA0F404FF0E020016941F03D
:1038A0000501016170474FF0E020016941F002011C
:1038B000016170474FF0E021401E486170470000F1
:1038C00001201949087019480088002805DD1748AB
:1038D0000088401E1549088025E00920134908800A
:1038E00001201349087013480078002805DD1148AD
:1038F0000078401E0F49087015E009200D49087036
:1039000001200D4908700D480078002805DD0B489E
:103910000078401E0949087005E009200749087031
:103920000120074908707047980000209A00002085
:10393000990000209D0000209C0000209F00002096
:103940009E0000200448006840F4700002490860AE
:10395000024803490860704788ED00E00024F40045
:10396000B40000201CB52A492A48FFF7F9FD2A496E
:103970000860084600684FF47A71B0FBF1F4204605
:10398000FFF798FFFFF788FFFFF78DFF002023491F
:103990000870234908700920224908800020224924
:1039A0000870092021490870002021490870092069
:1039B0002049087000202049086020490880FFF74E
:1039C000F5FCFFF73BFDFFF78BFDFEF78BFD0020BD
:1039D000009003460122114601901820FDF770FB6C
:1039E000FDF7F8F8FEF7A8F8FEF7A0FFFDF794FA48
:1039F000FFF77CF9FFF7ACFAFEF748FA0121072040
:103A0000FFF798F90E4801790120FFF793F91CBDE3
:103A1000002D3101500500F1940000209800002095
:103A2000990000209A0000209C0000209D000020AA
:103A30009E0000209F000020A0000020A400002085
:103A40000000002070B501210B4800F074F8054615
:103A50002946094800F069F808E0074800F018F81E
:103A60000446002C02DBE0B2FFF74CFA024800F0FB
:103A70001DF80028F1D170BD00C0004010B504460B
:103A80002146024800F00CF810BD000000C00040C4
:103A9000816911F0100F0CBF00684FF0FF307047C4
:103AA000826912F0200FFBD101607047806901210B
:103AB00021EA10107047D0F818C01CF0080FFAD196
:103AC000D0F82CC02CF0100CC0F82CC0D0F830C0AE
:103AD0002CF0010C2CF4407CC0F830C0D0F830C081
:103AE000B1EB021F34BF4CF0200C2CF0200CC0F8BE
:103AF00030C038BF5208C900B1FBF2F1491C490877
:103B00008A09426201F03F018162C3620021816142
:103B1000C16A41F01001C162016B40F201321143F0
:103B20000163704711434163704741647047826B82
:103B3000114381637047002914BF006CC06B70474C
:103B40002DE9F04387B04FF00008C146102103A8CB
:103B5000FEF78CFD00260025002715E003A8805DF8
:103B60002E2809D1002D04DD681E01218140C8B234
:103B70000743701CC6B207E003A8805D0DF805007E
:103B8000701CC6B2681CC5B203A8FCF729FEC0B2FF
:103B9000B04201DD082DE1DB04E020200DF8050036
:103BA000681CC5B2082DF8DB00208DF808003E48DF
:103BB0000078002868D03D480078012816D13C489C
:103BC000007818B94FF000084FF002093848007823
:103BD000012803D14FF002084FF002093448007861
:103BE000022844D14FF00408814640E02F48007875
:103BF000022816D12E48007818B94FF000084FF06F
:103C000002092B480078012803D14FF002084FF039
:103C1000020927480078022829D14FF0040881467C
:103C200025E02248007803281ED12148007818B9E1
:103C30004FF000084FF002091D480078012803D119
:103C40004FF002084FF0020919480078022802D10B
:103C50004FF00408814616480078032807D14FF03A
:103C600006084FF0020902E04FF00008C146444642
:103C700004E020200DF80400601CC4B208EB090029
:103C8000A04201DD082CF4DB002405E01DF804004F
:103C900008490855601CC4B2082CF7DB06480770B9
:103CA00007B0BDE8F08300007E000020790000200E
:103CB0007A000020370000203600002030380A2823
:103CC00001D20120704700207047000088B0002713
:103CD000002400200790069081468046002504902D
:103CE000059000BFFFF73EFEFCF78CFFE8E0FFF712
:103CF0008BFA7448007878B10020724908701CB1C2
:103D00003846FDF763FF02E03846FDF75FFF781C99
:103D1000C7B2082F00DB00276B480078002873D05B
:103D2000002069490870002C65D0FEF703FF03E00E
:103D30009DF81C00FEF720F906A907A8FEF7E4FC91
:103D40000028F5D1FEF7DAFC8146B9F1000F04D066
:103D500001210320FEF7EEFF03E000210320FEF720
:103D6000E9FFB9F1000F01D0FFF7EAFEFCF73EFFD3
:103D700005463DB1B8F1000F04D1FDF71DF9012052
:103D8000FEF7B0F83DB9B8F1000F04D0FDF728F9FF
:103D90000020FEF7A7F8A8460DB1FDF7DBF84B4869
:103DA0000088002809DD49480088401E47490880EE
:103DB0000846008808B9FDF7C1F8FDF723F9FEF7BA
:103DC000DDFFFEF759F808B1FEF724F94048007806
:103DD000032819D13F480088401C3E490880084606
:103DE00000883D49098888420EDB00203949088057
:103DF000FDF740FE08E0FCF72BFF044624B13748EE
:103E0000FDF75EFFFEF792FD3548007810B1002007
:103E10003349087033480078002851D000203149D8
:103E20000870002C49D0FDF787F92F480068401C26
:103E30002D4908602948016804918188ADF8141063
:103E400080798DF8160004A8FCF798FE27480079C1
:103E500020B101210846FEF76DFF03E0002101209B
:103E6000FEF768FFFCF7C2FE20B101210220FEF739
:103E700061FF03E000210220FEF75CFFFEF718FF60
:103E80002CB1FEF73BFC10B904A8FDF719FF002682
:103E900005E01748805D01A98855701CC6B2082E40
:103EA000F7DB00208DF80C001248037801AA1248B5
:103EB000017804A8FDF76EFF00BF0448008800BF2A
:103EC00015E700009800002099000020A4000020C1
:103ED0003200002046000020440000200A0000209C
:103EE0009C0000209E000020A00000200000002078
:103EF00037000020360000208D00002010B500297A
:103F00000AD00878002807D005487844FCF7EEFD71
:103F1000002801D0002010BD0248784410BD0000E8
:103F2000860600007E0600004FF04070E1EE100AA9
:103F300070471F1C1F1E1F1E1F1F1E1F1E1F3F0618
:103F40005B4F666D7D077F6F777C395E79713D765B
:103F5000301E753837543F7367506D783E3E3E765D
:103F60006E5B000000400040100000000080054033
:103F700010000000005000401100000000900540BB
:103F800011000000006000401200000000A0054089
:103F900012000000007000401300000000B0054057
:103FA00013000000004002401400000000C0054063
:103FB00014000000005002402E00000000D0054018
:103FC0002E000000006002402F00000000E00540CD
:103FD0002F000000007002403000000000F005409B
:103FE0003000000000D00340460000000000064002
:103FF0004600000000100640470000000020064078
:1040000048000000003006407F00000000400640ED
:104010008000000000500640840000000060064060
:104020008C000000004000401000000000800540AF
:1040300010000000005000401100000000900540FA
:1040400011000000006000401200000000A00540C8
:1040500012000000007000401300000000B0054096
:1040600013000000004002401400000000C00540A2
:1040700014000000005002402E00000000D0054057
:104080002E000000006002402F00000000E005400C
:104090002F000000007002403000000000F00540DA
:1040A0003000000000D00340430000000000064044
:1040B00043000000001006404400000000200640BD
:1040C0004500000000300640580000000040064057
:1040D00059000000005006405C00000000600640EF
:1040E00064000000007006406C0000000080064084
:1040F0006D000000009006407F000000004000407E
:1041000000800540005000400090054000600040E5
:1041100000A005400070004000B005400040024093
:1041200000C005400050024000D005400060024041
:1041300000E005400070024000F0054000D0034060
:104140000000064000100640001006400020064017
:104150000020064000300640003006400040064087
:1041600000400640005006400050064000600640F7
:104170000060064000700640007006400080064067
:1041800000800640009006400090064000070000B6
:10419000000600000005000000040000000300000D
:1041A000000200000001000000000000000000000C
:1041B00018ED00E01CED00E020ED00E000E400E080
:1041C00004E400E008E400E00CE400E010E400E0B7
:1041D00014E400E018E400E01CE400E020E400E067
:1041E00024E400E028E400E02CE400E030E400E017
:1041F00034E400E038E400E03CE400E040E400E0C7
:1042000044E400E048E400E04CE400E050E400E076
:1042100054E400E058E400E05CE400E060E400E026
:1042200064E400E068E400E06CE400E070E400E0D6
:1042300074E400E078E400E07CE400E080E400E086
:1042400084E400E088E400E000E100E004E100E054
:1042500008E100E00CE100E010E100E080E100E0B6
:1042600084E100E088E100E08CE100E090E100E022
:1042700000E200E004E200E008E200E00CE200E01E
:1042800010E200E080E200E084E200E088E200E08A
:104290008CE200E090E200E000688909001C4E0E0C
:1042A00040420F0000201C0080841E00008025007A
:1042B000999E36000040380000093D0000803E0015
:1042C00000004B00404B4C0000204E00808D5B00F6
:1042D00000C05D000080700000127A0000007D00C8
:1042E00080969800001BB7000080BB00C0E8CE009D
:1042F000647ADA000024F4000000FA0080A81201B9
:10430000002D310100366E0140787D014000000033
:1043100000000000000100003E0008000000000056
:1043200000010000A00000000200000000010000E9
:104330003454010000000000000100002B70060052
:104340000000000000010000280000000000000044
:104350000001000027000100000000000001000033
:1043600020000000000000000001000050000000DC
:1043700002000000000100001AAC00000000000074
:104380000001000017940900000000000001000077
:104390001698050000000000000100001400000055
:1043A0000000000000010000138008000000000071
:1043B00000010000A0000000080000000001000053
:1043C00010000000000000000001000028000000B4
:1043D0000200000000010000400000000400000096
:1043E000000100006000000000000000000100006B
:1043F0005D000C0000000000000100005000000003
:1044000000000000000100004E000200000000005B
:104410000001000041AC01000000000000010000AC
:104420003C00000000000000000100003A8009008C
:10443000000000000001000030000000000000004B
:104440000001000028000000000000000001000042
:1044500027000100000000000001000023600600AA
:1044600000000000000100002160080000000000C2
:10447000000100001E00000000000000000100001C
:104480001DC00400000000000001000050000000FA
:104490000200000000010000180000000000000001
:1044A00000010000140000000000000000010000F6
:1044B0006000000004000000000100000024F4007F
:1044C00030003000005A620291009100008793038F
:1044D000D200D20000B4C4041301130100E1F505B9
:1044E00054015401000E27079501950130313233F4
:1044F0003435363738394142434445464030580018
:104500003031323334353637383961626364656649
:1045100040307800040000080000000000000002A5
:10452000000100001000000055534552310000000A
:10453000555345523200000046554E4300000000DE
:104540004144440053504545440000005341564502
:10455000000000004449535000000000464F524DF7
:104560004154000053484946540000004558540047
:10457000A046000000000020B80000003C0200003F
:1045800058470000B80000208808000058020000CA
:104590001001000043000000F8FFFFFF0040404012
:1045A0004040404040404141414141404040404006
:1045B00040404040404040404040404040050202B2
:1045C0000202020202020202020202020220202071
:1045D00020202020202020020202020202029090CD
:1045E00090909090101010101010101010101010CB
:1045F000101010101010101002020202020288881F
:10460000888888880808080808080808080808082A
:104610000808080808080808020202024000000012
:10462000000000000000000000000000000000008A
:10463000000000000000000000000000000000007A
:10464000000000000000000000000000000000006A
:10465000000000000000000000000000000000005A
:10466000000000000000000000000000000000004A
:10467000000000000000000000000000000000003A
:10468000000000000000000000000000000000002A
:10469000000000000000000000000000000000001A
:1046A000000000000000000000000000000000000A
:1046B000000053383030434C4B0000000000000035
:1046C00000000000000000000000000000000000EA
:1046D00000000000010000202020202020202000D9
:1046E0000000010032000000000000000000000097
:1046F0003845000064450000404500004C4500007E
:1047000054450000444500005C4500006C45000035
:1047100028450000304500000000000000000000B7
:104720000000000000000000000000000000000089
:104730000000000000000000000000000000000079
:104740000000000000000000000000000000000069
:08475000000000000024F40049
:04000005000002F500
:00000001FF
