:020000040000FA
:1000000040090020F5020000FD020000FF02000090
:1000100001030000030300000503000000000000CE
:1000200000000000000000000000000007030000C6
:1000300009030000000000000B030000013C000069
:100040000F0300001103000013030000150300005C
:1000500017030000613E00001B0300001D030000A9
:100060001F030000210300002303000025030000FC
:1000700027030000290300002B0300002D030000CC
:100080002F0300003103000033030000853D000012
:1000900037030000390300003B0300003D0300006C
:1000A0003F0300004103000043030000450300003C
:1000B00047030000490300004B0300004D0300000C
:1000C0004F030000510300005303000055030000DC
:1000D00057030000590300005B0300005D030000AC
:1000E0005F0300006103000063030000650300007C
:1000F00067030000690300006B0300006D0300004C
:100100006F0300007103000073030000750300001B
:1001100077030000790300007B0300007D030000EB
:100120007F030000810300008303000085030000BB
:1001300087030000890300008B0300008D0300008B
:100140008F0300009103000093030000AD03000043
:100150000000000000000000AF030000B103000039
:10016000B3030000B503000000000000B703000067
:10017000B9030000BB030000BD030000BF03000083
:10018000C1030000C3030000C5030000C703000053
:10019000C9030000CB030000CD030000CF03000023
:1001A000D1030000D3030000D5030000D7030000F3
:1001B000D9030000DB030000DD030000DF030000C3
:1001C000E1030000E3030000E5030000E703000093
:1001D000E9030000EB030000ED030000EF03000063
:1001E000F1030000F3030000F5030000F703000033
:1001F000F9030000FB030000FD030000FF03000003
:1002000000F002F800F053F80AA090E8000C8244D5
:100210008344AAF10107DA4501D100F048F8AFF2B2
:10022000090EBAE80F0013F0010F18BFFB1A43F0D4
:10023000010318472449000044490000103A24BF34
:1002400078C878C1FAD8520724BF30C830C144BF3B
:1002500004680C607047000000230024002500267D
:10026000103A28BF78C1FBD8520728BF30C148BF19
:100270000B607047642900F03781752900F03481E4
:10028000782900F06D81732900F0618300207047A8
:100290001FB504F03DF900F0E9FB04000020002147
:1002A00004F020F9401C60601FBD10B510BD00F0C7
:1002B000EFFB1146FFF7ECFF03F016FF00F00DFC1B
:1002C00003B4FFF7F2FF03BC00F050FCEFF3108023
:1002D00072B67047EFF310807047EFF3108062B68C
:1002E000704730BF704780F311887047EFF311807B
:1002F000704700004548804745480047FEE7FEE755
:10030000FEE7FEE7FEE7FEE7FEE7FEE7FEE7FEE7C5
:10031000FEE7FEE7FEE7FEE7FEE7FEE7FEE7FEE7B5
:10032000FEE7FEE7FEE7FEE7FEE7FEE7FEE7FEE7A5
:10033000FEE7FEE7FEE7FEE7FEE7FEE7FEE7FEE795
:10034000FEE7FEE7FEE7FEE7FEE7FEE7FEE7FEE785
:10035000FEE7FEE7FEE7FEE7FEE7FEE7FEE7FEE775
:10036000FEE7FEE7FEE7FEE7FEE7FEE7FEE7FEE765
:10037000FEE7FEE7FEE7FEE7FEE7FEE7FEE7FEE755
:10038000FEE7FEE7FEE7FEE7FEE7FEE7FEE7FEE745
:10039000FEE7FEE7FEE7FEE7FEE7FEE7FEE7FEE735
:1003A000FEE7FEE7FEE7FEE7FEE7FEE7FEE7FEE725
:1003B000FEE7FEE7FEE7FEE7FEE7FEE7FEE7FEE715
:1003C000FEE7FEE7FEE7FEE7FEE7FEE7FEE7FEE705
:1003D000FEE7FEE7FEE7FEE7FEE7FEE7FEE7FEE7F5
:1003E000FEE7FEE7FEE7FEE7FEE7FEE7FEE7FEE7E5
:1003F000FEE7FEE7FEE7FEE7FEE7FEE7FEE7FEE7D5
:1004000004480549034A054B70470000853C00003D
:1004100001020000400700204009002040070020A2
:100420000FB41CB5074B06AA7B446946009005989B
:1004300000F063FA0020694600F072FA1CBC5DF817
:1004400014FB0000F504000070B5044685690068DF
:10045000C10601D5302600E02026C00707D070BDB8
:10046000D4E9012130469047206A401C20626D1E6D
:10047000F6D570BD70B5044685690078C00707D110
:1004800070BDD4E9012120209047206A401C2062E1
:100490006D1EF6D570BD70B50C460546012A05D017
:1004A0002878800600D5EA69002302E0012305E0F0
:1004B0005B1C934202D2E05C0028F9D1A869E618DF
:1004C000C01AA861286A184428622846FFF7BCFFB2
:1004D00004E0D5E9012114F8010B9047B442F8D3A8
:1004E0002846FFF7C7FF70BD2DE9F04106460024FE
:1004F00010687529314616A510D0AFF3008000288A
:1005000002DA404213A507E031688A0701D512A537
:1005100002E0490704D511A5012401E0AFF30080F2
:1005200000210A2206F1240709E0B0FBF2FCB0FB2F
:10053000F2F302FB1C00303078541846491C0028A6
:10054000F3D123462A463046BDE8F04100F076B9A3
:10055000000000002D0000002B0000002000000023
:1005600070B504460D4621461068AFF3008021881F
:10057000090502D50F4A7A4402E00E4A7A440E3247
:10058000002104F1240305E000F00F060009965D48
:100590005E54491C0028F7D120780023000704D5B9
:1005A000702D02D009B1022311322046BDE87040FF
:1005B00000F044B95A4500002DE9F05F8946044631
:1005C0004FF0000ADFF874B1FB44C0F820A02046C9
:1005D000E1688847002874D0252806D0D4E9012195
:1005E0009047206A401C2062F1E700265F462046C3
:1005F000E16888472028054607DB312D05D27819A8
:1006000010F8200C08B10643F1E7B00701D526F039
:100610000406C4F81CA00027C4F818A02A2D09D08D
:10062000284603F059FD38B304EB8708303DC8F87D
:10063000185019E059F8041B204604EB8702916119
:10064000E1688847012F054618D1E069002820DAC3
:1006500026F020061DE0D8F8180000EB800005EB1E
:1006600040003038C8F818002046E1688847054641
:1006700003F032FD0028EED1012F0AD02E2D08D133
:100680002046E16888477F1C0546022F46F0200679
:10069000C4DBA069002803DA404246F00106A061ED
:1006A000F00701D026F010066C2D0BD0682D09D074
:1006B0004C2D39D06A2D35D0742D35D07A2D33D0CC
:1006C00016E038E0E1682F4620468847B8420546E4
:1006D00009D16C2F26D04FF48060E1680643204694
:1006E0008847054604E06C2F1AD04FF4807006430B
:1006F0000DB3A5F14100192802D8203546F4006653
:100700004A462946204626604E46FFF7B3FD80B193
:1007100001280BD0F61D26F0070000F1080956E766
:100720004020E4E78020D8E70020D6E706F104095E
:100730004DE7284652E7206ABDE8F09F30450000AB
:1007400070B5064600F076F80468054630460A2281
:10075000002100F04FF92C6070BD2DE9F05F934649
:100760000F4680460446002600F064F8D0F800905A
:10077000824614F8015B2DB100F054F80068405D2A
:10078000C007F6D12B2D02D02D2D1AD0641E0021CA
:10079000CAF800105A463946204600F0DCF80146F7
:1007A00027B13868A04201D1C7F80080DAF800000C
:1007B000022809D0CAF80090700505D54842BDE866
:1007C000F09F46F48066E2E70846F8E7401ECAB2AA
:1007D00010F8011F8A4202D00029F9D10020704789
:1007E00010B5431C02E010F8011B71B18107FAD16A
:1007F0004FF0013202C88C1A8C4314EAC211F9D0AE
:10080000C01A0A0603D0C01E10BDC01A10BD0A04CB
:1008100001D0801E10BD0902FCD0401E10BD7047E3
:100820007047704710B500F021F9001D10BD00BFE2
:10083000B53C000000487047E00600202DE9F04775
:100840000D4699469246044600F124080168880640
:1008500004D5E06921F01001216000E00120A842E8
:1008600001DD471B00E00027A1697A1902EB0900AE
:10087000081AA0612078C00602D42046FFF7E4FDE4
:10088000002608E0D4E901211AF806009047206A02
:10089000401C761C20624E45F4DB2078C0060AD549
:1008A0002046FFF7D1FD06E0D4E901213020904732
:1008B000206A401C2062381EA7F10107F4DC07E023
:1008C000D4E9012118F805009047206A401C2062F5
:1008D000281EA5F10105F3DC2046FFF7CBFD2078AB
:1008E000000602D50220BDE8F0870120FBE70000EA
:1008F00001694A1C02610878704700B58FB0CDE9E4
:1009000001310021059105497944CDE903101146D3
:100910006846FFF751FE0FB000BD0000E5FFFFFF86
:100920000A6802F8010B0A60704710B5436913B1F9
:10093000AFF3008001E0FFF7AEFD012010BD12789B
:1009400000F124010A7000224A700122EDE71168CB
:100950004FF0FF32E9E72DE9F05F824615468B46FE
:1009600000270AF10104B9460078302801D09DB172
:1009700013E014F8010B0127782803D0582801D080
:1009800045B10AE00DB1102D07D1002714F8010B75
:10099000102502E0082500E00A250026B0460EE0FA
:1009A00005FB080005FB06F101271FFA80F801EBA3
:1009B0001046B6F5803F00D3B94614F8010B29461E
:1009C00000F058F80028EBDABBF1000F05D00FB1AA
:1009D000641E00E05446CBF80040B9F1000F06D089
:1009E000FFF728FF02210160C81EBDE8F09F48EA1A
:1009F0000640FAE72DE9F04791460F468046044647
:100A0000002614F8015B2DB1FFF70CFF0068405D74
:100A1000C007F6D12B2D02D02D2D18D0641E4A46CA
:100A200039462046FFF797FF27B13968A14201D127
:100A3000C7F800804FF0020471050BD54042002832
:100A400003DDFFF7F7FE0460A007BDE8F08746F47A
:100A50008066E4E70028F8DAFFF7ECFE04606FF048
:100A60000040F2E700487047E00600200048704769
:100A7000000700203A2800D2303820F02002412A16
:100A800001D3A2F13700884201D34FF0FF30704705
:100A90007546FFF7E7FFAE4605006946534620F06E
:100AA0000700854618B020B5FFF7AAFCBDE8204036
:100AB0004FF000064FF000074FF000084FF0000B1A
:100AC00021F00701AC46ACE8C009ACE8C009ACE8CD
:100AD000C009ACE8C0098D46704710B50446AFF3B5
:100AE00000802046BDE81040FFF7EABB4FF0013C14
:100AF00050F8042B51F8043B9A4221D1A2EB0C038D
:100B0000934313EACC1317D150F8042B51F8043B4C
:100B10009A4215D1A2EB0C03934313EACC130BD1E9
:100B200050F8042B51F8043B9A4209D1A2EB0C0374
:100B3000934313EACC13DBD04FF00000704700BFA3
:100B4000D01A01BAB1FA81F101F0180122FA01F0CC
:100B5000CB40C1F12001DBB2C0B2C01A2CFA01F3C4
:100B6000D11A914311EAC311E6D170470149182007
:100B7000ABBEFEE72600020070470000144A12795F
:100B800002B97047124A527902B1FAE70021C278DD
:100B90000F4B1B789A4214D102790D4B5B789A4225
:100BA0000FD142790A4B9B789A420AD1084AD278EF
:100BB0000AB9012105E0064AD27883789A4200D129
:100BC000012111B10122024B5A7100BFD9E7000087
:100BD0002700002007200449087000204870887012
:100BE000C87008714871704727000020014840799B
:100BF000704700002700002000200149487170471D
:100C00002700002010B500200C4908700C4908800E
:100C1000FF200C49087000220121182001F00AFD74
:100C2000002004E03821084A1154411CC8B20828A9
:100C3000F8DBFF21054A117010BD00001C000020E8
:100C40001E000020A60000205200002051000020BD
:100C500070B5B8480088401CB6490880B64800788E
:100C6000082823D2DFE800F00423426188A7F4F2C9
:100C7000B04800883C2819DB0020AE4908800120DC
:100C8000AD4908700020AD490870FF2201211820ED
:100C900001F0D0FC002404E02020A9490855601C84
:100CA000C4B2082CF8DB0020A64908703EE1A14838
:100CB0000088282819DB00209E49088002209E49D0
:100CC0000870FF209D49087000220121182001F0C2
:100CD000B1FC002404E0382099490855601CC4B2D6
:100CE000082CF8DBFF20974908701FE19148008825
:100CF0003C2819DB00208F49088003208E490870AA
:100D000000208E490870FF220121182001F092FC7A
:100D1000002404E020208A490855601CC4B2082C35
:100D2000F8DB00208749087000E182480088282805
:100D300021DB00207F49088004207F4908700820BB
:100D400000240BE0844204DA7FA1095D7C4A11553E
:100D500002E020217A4A1155611CCCB2082CF1DB4B
:100D6000002078490870FF20744908700022012192
:100D7000182001F05FFCD9E06E480088962819DB46
:100D800000206C49088005206B49087000206B49E1
:100D90000870FF220121182001F04CFC002404E01F
:100DA000202067490855601CC4B2082CF8DB0020DD
:100DB00064490870BAE06748007830BB5D48008835
:100DC000282842DB082500240BE0AC4204DA62A0AC
:100DD000005D5B49085502E0202059490855601C18
:100DE000C4B2082CF1DB002056490870FF2053499B
:100DF000087000220121182001F01CFC00204D4940
:100E000008800120534908701FE04A48008896284E
:100E10001BDB002047490880062047490870002056
:100E20004C49087045490870FF220121182001F043
:100E300001FC002404E0202041490855601CC4B294
:100E4000082CF8DB00203F4908706FE067E0FFE7FF
:100E500044480078002841D13648008828285DDBC6
:100E600008260025002037490870002425E0B542F7
:100E700013DA3DA0405D2E280FD1002C08DD601E46
:100E800001218140C8B22F49097808432D490870D3
:100E9000681CC5B2601EC4B20DE0B54207DA284630
:100EA000691CCDB230A1085C2549085502E020201C
:100EB0002349085500BF601CC4B2082CD7DBFF20B3
:100EC0001E49087000220121182001F0B3FB002008
:100ED000184908800120234908701FE01548008840
:100EE000C8281BDB0020134908800720124908701E
:100EF00000201C490870002404E0202010490855F7
:100F0000601CC4B2082CF8DB00200E4908700B49A5
:100F10000870FF220121182001F08CFB06E0054833
:100F20000088282801DB012070BD00BF00BF002021
:100F3000FAE700001E0000201C000020A600002090
:100F40005200002051000020333139313037323720
:100F500000000000B60000204355494A4E544E4759
:100F600000000000B70000202056312E3020202045
:100F70000000000010B500201A4908701A490870D6
:100F80001A4908701A4908801A4802F0FBFD00BF90
:100F9000184802F00BFE0028FAD0174802F0F2FDC4
:100FA00000BF154802F002FE0028FAD008211348BD
:100FB00001F0C7FA00220821104801F0FAFA2221B4
:100FC0000F4802F0FFFE40F6C312FF210C4802F06A
:100FD0003EFF01210A4802F036FF232001F0B0FB5A
:100FE00010BD0000A0000020A1000020A2000020F1
:100FF000A4000020000400F0050800F000500240AA
:10100000000003400148007870470000A000002065
:1010100010B5002005490870FF21054802F002FFC5
:1010200000220821034801F0C4FA10BDA0000020EE
:10103000000003400050024010B501200349087031
:10104000FF21034802F0F6FE10BD0000A0000020C2
:101050000000034010B51748007818B11648007812
:10106000012802D1FFF7D4FF10BD14480078401CBE
:101070001249087012480088401C1149088008462F
:10108000008840F25231884204DBFFF7B5FD00F0E2
:101090002DF8E9E709480078282190FBF1F201FBDF
:1010A0001200142802DAFFF7C7FF01E0FFF7B0FFD4
:1010B00000BFD9E7A100002050000020A2000020BE
:1010C000A400002001200549087000200449087090
:1010D000044908800449087070470000A1000020FE
:1010E000A2000020A4000020A000002010B50020D5
:1010F000044908700449087004490880FFF788FF14
:1011000010BD0000A1000020A2000020A4000020CB
:10111000F0B504460B461546022B03DC03F10C0622
:10112000621E01E01E4622462946771C07EB870C0B
:101130000CEBC7074FF0050C97FBFCF73944114443
:101140004FEAE27C02EB9C7C01EBAC01491DA1F172
:10115000280739B2072791FBF7FC07FB1C11002970
:1011600001DACF1D39B2C8B2F0BD000070B5064635
:101170000C46012C01DB0C2C01DD1E2070BD601E15
:1011800005490D5C022C04D1304600F023F800B173
:101190001D252846F2E700003E4500002DE9F047F6
:1011A00004460D4616461F46DDE9088908480470C6
:1011B00045708670C77080F8048080F805903246CC
:1011C00029462046FFF7A4FF01498871BDE8F08752
:1011D00020000020024602F5FA614FF4C87091FB2E
:1011E000F0F300FB131008B901207047642091FB55
:1011F000F0F300FB131008B90020F6E7CB1701EB62
:1012000093739B10A1EB83030BB90120EDE7002042
:10121000EBE7000010B52D484079401C2B49487180
:10122000084640793C2800DA10BD00202749487163
:1012300008460079401C0871084600793C2800DA0D
:10124000F2E70020214908710846C078401CC870A8
:101250000846C078182800DAE6E700201B49C87065
:1012600008468079401C887108468079062801DD8F
:101270000020887115488078401C144988700A46FF
:1012800051781078FFF772FF10498978884200DBA7
:10129000CAE701200D49887008464078401C487014
:1012A000084640780C2800DCBEE70120074948705A
:1012B00008460078401C0870087801221146FFF7A4
:1012C00027FF0249887100BFAEE700002000002020
:1012D0001CB50C48007968B10A48C078094989787A
:1012E000CDE9001007484378027807A10C48FFF7C2
:1012F00097F803E00BA10A48FFF792F8084802F0BC
:101300000FFA1CBD270000204F4B20253032642EE1
:10131000253032642E253032642025640D0A000009
:10132000400200204F4B204F46460D0A00000000AF
:1013300038B50A480078642190FBF1F201FB1204F1
:1013400006488078009005484378224604A1084862
:10135000FFF766F8064802F099F938BD2000002032
:10136000253032642E253032642E25303264000060
:101370004002002010B50848007828B1074A08A1AB
:101380000948FFF74DF803E008A10748FFF748F8C0
:10139000054802F0C5F910BD4F0000202D000020C7
:1013A0004F4B2025730D0A00400200204F4B204F69
:1013B00046460D0A0000000010B5064800780128D6
:1013C00003D105A002F0ACF902E006A002F0A8F9F2
:1013D00010BD00004E0000204F4B2052494748549A
:1013E0000D0A00004F4B204C4546540D0A000000EA
:1013F00008B507484079009005480379C27805A1EF
:101400000848FFF70DF8074802F040F908BD000052
:1014100020000020253032642E253032642E253005
:10142000326400004002002010B50548026805A1A2
:101430000748FEF7F5FF064802F072F910BD0000FC
:101440000C0000202A504F4E4720256C750D0A00D5
:10145000400200201CB500200090034601221146E6
:1014600001901820FFF79AFE00200B4908700B49E5
:101470000870FF200A49087000200A4908800A49BC
:101480000870012009490870094800F067FD09A0AB
:1014900002F046F91CBD00004D0000204E00002067
:1014A0005C00002062000020500000204F0000205F
:1014B000200000204F4B0D0A000000002DE9F843EA
:1014C00005460027009557E034A1404601F04AFE4A
:1014D00050B10020324908714871FFF707FE31A072
:1014E00002F01EF9BDE8F883684601F07FFE06466B
:1014F0001EB92EA002F014F9F4E73046FFF720F9E8
:10150000C4B22CA1404601F02DFE60B1172C03DDC2
:1015100026A002F005F9E5E72148047001202049E2
:101520000871012727E025A1404601F01BFE60B1AC
:101530003B2C03DD1DA002F0F3F8D3E718484470FC
:10154000012017490871012715E01EA1404601F04E
:1015500009FE60B13B2C03DD14A002F0E1F8C1E705
:101560000F48847001200E490871012703E00FA085
:1015700002F0D6F8B6E700BF684601F037FEB0F1DA
:101580000008A1D12FB10649487106A002F0C8F8A1
:1015900002E006A002F0C4F800BFA3E74F464600F1
:1015A000270000204F4B0D0A000000004552524F0B
:1015B000520D0A00484F5552000000004D494E752B
:1015C000746500005345436F6E64000031B5684692
:1015D00001F00CFE05461DB90EA002F0A1F838BDC1
:1015E0002846FFF7ADF804460A2C03D341F28830B1
:1015F000844203D907A002F093F8F0E7FFF71CFD3F
:101600000A20B4FBF0F00549088005A002F088F834
:1016100000BFE4E74552524F520D0A00100000206F
:101620004F4B0D0A000000002DE9FE4305463E49E0
:1016300003C9CDE900010027029543E002A801F0AB
:10164000D5FD064626B939A002F06AF8BDE8FE834A
:101650003046FFF775F8C4B236A1404601F082FD6E
:1016600048B1632C03DD31A002F05AF8EEE78DF8A3
:101670000040012725E031A1404601F073FD58B13B
:10168000012C01DB0C2C03DD28A002F049F8DDE77A
:101690008DF80140012714E02AA1404601F062FDC7
:1016A00058B1012C01DB1F2C03DD20A002F038F81B
:1016B000CCE78DF80240012703E01CA002F030F8CF
:1016C000C4E700BF02A801F091FDB0F10008B5D158
:1016D0002FB39DF801109DF80000FFF747FD9DF81E
:1016E0000210884207DA9DF801109DF80000FFF70C
:1016F0003DFD8DF802000C4800990160BDF8041012
:1017000081809DF8061081710120104908701048F1
:1017100000681049086010A002F002F802E003A07F
:1017200001F0FEFF00BF91E7200000204552524F1C
:10173000520D0A0059454152000000004D4F4E54D1
:1017400048000000444154450000000014000020FF
:101750000C000020180000204F4B0D0A0000000074
:1017600031B5684601F042FD04461CB928A001F0DD
:10177000D7FF38BD28A1204601F0F4FC30B101208C
:101780002649087026A001F0CBFF3FE026A12046A5
:1017900001F0E8FC50B1002020490870002123A08E
:1017A00000F016FD1EA001F0BBFF2FE022A1204695
:1017B00001F0D8FC48B1002021490870214800F010
:1017C000CDFB17A001F0ACFF20E01FA1204601F0E7
:1017D000C9FC48B101201A4908701A4800F0BEFB44
:1017E0000FA001F09DFF11E019A1204601F0BAFC05
:1017F00048B1022012490870124800F0AFFB08A05F
:1018000001F08EFF02E002A001F08AFF00BFB0E706
:101810004552524F520D0A004F4E00004F0000201B
:101820004F4B0D0A000000004F46460020202020AC
:10183000202020200000000054494D4500000000F9
:101840004D000020200000204441544500000000CD
:10185000594541520000000031B5684601F0C6FC10
:1018600004461CB910A001F05BFF38BD10A1204652
:1018700001F078FC30B1002000F040FB0EA001F038
:101880004FFF0EE00EA1204601F06CFC30B10120AC
:1018900000F034FB08A001F043FF02E002A001F0D9
:1018A0003FFF00BFE1E700004552524F520D0A00D2
:1018B0004C454654000000004F4B0D0A000000004C
:1018C0005249474854000000F1B5684601F08EFCCB
:1018D00005461DB90FA001F023FFF8BD002411E05B
:1018E000204601F07FF906463146284601F03AFCD1
:1018F00030B1204601F088FB08A001F011FFECE7B1
:10190000601CC4B20A2CEBDB02A001F009FF00BF8F
:10191000E3E700004552524F520D0A004F4B0D0AAB
:101920000000000011B581B001A801F05FFC044681
:101930001CB90DA001F0F4FE1CBD6946204601F063
:1019400074FC18B908A001F0EBFEF5E79DF8000063
:10195000074908704FF47A700649088006A001F024
:10196000DFFE00BFE8E700004552524F520D0A006B
:10197000A6000020120000204F4B0D0A00000000BE
:1019800031B5684601F032FC04461CB917A001F0DD
:10199000C7FE38BD17A1204601F0E4FB68B1002066
:1019A00000F0D6FA0121072001F082FB002000F0B0
:1019B0006BFC11A001F0B4FE15E011A1204601F06E
:1019C000D1FB68B1012000F0C3FA0021072001F02B
:1019D0006FFB012000F058FC07A001F0A1FE02E01F
:1019E00002A001F09DFE00BFD3E700004552524F18
:1019F000520D0A00444159004F4B0D0A00000000EF
:101A00004E4947485400000070B50546284601F08D
:101A10003DFF04460CB1207818B90FA001F080FEFC
:101A200070BD2046FEF7DCFE202803D90AA001F095
:101A300077FEF5E7204600F039FA2046FEF7D0FEA3
:101A4000082803D84FF496700549088005A001F0D6
:101A500067FE00BFE4E700004552524F520D0A00F6
:101A6000620000204F4B0D0A000000002DE9F843F2
:101A70000546002700953FE0684601F0B7FB0646A3
:101A800026B929A001F04CFEBDE8F8833046FEF7E8
:101A900057FEC4B226A1404601F064FB48B1172CA2
:101AA00003DD21A001F03CFEEEE72348C4700127CE
:101AB00021E022A1404601F055FB48B13B2C03DD5B
:101AC00019A001F02DFEDFE71B480471012712E089
:101AD0001CA1404601F046FB48B13B2C03DD12A09F
:101AE00001F01EFED0E714484471012703E00EA068
:101AF00001F016FEC8E700BF684601F077FBB0F1C1
:101B00000008B9D157B10120104908701048006889
:101B10001049086010A001F003FE02E002A001F0ED
:101B2000FFFD00BFB0E700004552524F520D0A00C2
:101B3000484F555200000000200000204D494E75CE
:101B4000746500005345436F6E640000140000206C
:101B50000C000020180000204F4B0D0A0000000070
:101B60002DE9F04186B04E48FEF73AFEC5B24FF07F
:101B7000000800242AE04B480088204406B24A4866
:101B80000078032803D04848007802280BD1082D9C
:101B900009DD01E0701B06B2AE42FBDA01E070190C
:101BA00006B2002EFBDB002E0BDBAE4209DA002D65
:101BB00007DD3B48805D03A90855601C00F0FF0865
:101BC00002E0202003A90855601C04B20C2CD2DBD3
:101BD0000027002419E003A8005D2E2813D1002C53
:101BE00004DD601E01218140C8B20743E0B205E078
:101BF00003AA411C515C1154411CC8B20B28F7DBED
:101C000020208DF81700601C04B24445E3DB00245B
:101C100005E003A8005D25490855601C04B2082CA6
:101C2000F7DB23480078012835D11F4800780328C6
:101C300003D01D480078022801D1082D2BDC00219B
:101C4000002407E0C4F10702184B9A5C01AB1A5557
:101C5000621C14B2082CF5DB00240EE00122A24025
:101C60003A4042B1C4F10602D0B2082803DA012298
:101C70008240D2B21143621C14B2082CEEDB002465
:101C800005E001AA125D094B1A55621C14B2082C1A
:101C9000F7DB0F4600BF0748077006B0BDE8F081CC
:101CA0002D0000205A0000204D000020520000208E
:101CB0004E0000205100002010B51948007800B9EE
:101CC00010BD18480078032804D016480078022870
:101CD00000D0F5E71448FEF783FD04B2082C00DCC1
:101CE000EEE712480088124991F90010084400B24A
:101CF0000E4908800846B0F90000A04202DB00202F
:101D0000088008E00948B0F90000002803DA601EE6
:101D100000B206490880FFF723FF00BFD0E70000AC
:101D20004F0000204D0000202D0000205A00002010
:101D30005C0000200146302906DB392904DCA1F1D2
:101D40003000134A105C7047412906DB5A2904DC35
:101D5000A1F141000F4A105CF5E7612906DB7A2901
:101D600004DCA1F161000B4A105CECE72E2901D1E3
:101D70000020E8E72D2901D14020E4E75F2901D1C7
:101D80000820E0E73D2901D14820DCE70020DAE720
:101D90001A4500002445000010B50022062122202B
:101DA00000F048FC00220521222000F043FC002422
:101DB00004E0202012490855601CC4B2082CF8DB4E
:101DC000002010490870104908701049087001205F
:101DD0000F49087000200F4908700F490880FF2044
:101DE0000E49087000200E49087032200D49088005
:101DF00000200D4908800D4908800D49087010BD6C
:101E000052000020510000204D0000204E00002014
:101E10004F000020500000205A0000205C000020ED
:101E20005D0000205E0000206000002062000020B5
:101E30002D0000202DE9F0410446082C01DBBDE80F
:101E4000F08100220621222000F0F4FB13480078E4
:101E500000B9F4E712480078012802D1042C00DB15
:101E6000EDE71048075D3846FFF764FF054601209F
:101E7000A0400D490978084008B145F080052A4680
:101E80000521222000F0D6FB0120A040C6B2324638
:101E90000621222000F0CEFB00BFD0E74F0000203B
:101EA00050000020520000205100002070B506466E
:101EB0003046FEF795FCC5B2202D00DB1F2500241F
:101EC00004E0305D09490855601CC4B2AC42F8DB3F
:101ED0000020064948550649088006490880032025
:101EE00005490870FFF73CFE70BD00002D00002082
:101EF0005A000020620000204D00002010B504466A
:101F00000CB1012C08D10648047014B94FF0FF3011
:101F100000E0012003490870FFF722FE10BD000019
:101F20004E0000205C00002010B50446032C04DCA9
:101F300004480470002004490880044800F00EF8AA
:101F400010BD00004D000020620000202000002095
:101F500001490870704700005000002070B58AB039
:101F600004462D48007840B9607900902379E278E2
:101F70002AA102A8FEF754FA25E027480078012894
:101F80000ED12078642190FBF1F201FB1206A078BB
:101F900000906378324621A102A8FEF741FA12E0D0
:101FA0001D48007802280AD1A07800906378207834
:101FB00000F5FA621DA102A8FEF732FA03E0FFF76E
:101FC000CFFD0AB070BD002510E002A8FEF708FCA6
:101FD000C0B2A84204DD02A8405D1849485503E09C
:101FE00000201649485503E0681CC5B2202DECDBE3
:101FF00000BF00201149C87707480078022806D0A2
:1020000005480078032802D000200D490880FFF71A
:10201000A7FD00BFD5E700004D0000202530326449
:102020002E253032642E2530326400002530346491
:102030002E25303264253032640000002D0000204F
:102040005A000020F0B585B004460D4616461F46DE
:102050003946304600F0BCF8284600F0FFF86079B9
:1020600000902379E27803A101A8FEF7D9F905B021
:10207000F0BD0000253032643A253032643A253014
:102080003264000070B5054624480078102801DB52
:10209000002070BD2846FEF7A3FBC4B2402C00DB35
:1020A0003F2400200AE0295C1D4A127802EB42120C
:1020B0001C4B03EB42021154411CC8B2A042F2DB9C
:1020C0000021174A127802EB4212164B03EB420230
:1020D00011551348007800EB4010194601EB400001
:1020E00080F8404001200E49097801EB41111A4661
:1020F00002EB410181F8410009480078401C084981
:10210000087008460078102801DB0020087003489A
:102110000078401C014908700120BAE7B200002095
:10212000B0000020C002002003480078002801DD34
:10213000012070470020FCE7B2000020002013E0DF
:10214000002100EB40120E4B03F8121000EB40127E
:1021500003EB420282F8401000EB401203EB420214
:1021600082F84110411CC8B21028E9DB0021054A61
:102170001170054A1170054A1170054A11807047A7
:10218000C0020020B0000020B1000020B2000020FA
:10219000B400002010B504461CB104A0FFF772FF84
:1021A00002E006A0FFF76EFF10BD00002A4556545E
:1021B0003A414C41524D0D0A000000002A45565448
:1021C0003A414C41524D204F46460D0A0000000056
:1021D00070B594B005460E4600240BE02DB1285D85
:1021E00018B1285D01A9085502E0202001A9085571
:1021F000601CC4B2082CF1DB00208DF80C003346C3
:1022000001AA04A104A8FEF70BF904A8FFF73AFFFE
:1022100014B070BD2A4556543A4449535020257392
:1022200020253032580D0A0030B591B004462046C2
:1022300000F0D8FC05462A4604A101A8FEF7F0F8F4
:1022400001A8FFF71FFF11B030BD00002A4556540A
:102250003A4B45592025730D0A00000010B590B087
:102260000446224604A16846FEF7DAF86846FFF7FE
:1022700009FF10B010BD00002A4556543A4C4544A1
:1022800020253032580D0A0010B50446012C03D128
:1022900003A0FFF7F7FE02E006A0FFF7F3FE10BD74
:1022A0002A4556543A4D4F4445204E494748540D0F
:1022B0000A0000002A4556543A4D4F4445204441F7
:1022C000590D0A0070B529480088401C274908802C
:1022D00008460088022800DA70BD002023490880E3
:1022E0002348007800B9F7E72248007800EB401057
:1022F000214901EB400090F8410010B9FFF71EFFA3
:10230000EAE71C48007800EB40101B4901EB400550
:10231000002404E0285D01F0BFFD601CC4B2154834
:10232000007800EB4010144901EB400090F84000A9
:10233000A042EFDC00200F49097801EB41110E4A61
:1023400002EB410181F841000A480078401C09492C
:10235000087008460078102801DB00200870044847
:102360000078401E0249087000BFB5E7B4000020A5
:10237000B2000020B1000020C0020020D0F80034DC
:1023800012F0010F14BF0B438B43C0F8003412F05E
:10239000020FD0F8202414BF114322EA0101C0F833
:1023A000201470472DE9F00301264FF0000C03259F
:1023B000C2F3411706FA0CF40C4211D0D0F8C48FC6
:1023C0004FEA4C0405FA04F928EA0908C0F8C48F5A
:1023D000D0F8C48F07FA04F448EA0404C0F8C44FE4
:1023E0000CF1010C0CF0FF0CBCF1080FE2D3D0F89B
:1023F00000C512F0010F14BF4CEA010C2CEA010CCD
:10240000C0F800C5D0F804C512F0020F14BF4CEAA2
:10241000010C2CEA010CC0F804C5D0F808C512F074
:10242000040F14BF4CEA010C2CEA010CC0F808C5DB
:10243000D0F818C512F0080F14BF4CEA010C2CEAB2
:10244000010CC0F818C512F0100FD0F83C2514BFCD
:102450000A438A43C0F83C25D0F80C2513F0010F3D
:1024600014BF0A438A43C0F80C25D0F8102513F096
:10247000020F14BF0A438A43C0F81025D0F8142570
:1024800013F0040F14BF0A438A43C0F81425D0F890
:102490001C2513F0080F14BF0A438A43C0F81C25FB
:1024A000D0F8442513F4007F14BF0A438A43C0F8D0
:1024B0004425D0F8402513F4407F14BF0A438A43D3
:1024C000C0F84025D0F82825002B0CBF114322EA84
:1024D0000101C0F82815BDE8F00370470E4AC0F3AB
:1024E0000741D26E01238B401A420C4A1ABF02EBFD
:1024F000C101496852F83110020AD1F82C354FF069
:102500000F0C0CFA02FC00F00F0023EA0C039040C1
:102510001843C1F82C05704700E00F40E446000066
:1025200050F82100704730B50C4605460022FFF7F1
:1025300025FF21462846BDE8304008230122FFF749
:1025400031BF30B50C46054608230122FFF72AFFAC
:1025500021462846BDE830400122FFF70FBF30B5C5
:102560000C4605460222FFF709FF21462846BDE832
:10257000304009230122FFF715BF30B50C46054650
:102580000222FFF7FBFE21462846BDE83040082323
:102590000122FFF707BF30B50C4605460222FFF7C0
:1025A000EDFE21462846BDE8304008230122FFF712
:1025B000F9BE40F82120704770B504460E4600BFB2
:1025C0001B4800F071F80028FAD100222146184873
:1025D00000F0B2F83146164800F070F803211448B4
:1025E00000F068F800BF124800F05EF80028FAD149
:1025F000012221460E4800F09FF80B210C4800F004
:1026000059F800BF0A4800F04FF80028FAD10848EE
:1026100000F052F8C5B20521054800F04BF800BFA4
:10262000034800F041F80028FAD1284670BD0000A8
:10263000000002402DE9F04104460F46154600BF58
:10264000184800F031F80028FAD100222146154838
:1026500000F072F83946134800F030F803211148B1
:1026600000F028F800BF0F4800F01EF80028FAD14B
:102670000C4800F02AF8C6B229460A4800F01EF8B5
:102680000521084800F016F800BF064800F00CF8D5
:102690000028FAD1034800F018F8C6B23046BDE869
:1026A000F081000000000240406810F0010018BFF7
:1026B00001207047416070478068704781607047B3
:1026C000016A41F0100101627047406810F0010F8B
:1026D00005D110F0120F1CBF00F01C007047002045
:1026E00070470000036A43F010030362002A14BF1E
:1026F0000E4A0F4A02EB820301EB830302EB8202D4
:1027000092005B1EB3FBF2F2521EC260D0F8C02FE3
:1027100012F0010F08BF7047064A1144521CB1FB6A
:10272000F2F1491E41F08001C1607047801A060035
:10273000A08601007F47370142EA410101607047EE
:102740001649042804BF086840F4803018D00528D2
:1027500004BF086840F4003012D0062812D00F28B9
:1027600015D0102838BF7047103800F01F01012223
:1027700002FA01F142090A4850F82200016070474C
:1027800008607047086840F48020086070474FF088
:10279000E020016941F002010161704724ED00E091
:1027A0003048000010B5FDF798FD002818BF012043
:1027B00010BD000010B5FEF719FA10B1FEF71CFAB3
:1027C00010BD0D48007818B9012000F0F1F811E0B3
:1027D00009480078012803D1022000F0E9F809E057
:1027E00005480078022803D1032000F0E1F801E059
:1027F00000F0F8F800BFE3E78D0000202DE9FF416D
:1028000006460F465248007818B14FF4FA70514905
:1028100008800A2E7AD2DFE806F00511171D253050
:10282000414C4E4D3FB14A48007830B100F00CFBAE
:1028300000F0D8F801E0FFF7BDFF85E044480078DC
:1028400008B100F0A5FA7FE04148007808B100F037
:10285000D9F979E03E48007818B100F0F5FA00F0B7
:10286000C1F871E03C480078401CC4B2022C00DD85
:1028700000242046FFF758FB66E03848007830B95E
:1028800001203649087019203549088005E00020EC
:102890003249087032203249088055E031480078CA
:1028A00018B90120FFF72AFB02E00020FFF726FB02
:1028B0004AE000BF48E0002F44D02B48007810B910
:1028C000FF242AA51AE02848007801280BD12848BF
:1028D000006828490968401A4FF46161B0FBF1F0C3
:1028E000C4B225A50AE02248006822490968401AB6
:1028F0004FF46161B0FBF1F0C4B220A5FF2C06D10A
:102900002A461FA16846FDF78BFD17E01BE00A2C45
:1029100006DA2B4622461DA16846FDF781FD0DE033
:10292000642C06DA2B4622461BA16846FDF778FD8B
:1029300004E02A461BA16846FDF772FD6846FFF7D2
:10294000B5FA00BF00E000BF00BFBDE8FF81000096
:102950008D000020900000204D0000205D00002030
:102960005E0000204E000020140000204E4F0000AA
:102970000C000020180000204F4B000044520000C3
:102980003F3F2E53592E2573000000002025642E52
:1029900053592E25730000002532642E53592E25DD
:1029A0007300000021212E53592E257300000000D2
:1029B00010B50446074804700020074908704FF41A
:1029C000FA700649088000200549087000F0B0F947
:1029D00010BD00008D0000208E000020900000201F
:1029E000920000200020044908700449087004493E
:1029F00008800449087070478D0000208E00002078
:102A00009000002092000020F8B504460E461B48B6
:102A10000078012811D11A480078642190FBF1F266
:102A200001FB1205164880780090154843782A4625
:102A300014A12046FDF7F4FC1FE01048007802289E
:102A40000AD10F48407900900D480379C2780DA152
:102A50002046FDF7E5FC10E00848007803280AD17D
:102A60000C48807800900B484378027805A12046F6
:102A7000FDF7D6FC01E000202070F8BD8D0000209D
:102A800093000020253032642E253032642E25300C
:102A9000326400009A00002001480078704700006E
:102AA0008D00002070B506460D4600241FE0124838
:102AB000005DD0B134701048005D022801D10120C2
:102AC00000E00020287029782046FFF797FE0020BC
:102AD0000949085509480078002804DD07480078AE
:102AE000401E06490870012070BD601CC4B20A2C4B
:102AF000DDDB0020F8E70000F60000208C0000205D
:102B000000B525480078012814D12448007808B978
:102B1000632000BD21480078012801D10C20F8E78E
:102B20001E480078022835D11D4A51781078FEF7EA
:102B30001DFBEEE718480078022810D117480078EE
:102B400008B91720E5E715480078012801D13B2096
:102B5000DFE71248007802281CD13B20D9E70E4855
:102B60000078032816D10D48007808B91720D0E75F
:102B70000A480078012801D13B20CAE707480078BD
:102B8000022801D13B20C4E704480078032801D182
:102B90001F20BEE73B20BCE78D0000208E000020F8
:102BA000930000200D48007801280AD10C480078D5
:102BB000012800D170470A480078022801D101207D
:102BC000F8E706480078032805D10548007803286F
:102BD00001D10020EEE70020ECE700008D0000208E
:102BE0008E00002001460A2903DA034850F821002C
:102BF000704702A0FCE7000064000020554E4B4ED9
:102C00004F574E0070B5FFF77BFF0546FFF7CAFF31
:102C10000646002428480078012803D0264800787A
:102C2000022826D124480078012810D123480078B2
:102C300000B9234C21480078012801D1204C641CA4
:102C40001E48007802282ED11D4CA41C2BE01B48E6
:102C5000007808B91A4CE41C18480078012801D102
:102C6000174C241D1548007802281CD1144C641DF3
:102C700019E011480078032815D11048007800B9F0
:102C8000104C0E480078012801D10E4C641C0B48F2
:102C90000078022801D10B4CA41C084800780328B6
:102CA00001D1084CE41C34B12078401C20702078FD
:102CB000A84200DD267070BD8D0000208E0000202F
:102CC000930000209A00002000200EE001210E4A0F
:102CD00011540E4A115400210D4A11540D4A22F884
:102CE00010100D4A1154411CC8B20A28EEDB002115
:102CF0000A4A11700A4A11700A4A11700A4A118070
:102D00000A4A117070470000C4000020CE00002065
:102D1000D8000020E2000020F60000208C000020F7
:102D20008D0000208E0000209000002092000020E6
:102D300012480078012808D1114812490A68026037
:102D40008A8882808979817116E00C48007802288F
:102D500008D10B490B4802680A6082888A80807912
:102D6000887109E005480078032805D1064807491D
:102D70000A68026089888180704700008D00002009
:102D800093000020200000209A000020270000204F
:102D90000F490978012901D103200CE00C49097879
:102DA000022901D1032006E009490978032901D14C
:102DB000042000E0704707490978491C054A117052
:102DC00011460978814201DB0021117000BFF1E753
:102DD0008D0000208E00002070B501211848FFF7FB
:102DE0009FFB08B1012000E0002016490872022173
:102DF0001348FFF795FB08B1012000E000201149BE
:102E0000487200212220FFF7D7FB0446254604F034
:102E100001000C490870C4F340004870C4F38000FE
:102E20008870C4F3C000C870C4F300100871C4F304
:102E300040104871C4F380108871E009C87170BDFA
:102E400000D00340C400002010480078012803D0BF
:102E50000E48007802280BD10D480E490A6802601E
:102E60008A888280897981710020094988710CE003
:102E700006480078032808D1074808490A68026014
:102E80008988818001200449087170478D000020E5
:102E90002000002093000020270000209A0000203E
:102EA00070B5FFF799FF002472E04D48055D4D486D
:102EB000065DB5422CD04C48005D032805DA4A482F
:102EC000005D401C4849085560E046480555002013
:102ED000454908551DB9454921F8140056E04348B5
:102EE00030F8140050280EDA4148005D58B94148C6
:102EF00000780A2807DA01203D4908553D48007846
:102F0000401C3C4908700020384921F814003DE07D
:102F1000BDBB364830F81400401C344921F8140079
:102F2000084630F8140050280ED13148005D58B9D9
:102F3000304800780A2807DA02202D4908552D4824
:102F40000078401C2B490870022C16D1274830F815
:102F50001400502811DD254830F814000A2190FB98
:102F6000F1F201FB120040B92348007828B1FFF7C5
:102F700049FE4FF4FA702149088000201A4908558B
:102F800004E0FFE70020194921F81400601CC4B2D6
:102F90000A2C8ADB1848007800B3184800880028FB
:102FA00009DD16480088401E14490880084600883C
:102FB00008B9FFF717FD12480078401C1049087047
:102FC00008460078322809DB002008700D48007898
:102FD00008B9012000E000200A49087070BD000017
:102FE000C4000020CE000020D8000020E200002015
:102FF000F60000208C0000208D00002090000020B2
:10300000BB0000209200002010B504460A2C03DA11
:1030100000212046FFF7F2FB10BD00000C480078AD
:1030200008B9012000E0002009490870084600782E
:1030300030B10848007840F001000649087005E00A
:103040000448007800F0FE00024908707047000054
:10305000A9000020A600002010B500200649087035
:10306000064908700649087006490870FF220121C8
:103070001820FFF7DFFA10BDA6000020A7000020EF
:10308000A8000020A900002000B5074800880028FB
:1030900000DD00BD0121042000F00AF814200349DE
:1030A000087000BFF5E7000012000020A700002014
:1030B000072800DD704741B101228240D2B2074BA0
:1030C0001B781A43054B1A7006E001228240034B1D
:1030D0001B789343014A137000BFEBE7A600002062
:1030E00000B507480088002800DD00BD012105204B
:1030F000FFF7DEFF14200349087000BFF5E700006A
:1031000012000020A800002000B513480088002805
:1031100000DD00BD1148007800280BDD0F48007865
:10312000401E0E4908700846007818B90021042096
:10313000FFF7BEFF0A48007800280BDD084800783A
:10314000401E074908700846007818B9002105207C
:10315000FFF7AEFF00BFDCE712000020A700002051
:10316000A80000202DE9F05F81460D464846FDF796
:1031700037FB00F0FF082846FDF732FB00F0FF0A9E
:103180004FF0000B00240BE0285D412806DB285D92
:103190005A2803DC0BF1010000F0FF0B601CC4B2E5
:1031A0005445F1DBD84501DBD04502DD0020BDE808
:1031B000F09F002416E019F804602F5D612E04DBF7
:1031C0007A2E02DCA6F12000C6B2612F04DB7A2F32
:1031D00002DCA7F12000C7B2BE4201D00020E6E722
:1031E000601CC4B24445E6DB0120E0E770B505464B
:1031F000286800F04BFB0446207808B9002070BD19
:10320000264600E0641C207828B12078202802D0CF
:1032100020780928F6D1207820B100202070601C89
:10322000286000E02C603046E9E72DE9F8430546C8
:1032300088462846FDF7D4FAC7B20FB1022F02DD47
:103240000020BDE8F883002415E0285D302802DB6B
:10325000285D39280DDD285D412802DB285D4628E0
:1032600007DD285D612802DB285D662801DD00207E
:10327000E7E7601CC4B2BC42E7DB1022694628467F
:10328000FDF76BFA06460098007808B10020D8E7F1
:10329000FF2E01D90020D4E788F800600120D0E794
:1032A00070B505460D480088401C84B2FF2C00DD37
:1032B00000240B480088844203D10120094908708A
:1032C00070BD094805490988455404480480FFF742
:1032D000DBFE0448067800BFF2E70000AA000020E9
:1032E000AC000020AE00002000010020002004E01F
:1032F00000210A4A1154411C88B2FF28F8DD002140
:10330000074A1180074A1180074A1170074A117055
:10331000074A1170074A1170704700000001002031
:10332000AA000020AC000020AE000020AF0000206A
:1033300000020020400200202DE9F84F05462846F3
:10334000FDF74EFA441E10E0285D0D2808D0285DD8
:103350000A2805D0285D202802D0285D092803D13D
:1033600000202855641E00E001E0002CECDA00BFCC
:103370000095009800782A2804D06FA000F0D0F9BA
:10338000BDE8F88F0098401C00906846FFF72EFFBC
:1033900007461FB968A000F0C3F9F1E768A13846F5
:1033A000FFF7E0FE10B1FEF755F8E9E765A13846F2
:1033B000FFF7D8FE10B1FEF737F8E1E73A213846BB
:1033C000FDF704FA8146B9F1000F07D0002089F813
:1033D000000009F10106DDF800800EE06846FFF705
:1033E00005FF064616B130783A2803D052A000F007
:1033F00097F9C5E7761CDDF8008054A13846FFF741
:10340000B1FE044652A13846FFF7ACFE824614B91D
:10341000BAF1000F74D04FA13046FFF7A3FE38B1C8
:103420001CB14046FEF700F980E0FDF781FF7DE02A
:103430004AA13046FFF796FE38B11CB14046FEF770
:1034400015FB73E0FDF7D4FF70E046A13046FFF7AF
:1034500089FE38B11CB14046FEF730F866E0FDF752
:1034600037FF63E041A13046FFF77CFE38B11CB165
:103470004046FEF775F959E0FDF77CFF56E03DA1A7
:103480003046FFF76FFE38B11CB14046FEF7E4F955
:103490004CE0FDF791FF49E038A13046FFF762FEAE
:1034A00040B11CB14046FEF7AFFA3FE022A000F069
:1034B00037F93BE032A13046FFF754FE40B11CB172
:1034C0004046FEF783F831E01BA000F029F92DE01B
:1034D0002DA13046FFF746FE40B11CB14046FEF735
:1034E00021FA23E014A000F01BF91FE027A13046C9
:1034F000FFF738FE48B124B14046FEF7E5F915E084
:1035000015E00DA000F00CF910E021A13046FFF706
:1035100029FE40B11CB14046FEF732FA06E006A093
:1035200000F0FEF802E004A000F0FAF828E702A09C
:1035300000F0F6F800BF23E74552524F520D0A0043
:103540005253540050494E47000000005345540068
:1035500047455400444154450000000054494D453E
:1035600000000000414C41524D00000044495350BE
:103570006C617900464F524D415400004D53470055
:1035800042454550000000004C4544004B45590061
:103590004D4F44450000000010B53448007860B13C
:1035A00033A000F0BDF8002030490870324908808F
:1035B000324908803249087010BD4EE031482F4929
:1035C0000988445C2D480088401C2C490880084626
:1035D0000088FF2801DD002008800D2C01D00A2C76
:1035E00027D10D2C16D12548008823490988884207
:1035F00010D0244821490988405C0A280AD11F4874
:103600000088401C1D49088008460088FF2801DD0D
:10361000002008801A48007800281EDD00201A4982
:10362000174A12788854164908701748FFF784FE25
:1036300013E0134800783F2809DA13481049097845
:1036400044540F480078401C0D49087005E00020E4
:103650000B49087006A000F063F808480088064986
:1036600009888842AAD100BFA6E70000AE0000206A
:103670004552524F520D0A00AA000020AC00002013
:10368000AF0000200001002000020020F0B591B042
:1036900006463046FDF7A4F8C5B23C2D00DD3C25BA
:1036A0004F208DF804004B208DF8050020208DF868
:1036B0000600002405E0315DE01C01AA1154601CE5
:1036C000C4B2AC42F7DB0D21E81C01AA11540A2157
:1036D000281D11540021681D11541048007801283C
:1036E00017D1002D15DD00240EE0E01C01A90F5CB0
:1036F000A81C001B095CE01C01AA1154A81C001B9B
:1037000001A90F54601CC4B205EBD571B4EB610F75
:10371000EBDB01A800F004F811B0F0BD4E00002072
:1037200010B5044603E014F8010B00F0B5FB207857
:103730000028F8D1FFF7D4FC10BD000010B50A48EE
:1037400000F020FA00BF084800F030FA0028FAD054
:1037500003210648FEF7E7FE0A230122032103485E
:10376000FEF720FE10BD0000080800F000D0034066
:1037700010B5244800F006FA234800F003FA00BF11
:10378000214800F013FA0028FAD02048FEF7A6FEE0
:103790001F48FEF7A3FE04211E48FEF7EEFE082197
:1037A0001C48FEF7DCFE01221B4801681B48FEF79F
:1037B00099FF1A48FEF784FFFF220C212220FEF712
:1037C00039FF044600220D212220FEF733FF044377
:1037D00000220E212220FEF72DFF0443FF22462166
:1037E0002220FEF727FF0443002203211820FEF7C2
:1037F00021FF0443FF2201211820FEF71BFF044391
:1038000010BD0000002000F0010800F002080100D7
:10381000020C0100005000400000002000000240A7
:1038200010B5164800F0AEF9154800F0ABF900BF2E
:10383000134800F0BBF90028FAD00120FEF74EFE35
:1038400040F20140FEF74AFE03214FF04020FEF710
:10385000A2FE60234FF4E1320A4801680A4800F0F2
:1038600038FB00220121084800F06AFB1520FEF712
:1038700067FF5021044800F068FB10BD001800F0FD
:10388000000800F00000002000C0004000E0401CE4
:1038900001782029FBD001780929F8D07047000071
:1038A0002DE9F003AD4D02462868AD4B1840A0F15C
:1038B0008053B3F5A02358D002F03809DFF8A48272
:1038C000C2F38414B9F1100F24D0B9F1300F04BF42
:1038D00047F230504FF400130CD03820904304BF0F
:1038E0004FF40040C30105D012F0380F1CBF002078
:1038F000034613D09C4F12F4605F4FF0000618BFD0
:1039000000222CD057F8324044457DD307EBC20249
:103910005268DFE0002340461524EBE7A4F10900DC
:10392000122822D29148D5F87CC04FF04C7350F841
:1039300024002CF01C0C072CA8BF4CF0100CC5F870
:103940007CC02E6D4FF4002C16F4807FD2D1BCF1D8
:10395000010C0AD02E6D16F4807FF8D0CAE712F061
:10396000380F18BFB9F1100F03D0BDE8F0030020E5
:103970007047C2F30268DFF8F8C1002257F83290AE
:10398000E14503D307EBC202526803E0521C062A4A
:10399000F4D33246C5F8C020D5F8B020DFF8D4C142
:1039A00002EA0C0242F00042C5F8B020DFF8C8C1BC
:1039B000A4F109024C1E5CF828C0A444BCFBF1FC35
:1039C000D5F8B0101943C5F8B01008EBC80101EBE9
:1039D00041046A4902EB420201EBC40101EB82049B
:1039E0006468C5F86441D5F864416FF0FF0808EBDE
:1039F0000C2C44EA0C0CC5F864C151F82210D5F81F
:103A0000602102F4000200E05FE01143C5F860119C
:103A1000D5F86011D5F86021C1F38921C2F30904FA
:103A2000D5F86421C2F3042202F1010CD5F8642117
:103A300002F01F02521CB0FBF2F04A09C2F100086A
:103A40004443424301EB481104EB5212484302EB5A
:103A50009020B0FBFCF041080846002257F832C025
:103A6000844503D307EBC200466802E0521C062AD5
:103A7000F4D3C5F8C060D5F8600110F4000F1DBF85
:103A8000D5F8B00040F08040C5F8B000D5F860012E
:103A900004BF40F40000C5F860014FF40040D5F8C1
:103AA000682112F0010F02D1401E0028F7DC002827
:103AB00008BF002148D0D5F8B000184340F00100FD
:103AC00040F01040C5F8B0003EE0521C062AFFF45A
:103AD00019AF3246C5F8C020D5F8602122F40002A3
:103AE000C5F86021D5F8B020DFF894C002EA0C02D6
:103AF00042F00042C5F8B020002908BF4FF0000C8A
:103B00000AD0B0FBF1FCBCF1000F18BFACF1010C06
:103B10000CF10101B0FBF1F10846002257F83240E8
:103B2000844203D307EBC200466802E0521C062A17
:103B3000F4D3C5F8C060D5F8B00043EA8C22104336
:103B400040F00040C5F8B000D5F8B00020F4700097
:103B5000C5F8B000BDE8F0030846704700E00F402C
:103B60000000FF700024F400A44A00008848000010
:103B700040787D0100FC0FE080480000F448000020
:103B8000FF0300EFC0F307230749C0B2194401F057
:103B90007043C1F3130143EA411141EA800040F050
:103BA000007001220260704700E60F40C0F3072258
:103BB0000849C0B2114401F07042C1F3130142EA56
:103BC000411141EA800040F000700068002818BFF1
:103BD0000120704700EA0F404FF0E020016941F0FA
:103BE0000501016170474FF0E020016941F00201D9
:103BF000016170474FF0E021401E486170470000AE
:103C000001201949087019480088002805DD174867
:103C10000088401E1549088025E0092013490880C6
:103C200001201349087013480078002805DD114869
:103C30000078401E0F49087015E009200D490870F2
:103C400001200D4908700D480078002805DD0B485B
:103C50000078401E0949087005E0092007490870EE
:103C6000012007490870704704000020060000206A
:103C70000500002009000020080000200B000020A3
:103C80000A0000200448006840F4700002490860FF
:103C9000024803490860704788ED00E00024F40002
:103CA000C00000201CB52A492A48FFF7F9FD2A491F
:103CB0000860084600684FF47A71B0FBF1F42046C2
:103CC000FFF798FFFFF788FFFFF78DFF00202349DC
:103CD00008702349087009202249088000202249E1
:103CE0000870092021490870002021490870092026
:103CF0002049087000202049086020490880FFF70B
:103D00001DFDFFF735FDFFF78BFDFEF74BFD002096
:103D1000009003460122114601901820FDF73EFA5B
:103D2000FCF758FFFEF738F8FEF7CEFFFDF722F953
:103D3000FFF792F9FFF7DAFAFEF700FA0121072000
:103D4000FFF7B6F90E4801790120FFF7B1F91CBD64
:103D5000002D3101500500F100000020040000207A
:103D600005000020060000200800002009000020B7
:103D70000A0000200B0000200C0000201000002092
:103D80002700002010B501210B4800F05AF80B481D
:103D9000007808B9012000E00020084908700846B2
:103DA000007808B1082000E00020024608210448FD
:103DB000FEF7FFFB10BD000000000340BC00002028
:103DC0000050024010B4C26822F0010222F4807256
:103DD000C2600A0E0260114A1268114B02EA030C1B
:103DE000ACF18054CBB2C1F30722B4F5202407D044
:103DF00043F40071416042F40071816010BC70476F
:103E00004FF4704C0CEA1114234343F400734360E5
:103E10000CEA1121114341F40071EEE700E00F407C
:103E20000000FF70C26840F20113194022EA01014C
:103E3000C1607047C26840F2011319401143C1606C
:103E4000704741627047826911438161704711F088
:103E5000FF0F18BF826211F47F4F18BFC262704714
:103E600070B501210B4800F074F805462946094851
:103E700000F069F808E0074800F018F80446002C44
:103E800002DBE0B2FFF70CFA024800F01DF8002850
:103E9000F1D170BD00C0004010B504462146024873
:103EA00000F00CF810BD000000C00040816911F066
:103EB000100F0CBF00684FF0FF307047826912F09E
:103EC000200FFBD1016070478069012121EA1010A9
:103ED0007047D0F818C01CF0080FFAD1D0F82CC0E9
:103EE0002CF0100CC0F82CC0D0F830C02CF0010C15
:103EF0002CF4407CC0F830C0D0F830C0B1EB021FC9
:103F000034BF4CF0200C2CF0200CC0F830C038BF6F
:103F10005208C900B1FBF2F1491C49088A09426202
:103F200001F03F018162C36200218161C16A41F0F9
:103F30001001C162016B40F201321143016370470D
:103F400011434163704741647047826B1143816341
:103F50007047002914BF006CC06B70472DE9F04317
:103F600087B04FF00008C146102103A8FEF74CFDB2
:103F700000260025002715E003A8805D2E2809D122
:103F8000002D04DD681E01218140C8B20743701C6A
:103F9000C6B207E003A8805D0DF80500701CC6B22C
:103FA000681CC5B203A8FCF71BFCC0B2B04201DD1F
:103FB000082DE1DB04E020200DF80500681CC5B2E7
:103FC000082DF8DB00208DF808003E480078002816
:103FD00068D03D480078012816D13C48007818B9CF
:103FE0004FF000084FF0020938480078012803D14B
:103FF0004FF002084FF0020934480078022844D1FB
:104000004FF00408814640E02F480078022816D17E
:104010002E48007818B94FF000084FF002092B48DD
:104020000078012803D14FF002084FF00209274819
:104030000078022829D14FF00408814625E0224863
:10404000007803281ED12148007818B94FF00008E5
:104050004FF002091D480078012803D14FF00208F3
:104060004FF0020919480078022802D14FF00408E5
:10407000814616480078032807D14FF006084FF014
:10408000020902E04FF00008C146444604E0202047
:104090000DF80400601CC4B208EB0900A04201DD69
:1040A000082CF4DB002405E01DF80400084908553D
:1040B000601CC4B2082CF7DB0648077007B0BDE8E7
:1040C000F0830000920000208D0000208E00002070
:1040D000520000205100002030380A2801D201206F
:1040E000704700207047000088B00027002500209E
:1040F000079006908246804600260490059000BFF7
:10410000FFF7D0FDFCF77EFDB9E10DB1FFF744FAF2
:10411000DB48007878B10020D94908701DB13846D5
:10412000FDF788FE02E03846FDF784FE781CC7B232
:10413000082F00DB0027D348007800287ED000201D
:10414000D0490870002D7AD0FEF7AAFE03E09DF852
:104150001C00FEF769F806A907A8FEF7A3FC0028D3
:10416000F5D1B9F1000F11DDA9F101001FFA80F9B5
:10417000FEF792FC50B90020C3490870C34908708B
:10418000FF20C3490870C348FDF7E8FEFEF784FC32
:104190008246C148008848B9BAF1000F01D0012019
:1041A00000E0002001460320FEF782FFBAF1000F75
:1041B00001D0FFF7D3FEFCF719FD06463EB1B8F17A
:1041C000000F04D1FCF77EFF0120FDF7E3FF3EB9AD
:1041D000B8F1000F04D0FCF789FF0020FDF7DAFFEB
:1041E000B04666B1FCF736FFAB48008870B9FCF703
:1041F00009FF044621460220FEF75AFF06E0A648C2
:10420000008818B900210220FEF752FFA348008859
:10421000002809DDA1480088401EA0490880084602
:10422000008808B9FCF7F4FE9D480088002817DDD7
:10423000FEF732FCA0B99A48008801E098E07EE0E1
:10424000401E974908800846008848B98E48007883
:10425000032805D100208C4908708E48FDF77EFEAA
:1042600090480078C043C4B28F480078012803D139
:1042700004F0010040F0FE04224601211820FEF760
:10428000D9F985480088002804DD83480088401E4D
:10429000814908808548007802281AD1844800881E
:1042A000401C8349088008460088322811DB002022
:1042B00008808048007808B9012000E000207D498E
:1042C00008707548008820B9084601780620FEF776
:1042D000EFFEFEF719FFFDF727FF08B1FDF7F2FF2C
:1042E00069480078032843D173480088401C72490C
:1042F00008800846008871490988884238DB002018
:104300006D490880FDF7D8FC6D48007880B3002423
:104310000AE06C49085D202801D15F2100E00146D8
:1043200001AA1155601CC4B2082CF2DB00208DF8E4
:104330000C006548017801A8FDF74AFF18E0FCF77A
:1043400087FC0546A5B100204F4908704F49087009
:10435000FF204F4908700020534908700120584938
:1043600008704FF096094B48FDF7F8FDFEF7ACFCDE
:104370005648007810B1002054490870544800781D
:1043800000287CD0002052490870002D74D0FCF722
:1043900041FF50480068401C4E4908603D4903C930
:1043A000CDE9040104A8FCF7E9FB3B48008820BBE9
:1043B0004948007920B101210846FEF779FE03E063
:1043C00000210120FEF774FEFEF728FE3748007832
:1043D00001280AD13F48006840490968401A40490D
:1043E000884202D9022031490870304800780128FB
:1043F00004D101210620FEF75BFE06E02B48007881
:1044000018B900210620FEF753FE2DB1FEF744FB3C
:1044100010B904A8FDF7A2FD2948007878B100245E
:104420000AE02849085D202801D15F2100E001460B
:1044300001AA1155601CC4B2082CF2DB08E000246C
:1044400004E0202001A90855601CC4B2082CF8DB48
:1044500000208DF80C00134890F800B01248007846
:10446000012801D10BF0010B1748037801AA594626
:1044700004A8FDF7E7FD00BF0848008800BF44E638
:1044800004000020050000204D0000204E00002008
:104490005C000020200000201200002010000020FE
:1044A00062000020A6000020500000201400002020
:1044B000B8000020BA000020600000205E0000204C
:1044C0004F00002052000020510000200800002072
:1044D0000A0000200C000020270000201800002007
:1044E0008051010010B500290AD00878002807D0B3
:1044F00005487844FCF7FAFA002801D0002010BDE6
:104500000248784410BD0000860600007E060000C8
:104510004FF04070E1EE100A70473F065B4F666D4A
:104520007D077F6F777C395E79713D76301E7A38F2
:1045300055373F7367706D783E7E6A366E491F1C33
:104540001F1E1F1E1F1F1E1F1E1F000000400040B9
:1045500010000000008005401000000000500040E6
:1045600011000000009005401100000000600040B4
:104570001200000000A00540120000000070004082
:104580001300000000B0054013000000004002408E
:104590001400000000C0054014000000005002405C
:1045A0002E00000000D005402E00000000600240F8
:1045B0002F00000000E005402F00000000700240C6
:1045C0003000000000F005403000000000D0034043
:1045D00046000000000006404600000000100640B3
:1045E0004700000000200640480000000030064060
:1045F0007F000000004006408000000000500640A0
:1046000084000000006006408C0000000040004074
:104610001000000000800540100000000050004025
:1046200011000000009005401100000000600040F3
:104630001200000000A005401200000000700040C1
:104640001300000000B005401300000000400240CD
:104650001400000000C0054014000000005002409B
:104660002E00000000D005402E0000000060024037
:104670002F00000000E005402F0000000070024005
:104680003000000000F005403000000000D0034082
:1046900043000000000006404300000000100640F8
:1046A00044000000002006404500000000300640A5
:1046B000580000000040064059000000005006402D
:1046C0005C000000006006406400000000700640CE
:1046D0006C000000008006406D0000000090064065
:1046E0007F00000000400040008005400050004076
:1046F000009005400060004000A0054000700040B0
:1047000000B005400040024000C00540005002409B
:1047100000D005400060024000E00540007002400B
:1047200000F0054000D003400000064000100640A5
:1047300000100640002006400020064000300640E1
:104740000030064000400640004006400050064051
:1047500000500640006006400060064000700640C1
:104760000070064000800640008006400090064031
:104770000090064000070000000600000005000051
:10478000000400000003000000020000000100001F
:10479000000000000000000018ED00E01CED00E04B
:1047A00020ED00E000E400E004E400E008E400E0C4
:1047B0000CE400E010E400E014E400E018E400E0A1
:1047C0001CE400E020E400E024E400E028E400E051
:1047D0002CE400E030E400E034E400E038E400E001
:1047E0003CE400E040E400E044E400E048E400E0B1
:1047F0004CE400E050E400E054E400E058E400E061
:104800005CE400E060E400E064E400E068E400E010
:104810006CE400E070E400E074E400E078E400E0C0
:104820007CE400E080E400E084E400E088E400E070
:1048300000E100E004E100E008E100E00CE100E05C
:1048400010E100E080E100E084E100E088E100E0C8
:104850008CE100E090E100E000E200E004E200E032
:1048600008E200E00CE200E010E200E080E200E09C
:1048700084E200E088E200E08CE200E090E200E008
:1048800000688909001C4E0E40420F0000201C00E9
:1048900080841E0000802500999E3600004038006C
:1048A00000093D0000803E0000004B00404B4C00E2
:1048B00000204E00808D5B0000C05D000080700015
:1048C00000127A0000007D0080969800001BB7005F
:1048D0000080BB00C0E8CE00647ADA000024F40057
:1048E0000000FA0080A81201002D310100366E018F
:1048F00040787D0140000000000000000001000041
:104900003E0008000000000000010000A0000000C0
:10491000020000000001000034540100000000000B
:10492000000100002B7006000000000000010000E4
:104930002800000000000000000100002700010026
:104940000000000000010000200000000000000046
:104950000001000050000000020000000001000003
:104960001AAC0000000000000001000017940900CC
:104970000000000000010000169805000000000083
:104980000001000014000000000000000001000011
:10499000138008000000000000010000A0000000DB
:1049A00008000000000100001000000000000000EE
:1049B00000010000280000000200000000010000CB
:1049C0004000000004000000000100006000000042
:1049D00000000000000100005D000C00000000006D
:1049E0000001000050000000000000000001000075
:1049F0004E000200000000000001000041AC010078
:104A000000000000000100003C0000000000000069
:104A1000000100003A8009000000000000010000D1
:104A2000300000000000000000010000280000002D
:104A3000000000000001000027000100000000004D
:104A400000010000236006000000000000010000DB
:104A50002160080000000000000100001E000000AE
:104A600000000000000100001DC004000000000064
:104A700000010000500000000200000000010000E2
:104A800018000000000000000001000014000000F9
:104A900000000000000100006000000004000000B1
:104AA000000100000024F40030003000005A6202CF
:104AB0009100910000879303D200D20000B4C40497
:104AC0001301130100E1F50554015401000E2707FD
:104AD000950195013031323334353637383941421A
:104AE0004344454640305800303132333435363750
:104AF00038396162636465664030780004000008FC
:104B00000000000000000002000100001000000092
:104B100055534552310000005553455232000000B4
:104B200046554E4300000000414444005350454563
:104B300044000000534156450000000044495350D2
:104B400000000000464F524D415400005348494672
:104B50005400000045585400884C0000000000201C
:104B6000C40000003C0200004C4D0000C4000020C6
:104B70007C08000058020000100100004300000003
:104B8000F8FFFFFF0040404040404040404041416E
:104B90004141414040404040404040404040404012
:104BA00040404040400502020202020202020202AC
:104BB00002020202022020202020202020202002A9
:104BC0000202020202029090909090901010101039
:104BD00010101010101010101010101010101010D5
:104BE0000202020202028888888888880808080869
:104BF0000808080808080808080808080808080835
:104C0000020202024000000000000000000000005C
:104C10000000000000000000000000000000000094
:104C20000000000000000000000000000000000084
:104C30000000000000000000000000000000000074
:104C40000000000000000000000000000000000064
:104C50000000000000000000000000000000000054
:104C60000000000000000000000000000000000044
:104C70000000000000000000000000000000000034
:104C80000000000000000000000000000000000024
:104C90000000000000000000000000000000000014
:104CA0000000000000000000000000000000000004
:104CB000000000000053383030434C4B000000002F
:104CC00000000000000000000000000000000000E4
:104CD0000000000000000001000020202020202013
:104CE00020200000FF00320000000000204B0000E8
:104CF0004C4B0000284B0000344B00003C4B0000A4
:104D00002C4B0000444B0000544B0000104B0000A3
:104D1000184B000000000000000000000000000030
:104D20000000000000000000000000000000000083
:104D30000000000000000000000000000000000073
:0C4D400000000000000000000024F4004F
:04000005000002F500
:00000001FF
