:020000040000FA
:1000000038090020F5020000FD020000FF02000098
:1000100001030000030300000503000000000000CE
:1000200000000000000000000000000007030000C6
:1000300009030000000000000B0300003D39000030
:100040000F0300001103000013030000150300005C
:1000500017030000AD3B00001B0300001D03000060
:100060001F030000210300002303000025030000FC
:1000700027030000290300002B0300002D030000CC
:100080002F0300003103000033030000C93A0000D1
:1000900037030000390300003B0300003D0300006C
:1000A0003F0300004103000043030000450300003C
:1000B00047030000490300004B0300004D0300000C
:1000C0004F030000510300005303000055030000DC
:1000D00057030000590300005B0300005D030000AC
:1000E0005F0300006103000063030000650300007C
:1000F00067030000690300006B0300006D0300004C
:100100006F0300007103000073030000750300001B
:1001100077030000790300007B0300007D030000EB
:100120007F030000810300008303000085030000BB
:1001300087030000890300008B0300008D0300008B
:100140008F0300009103000093030000AD03000043
:100150000000000000000000AF030000B103000039
:10016000B3030000B503000000000000B703000067
:10017000B9030000BB030000BD030000BF03000083
:10018000C1030000C3030000C5030000C703000053
:10019000C9030000CB030000CD030000CF03000023
:1001A000D1030000D3030000D5030000D7030000F3
:1001B000D9030000DB030000DD030000DF030000C3
:1001C000E1030000E3030000E5030000E703000093
:1001D000E9030000EB030000ED030000EF03000063
:1001E000F1030000F3030000F5030000F703000033
:1001F000F9030000FB030000FD030000FF03000003
:1002000000F002F800F053F80AA090E8000C8244D5
:100210008344AAF10107DA4501D100F048F8AFF2B2
:10022000090EBAE80F0013F0010F18BFFB1A43F0D4
:10023000010318470045000020450000103A24BF84
:1002400078C878C1FAD8520724BF30C830C144BF3B
:1002500004680C607047000000230024002500267D
:10026000103A28BF78C1FBD8520728BF30C148BF19
:100270000B607047642900F03781752900F03481E4
:10028000782900F06D81732900F0618300207047A8
:100290001FB503F02BFF00F0E9FB04000020002154
:1002A00003F00EFF401C60601FBD10B510BD00F0D4
:1002B000EFFB1146FFF7ECFF03F0BCFD00F00DFC77
:1002C00003B4FFF7F2FF03BC00F050FCEFF3108023
:1002D00072B67047EFF310807047EFF3108062B68C
:1002E000704730BF704780F311887047EFF311807B
:1002F000704700004548804745480047FEE7FEE755
:10030000FEE7FEE7FEE7FEE7FEE7FEE7FEE7FEE7C5
:10031000FEE7FEE7FEE7FEE7FEE7FEE7FEE7FEE7B5
:10032000FEE7FEE7FEE7FEE7FEE7FEE7FEE7FEE7A5
:10033000FEE7FEE7FEE7FEE7FEE7FEE7FEE7FEE795
:10034000FEE7FEE7FEE7FEE7FEE7FEE7FEE7FEE785
:10035000FEE7FEE7FEE7FEE7FEE7FEE7FEE7FEE775
:10036000FEE7FEE7FEE7FEE7FEE7FEE7FEE7FEE765
:10037000FEE7FEE7FEE7FEE7FEE7FEE7FEE7FEE755
:10038000FEE7FEE7FEE7FEE7FEE7FEE7FEE7FEE745
:10039000FEE7FEE7FEE7FEE7FEE7FEE7FEE7FEE735
:1003A000FEE7FEE7FEE7FEE7FEE7FEE7FEE7FEE725
:1003B000FEE7FEE7FEE7FEE7FEE7FEE7FEE7FEE715
:1003C000FEE7FEE7FEE7FEE7FEE7FEE7FEE7FEE705
:1003D000FEE7FEE7FEE7FEE7FEE7FEE7FEE7FEE7F5
:1003E000FEE7FEE7FEE7FEE7FEE7FEE7FEE7FEE7E5
:1003F000FEE7FEE7FEE7FEE7FEE7FEE7FEE7FEE7D5
:1004000004480549034A054B70470000C139000004
:1004100001020000380700203809002038070020BA
:100420000FB41CB5074B06AA7B446946009005989B
:1004300000F063FA0020694600F072FA1CBC5DF817
:1004400014FB0000F504000070B5044685690068DF
:10045000C10601D5302600E02026C00707D070BDB8
:10046000D4E9012130469047206A401C20626D1E6D
:10047000F6D570BD70B5044685690078C00707D110
:1004800070BDD4E9012120209047206A401C2062E1
:100490006D1EF6D570BD70B50C460546012A05D017
:1004A0002878800600D5EA69002302E0012305E0F0
:1004B0005B1C934202D2E05C0028F9D1A869E618DF
:1004C000C01AA861286A184428622846FFF7BCFFB2
:1004D00004E0D5E9012114F8010B9047B442F8D3A8
:1004E0002846FFF7C7FF70BD2DE9F04106460024FE
:1004F00010687529314616A510D0AFF3008000288A
:1005000002DA404213A507E031688A0701D512A537
:1005100002E0490704D511A5012401E0AFF30080F2
:1005200000210A2206F1240709E0B0FBF2FCB0FB2F
:10053000F2F302FB1C00303078541846491C0028A6
:10054000F3D123462A463046BDE8F04100F076B9A3
:10055000000000002D0000002B0000002000000023
:1005600070B504460D4621461068AFF3008021881F
:10057000090502D50F4A7A4402E00E4A7A440E3247
:10058000002104F1240305E000F00F060009965D48
:100590005E54491C0028F7D120780023000704D5B9
:1005A000702D02D009B1022311322046BDE87040FF
:1005B00000F044B9364100002DE9F05F8946044659
:1005C0004FF0000ADFF874B1FB44C0F820A02046C9
:1005D000E1688847002874D0252806D0D4E9012195
:1005E0009047206A401C2062F1E700265F462046C3
:1005F000E16888472028054607DB312D05D27819A8
:1006000010F8200C08B10643F1E7B00701D526F039
:100610000406C4F81CA00027C4F818A02A2D09D08D
:10062000284603F0FFFB38B304EB8708303DC8F8D9
:10063000185019E059F8041B204604EB8702916119
:10064000E1688847012F054618D1E069002820DAC3
:1006500026F020061DE0D8F8180000EB800005EB1E
:1006600040003038C8F818002046E1688847054641
:1006700003F0D8FB0028EED1012F0AD02E2D08D18F
:100680002046E16888477F1C0546022F46F0200679
:10069000C4DBA069002803DA404246F00106A061ED
:1006A000F00701D026F010066C2D0BD0682D09D074
:1006B0004C2D39D06A2D35D0742D35D07A2D33D0CC
:1006C00016E038E0E1682F4620468847B8420546E4
:1006D00009D16C2F26D04FF48060E1680643204694
:1006E0008847054604E06C2F1AD04FF4807006430B
:1006F0000DB3A5F14100192802D8203546F4006653
:100700004A462946204626604E46FFF7B3FD80B193
:1007100001280BD0F61D26F0070000F1080956E766
:100720004020E4E78020D8E70020D6E706F104095E
:100730004DE7284652E7206ABDE8F09F0C410000D3
:1007400070B5064600F076F80468054630460A2281
:10075000002100F04FF92C6070BD2DE9F05F934649
:100760000F4680460446002600F064F8D0F800905A
:10077000824614F8015B2DB100F054F80068405D2A
:10078000C007F6D12B2D02D02D2D1AD0641E0021CA
:10079000CAF800105A463946204600F0DCF80146F7
:1007A00027B13868A04201D1C7F80080DAF800000C
:1007B000022809D0CAF80090700505D54842BDE866
:1007C000F09F46F48066E2E70846F8E7401ECAB2AA
:1007D00010F8011F8A4202D00029F9D10020704789
:1007E00010B5431C02E010F8011B71B18107FAD16A
:1007F0004FF0013202C88C1A8C4314EAC211F9D0AE
:10080000C01A0A0603D0C01E10BDC01A10BD0A04CB
:1008100001D0801E10BD0902FCD0401E10BD7047E3
:100820007047704710B500F021F9001D10BD00BFE2
:100830009138000000487047D40600202DE9F047A9
:100840000D4699469246044600F124080168880640
:1008500004D5E06921F01001216000E00120A842E8
:1008600001DD471B00E00027A1697A1902EB0900AE
:10087000081AA0612078C00602D42046FFF7E4FDE4
:10088000002608E0D4E901211AF806009047206A02
:10089000401C761C20624E45F4DB2078C0060AD549
:1008A0002046FFF7D1FD06E0D4E901213020904732
:1008B000206A401C2062381EA7F10107F4DC07E023
:1008C000D4E9012118F805009047206A401C2062F5
:1008D000281EA5F10105F3DC2046FFF7CBFD2078AB
:1008E000000602D50220BDE8F0870120FBE70000EA
:1008F00001694A1C02610878704700B58FB0CDE9E4
:1009000001310021059105497944CDE903101146D3
:100910006846FFF751FE0FB000BD0000E5FFFFFF86
:100920000A6802F8010B0A60704710B5436913B1F9
:10093000AFF3008001E0FFF7AEFD012010BD12789B
:1009400000F124010A7000224A700122EDE71168CB
:100950004FF0FF32E9E72DE9F05F824615468B46FE
:1009600000270AF10104B9460078302801D09DB172
:1009700013E014F8010B0127782803D0582801D080
:1009800045B10AE00DB1102D07D1002714F8010B75
:10099000102502E0082500E00A250026B0460EE0FA
:1009A00005FB080005FB06F101271FFA80F801EBA3
:1009B0001046B6F5803F00D3B94614F8010B29461E
:1009C00000F058F80028EBDABBF1000F05D00FB1AA
:1009D000641E00E05446CBF80040B9F1000F06D089
:1009E000FFF728FF02210160C81EBDE8F09F48EA1A
:1009F0000640FAE72DE9F04791460F468046044647
:100A0000002614F8015B2DB1FFF70CFF0068405D74
:100A1000C007F6D12B2D02D02D2D18D0641E4A46CA
:100A200039462046FFF797FF27B13968A14201D127
:100A3000C7F800804FF0020471050BD54042002832
:100A400003DDFFF7F7FE0460A007BDE8F08746F47A
:100A50008066E4E70028F8DAFFF7ECFE04606FF048
:100A60000040F2E700487047D40600200048704775
:100A7000F40600203A2800D2303820F02002412A23
:100A800001D3A2F13700884201D34FF0FF30704705
:100A90007546FFF7E7FFAE4605006946534620F06E
:100AA0000700854618B020B5FFF7AAFCBDE8204036
:100AB0004FF000064FF000074FF000084FF0000B1A
:100AC00021F00701AC46ACE8C009ACE8C009ACE8CD
:100AD000C009ACE8C0098D46704710B50446AFF3B5
:100AE00000802046BDE81040FFF7EABB4FF0013C14
:100AF00050F8042B51F8043B9A4221D1A2EB0C038D
:100B0000934313EACC1317D150F8042B51F8043B4C
:100B10009A4215D1A2EB0C03934313EACC130BD1E9
:100B200050F8042B51F8043B9A4209D1A2EB0C0374
:100B3000934313EACC13DBD04FF00000704700BFA3
:100B4000D01A01BAB1FA81F101F0180122FA01F0CC
:100B5000CB40C1F12001DBB2C0B2C01A2CFA01F3C4
:100B6000D11A914311EAC311E6D170470149182007
:100B7000ABBEFEE72600020070470000144A12795F
:100B800002B97047124A527902B1FAE70021C278DD
:100B90000F4B1B789A4214D102790D4B5B789A4225
:100BA0000FD142790A4B9B789A420AD1084AD278EF
:100BB0000AB9012105E0064AD27883789A4200D129
:100BC000012111B10122024B5A7100BFD9E7000087
:100BD0000000002007200449087000204870887039
:100BE000C8700871487170470000002001484079C2
:100BF0007047000000000020002001494871704744
:100C00000000002010B500200C4908700C49088035
:100C1000FF200C49087000220121182001F02EFC51
:100C2000002004E03821084A1154411CC8B20828A9
:100C3000F8DBFF21054A117010BD0000A70000205D
:100C4000A80000208D000020370000203600002082
:100C500070B5AA480088401CA8490880A8480078B8
:100C6000082823D2DFE800F00423426188A7F4F2C9
:100C7000A24800883C2819DB0020A04908800120F8
:100C80009F49087000209F490870FF220121182009
:100C900001F0F4FB002404E020209B490855601C6F
:100CA000C4B2082CF8DB00209849087022E1934870
:100CB0000088282819DB00209049088002209049EC
:100CC0000870FF208F49087000220121182001F0D0
:100CD000D5FB002404E038208B490855601CC4B2C1
:100CE000082CF8DBFF208949087003E1834800885D
:100CF0003C2819DB002081490880032080490870C6
:100D0000002080490870FF220121182001F0B6FB65
:100D1000002404E020207C490855601CC4B2082C43
:100D2000F8DB002079490870E4E07448008828283E
:100D300021DB0020714908800420714908700820D7
:100D400000240BE0844204DA71A1095D6E4A11555A
:100D500002E020216C4A1155611CCCB2082CF1DB59
:100D600000206A490870FF206649087000220121AE
:100D7000182001F083FBBDE060480088962819DB4D
:100D800000205E49088005205D49087000205D490B
:100D90000870FF220121182001F070FB002404E0FC
:100DA000202059490855601CC4B2082CF8DB0020EB
:100DB000564908709EE05948007830BB4F4800887B
:100DC000282842DB082500240BE0AC4204DA54A0BA
:100DD000005D4D49085502E020204B490855601C34
:100DE000C4B2082CF1DB002048490870FF204549B7
:100DF000087000220121182001F040FB00203F492B
:100E000008800120454908701FE03C48008896286A
:100E10001BDB002039490880062039490870002072
:100E20003E49087037490870FF220121182001F05F
:100E300025FB002404E0202033490855601CC4B27F
:100E4000082CF8DB00203149087053E04BE0FFE745
:100E50003648007830BB29480088282842DB08251E
:100E600000240BE0AC4204DA31A0005D26490855AD
:100E700002E0202024490855601CC4B2082CF1DB94
:100E8000002022490870FF201E490870002201211D
:100E9000182001F0F3FA00201849088001202349A6
:100EA00008701FE015480088C8281BDB0020134984
:100EB000088007201249087000201C49087000248F
:100EC00004E0202010490855601CC4B2082CF8DB4F
:100ED00000200E4908700B490870FF2201211820DC
:100EE00001F0CCFA06E005480088282801DB012043
:100EF00070BD00BF00BF0020FAE70000A80000207E
:100F0000A70000208D0000203700002036000020C0
:100F1000333139313037323700000000AA00002069
:100F20004355494A4E544E4700000000AB00002094
:100F300020312E302E3020200000000010B500207F
:100F40001D4908701D4908701D4908701D49087029
:100F50001D4802F0B5FC00BF1B4802F0C5FC00288C
:100F6000FAD01A4802F0ACFC00BF184802F0BCFCF2
:100F70000028FAD00821164801F007FA00220821BB
:100F8000134801F03AFA2221124802F0B7FD41F26B
:100F90008732FF210F4802F0F6FD40F6C312FF2111
:100FA0000C4802F0F9FD01210A4802F0E8FD232077
:100FB00001F0EAFA10BD0000060000200700002042
:100FC0000800002009000020000400F0050800F0DF
:100FD000005002400000034010B500200549087091
:100FE000FF21054802F0BAFD00220821034801F064
:100FF00004FA10BD0600002000000340005002402B
:1010000010B5012003490870FF21034802F0AEFD2E
:1010100010BD0000060000200000034010B5154878
:10102000007810B9FFF7D8FF10BD13480078401CB6
:101030001149087011480078401C10490870084692
:101040000078B0F57A7F04DBFFF7D6FD00F02CF8CE
:10105000EAE709480078282190FBF1F201FB120031
:10106000142802DAFFF7CCFF01E0FFF7B5FF00BF5D
:10107000DAE7000007000020080000200900002037
:1010800001200549087000200449087004490870CF
:101090000449087070470000070000200800002085
:1010A000090000200600002010B500200449087047
:1010B0000449087004490870FFF78EFF10BD000056
:1010C000070000200800002009000020F0B50446B9
:1010D0000B461546022B03DC03F10C06621E01E0F1
:1010E0001E4622462946771C07EB870C0CEBC707E8
:1010F0004FF0050C97FBFCF7394411444FEAE27CB2
:1011000002EB9C7C01EBAC01491DA1F1280739B22F
:10111000072791FBF7FC07FB1C11002901DACF1D03
:1011200039B2C8B2F0BD000070B506460C46012CBD
:1011300001DB0C2C01DD1E2070BD601E05490D5C1D
:10114000022C04D1304600F023F800B11D252846BA
:10115000F2E70000F64000002DE9F04704460D4696
:1011600016461F46DDE908890848047045708670F8
:10117000C77080F8048080F80590324629462046E2
:10118000FFF7A4FF01498871BDE8F0870A0000203D
:10119000024602F5FA614FF4C87091FBF0F300FBD0
:1011A000131008B901207047642091FBF0F300FB95
:1011B000131008B90020F6E7CB1701EB93739B10CF
:1011C000A1EB83030BB90120EDE70020EBE7000062
:1011D00010B52D484079401C2B494871084640798C
:1011E0003C2800DA10BD00202749487108460079E4
:1011F000401C0871084600793C2800DAF2E700201C
:10120000214908710846C078401CC8700846C0785B
:10121000182800DAE6E700201B49C87008468079E4
:10122000401C887108468079062801DD00208871FD
:1012300015488078401C144988700A465178107807
:10124000FFF772FF10498978884200DBCAE7012066
:101250000D49887008464078401C48700846407820
:101260000C2800DCBEE701200749487008460078DA
:10127000401C0870087801221146FFF727FF024939
:10128000887100BFAEE700000A0000201CB50C48C2
:10129000007968B10A48C07809498978CDE9001019
:1012A00007484378027807A10C48FFF7B9F803E034
:1012B0000BA10A48FFF7B4F8084802F085F81CBDF6
:1012C000000000204F4B20253032642E2530326440
:1012D0002E253032642025640D0A000054060020BB
:1012E0004F4B204F46460D0A0000000038B50A4813
:1012F0000078642190FBF1F201FB1204064880782B
:10130000009005484378224604A10948FFF788F871
:10131000074802F059F838BD0A0000204F4B20253D
:101320003032642E253032642E253032640D0A00AE
:101330005406002010B50848007828B1074A08A1D3
:101340000948FFF76DF803E008A10748FFF768F8C0
:10135000054802F039F810BD3400002012000020CA
:101360004F4B2025730D0A00540600204F4B204F91
:1013700046460D0A0000000010B506480078012816
:1013800003D105A002F020F802E006A002F01CF84C
:1013900010BD0000330000204F4B205249474854F5
:1013A0000D0A00004F4B204C4546540D0A0000002A
:1013B00008B507484079009005480379C27805A12F
:1013C0000948FFF72DF8084801F0FEFF08BD0000AE
:1013D0000A0000204F4B20253032642E2530326425
:1013E0002E253032640D0A005406002010B5054841
:1013F000026805A10748FFF713F8064801F0E4FF6B
:1014000010BD0000A00000202A504F4E4720256C40
:10141000750D0A005406002010B502A001F0D4FF9B
:1014200010BD00004F4B0D0A000000002DE9F843ED
:1014300005460027009557E034A1404601F030FDF5
:1014400050B10020324908714871FFF72DFE31A0DC
:1014500001F0BAFFBDE8F883684601F065FD064675
:101460001EB92EA001F0B0FFF4E73046FFF768F98F
:10147000C4B22CA1404601F013FD60B1172C03DD6E
:1014800026A001F0A1FFE5E72148047001202049D2
:101490000871012727E025A1404601F001FD60B158
:1014A0003B2C03DD1DA001F08FFFD3E718484470EB
:1014B000012017490871012715E01EA1404601F0DF
:1014C000EFFC60B13B2C03DD14A001F07DFFC1E710
:1014D0000F48847001200E490871012703E00FA016
:1014E00001F072FFB6E700BF684601F01DFDB0F1E4
:1014F0000008A1D12FB10649487106A001F064FF90
:1015000002E006A001F060FF00BFA3E74F464600DF
:10151000000000204F4B0D0A000000004552524FC2
:10152000520D0A00484F5552000000004D494E75BB
:10153000746500005345436F6E64000031B5684622
:1015400001F0F2FC05461DB90EA001F03DFF38BDCB
:101550002846FFF7F5F804460A2C03D341F28830F9
:10156000844203D907A001F02FFFF0E7FFF748FD01
:101570000A20B4FBF0F00549088005A001F024FF23
:1015800000BFE4E74552524F520D0A00A40000206C
:101590004F4B0D0A000000002DE9FE4305463D4873
:1015A000016800918188ADF8041080798DF80600FB
:1015B0000027029543E002A801F0B6FC064626B9D2
:1015C00035A001F001FFBDE8FE833046FFF7B8F813
:1015D000C4B233A1404601F063FC48B1632C03DD83
:1015E0002DA001F0F1FEEEE78DF80040012725E087
:1015F0002DA1404601F054FC58B1012C01DB0C2C0C
:1016000003DD25A001F0E0FEDDE78DF801400127B4
:1016100014E027A1404601F043FC58B1012C01DB46
:101620001F2C03DD1CA001F0CFFECCE78DF802409B
:10163000012703E018A001F0C7FEC4E700BF02A81D
:1016400001F072FCB0F10008B5D1F7B19DF80110BE
:101650009DF80000FFF768FD9DF80210884207DA48
:101660009DF801109DF80000FFF75EFD8DF8020067
:10167000084800990160BDF8041081809DF80610AB
:1016800081710DA001F0A0FE02E003A001F09CFE1C
:1016900000BF98E70A0000204552524F520D0A0041
:1016A00059454152000000004D4F4E544800000083
:1016B00044415445000000004F4B0D0A000000005B
:1016C00031B5684601F030FC04461CB926A001F093
:1016D0007BFE38BD26A1204601F0E2FB30B101209F
:1016E0002449087024A001F06FFE3BE024A12046AD
:1016F00001F0D6FB30B100201E4908701EA001F099
:1017000063FE2FE01FA1204601F0CAFB48B1002074
:101710001E4908701E4800F04FFB17A001F054FE50
:1017200020E01CA1204601F0BBFB48B10120174975
:101730000870174800F040FB0FA001F045FE11E0D3
:1017400016A1204601F0ACFB48B102200F490870F9
:101750000F4800F031FB08A001F036FE02E002A0C5
:1017600001F032FE00BFB4E74552524F520D0A005D
:101770004F4E0000340000204F4B0D0A00000000C7
:101780004F46460054494D450000000032000020FD
:101790000A000020444154450000000059454152D0
:1017A0000000000031B5684601F0BEFB04461CB9DC
:1017B00010A001F009FE38BD10A1204601F070FB19
:1017C00030B1002000F0CEFA0EA001F0FDFD0EE0D9
:1017D0000EA1204601F064FB30B1012000F0C2FAF6
:1017E00008A001F0F1FD02E002A001F0EDFD00BF54
:1017F000E1E700004552524F520D0A004C45465455
:10180000000000004F4B0D0A0000000052494748FD
:1018100054000000F1B5684601F086FB05461DB98D
:101820000FA001F0D1FDF8BD002411E0204601F029
:101830008FF806463146284601F032FB30B120468B
:1018400001F098FA08A001F0BFFDECE7601CC4B2FB
:101850000A2CEBDB02A001F0B7FD00BFE3E70000BC
:101860004552524F520D0A004F4B0D0A0000000026
:1018700011B581B001A801F057FB04461CB90BA0BB
:1018800001F0A2FD1CBD6946204601F06CFB18B9B1
:1018900006A001F099FDF5E79DF8000005490870E4
:1018A00005A001F091FD00BFECE700004552524F4A
:1018B000520D0A008D0000204F4B0D0A0000000061
:1018C00031B5684601F030FB04461CB917A001F0A1
:1018D0007BFD38BD17A1204601F0E2FA68B1002077
:1018E00000F064FA0121072001F090FA002000F0D6
:1018F000EFFB11A001F068FD15E011A1204601F0F9
:10190000CFFA68B1012000F051FA0021072001F060
:101910007DFA012000F0DCFB07A001F055FD02E09C
:1019200002A001F051FD00BFD3E700004552524F25
:10193000520D0A00444159004F4B0D0A00000000AF
:101940004E4947485400000070B50546284601F04E
:101950003BFE04460CB1207818B90AA001F034FD12
:1019600070BD2046FEF73CFF202803D905A001F0FA
:101970002BFDF5E7204600F0D1F904A001F024FD8D
:1019800000BFEDE74552524F520D0A004F4B0D0A72
:10199000000000002DE9F8430546002700953FE0D0
:1019A000684601F0C1FA064626B925A001F00CFDF3
:1019B000BDE8F8833046FEF7C3FEC4B222A140461C
:1019C00001F06EFA48B1172C03DD1DA001F0FCFCFC
:1019D000EEE71F48C470012721E01EA1404601F038
:1019E0005FFA48B13B2C03DD15A001F0EDFCDFE709
:1019F00017480471012712E018A1404601F050FA7F
:101A000048B13B2C03DD0EA001F0DEFCD0E710480E
:101A10004471012703E00AA001F0D6FCC8E700BF2B
:101A2000684601F081FAB0F10008B9D11FB10DA0EC
:101A300001F0CAFC02E002A001F0C6FC00BFB7E75B
:101A40004552524F520D0A00484F555200000000B7
:101A50000A0000204D494E75746500005345436FE0
:101A60006E6400004F4B0D0A000000002DE9FE439C
:101A70002F48FEF7B5FEC6B24FF00008002426E05E
:101A80002C480088204405B22B48007803280BD14D
:101A9000002E09DD01E0A81B05B2B542FBDA01E02A
:101AA000A81905B2002DFBDB002D0BDBB54209DACE
:101AB000002E07DD1E48405D0DF80400601C00F09C
:101AC000FF0802E020200DF80400601C04B20C2C7A
:101AD000D6DB002700241BE01DF804002E2815D1BA
:101AE000002C04DD601E01218140C8B20743E0B232
:101AF00006E0411C1DF801100DF80010411CC8B291
:101B00000B28F6DB20218DF80B1000BF601C04B2FF
:101B10004445E1DB002405E01DF8040007490855B1
:101B2000601C04B2082CF7DB05480770BDE8FE8393
:101B3000120000204000002032000020370000206A
:101B40003600002010B515480078032800D010BDDD
:101B50001348FEF745FE04B2082C00DCF7E71148F5
:101B60000088114991F90010084400B20D4908801D
:101B70000846B0F90000A04202DB0020088008E01F
:101B80000848B0F90000002803DA601E00B20549D9
:101B90000880FFF76BFF00BFD9E70000320000208C
:101BA00012000020400000204200002001463029A1
:101BB00006DB392904DCA1F13000134A105C7047C0
:101BC000412906DB5A2904DCA1F141000F4A105CCF
:101BD000F5E7612906DB7A2904DCA1F161000B4AF3
:101BE000105CECE72E2901D18020E8E72D2901D1F6
:101BF0004020E4E75F2901D10820E0E73D2901D139
:101C00004820DCE70020DAE7024100000C41000038
:101C100010B500220621222000F030FC0022052110
:101C2000222000F02BFC002404E02020114908555C
:101C3000601CC4B2082CF8DB00200F4908700F4963
:101C400008700F49087001200E49087000200E49E5
:101C500008700E49088001200D49087000200D49C8
:101C6000087032200C49088000200C4908800C497B
:101C7000087010BD37000020360000203200002020
:101C800033000020340000203500002040000020F8
:101C900042000020430000204400002046000020B5
:101CA000120000202DE9F0410446082C01DBBDE8BC
:101CB000F08100220621222000F0E0FB134800788A
:101CC00000B9F4E712480078012802D1042C00DBA7
:101CD000EDE71048075D3846FFF768FF054601202D
:101CE000A0400D490978084008B145F080052A4612
:101CF0000521222000F0C2FB0120A040C6B23246DE
:101D00000621222000F0BAFB00BFD0E734000020FB
:101D100035000020370000203600002070B5064650
:101D20003046FEF75DFDC5B2202D00DB1F250024E7
:101D300004E0305D08490855601CC4B2AC42F8DBD1
:101D400000200549485505490880032004490870CA
:101D5000FFF78CFE70BD0000120000204000002044
:101D60003200002010B504460CB1012C08D1064801
:101D700004700CB9012001E04FF0FF3003490870F6
:101D8000FFF774FE10BD0000330000204200002069
:101D900010B50446032C01DC02480470024800F030
:101DA0000BF810BD320000200A0000200149087025
:101DB000704700003500002070B58AB004462848FE
:101DC000007840B9607900902379E27825A102A8D3
:101DD000FEF726FB25E02248007801280ED1207866
:101DE000642190FBF1F201FB1206A0780090637869
:101DF00032461CA102A8FEF713FB12E01848007837
:101E000002280AD1A07800906378207800F5FA6261
:101E100018A102A8FEF704FB03E0FFF727FE0AB0B3
:101E200070BD002510E002A8FEF7DAFCC0B2A8429F
:101E300004DD02A8405D1349485503E00020114924
:101E4000485503E0681CC5B2202DECDB00BF002024
:101E50000C49C8770C490880FFF708FE00BFDEE791
:101E600032000020253032642E253032642E253099
:101E700032640000253034642E253032642530323F
:101E8000640000001200002040000020F0B585B082
:101E900004460D4616461F463946304600F0BCF84B
:101EA000284600F0FFF8607900902379E27803A1DA
:101EB00001A8FEF7B5FA05B0F0BD00002530326488
:101EC0003A253032643A25303264000070B5054658
:101ED00024480078102801DB002070BD2846FEF75A
:101EE0007FFCC4B2402C00DB3F2400200AE0295CC8
:101EF0001D4A127802EB42121C4B03EB42021154B2
:101F0000411CC8B2A042F2DB0021174A127802EB52
:101F10004212164B03EB420211551348007800EBB6
:101F20004010194601EB400080F8404001200E4966
:101F3000097801EB41111A4602EB410181F8410099
:101F400009480078401C08490870084600781028A5
:101F500001DB0020087003480078401C014908702C
:101F60000120BAE74A00002048000020B800002005
:101F700003480078002801DD012070470020FCE7BD
:101F80004A000020002013E0002100EB40120E4B1D
:101F900003F8121000EB401203EB420282F84010EB
:101FA00000EB401203EB420282F84110411CC8B220
:101FB0001028E9DB0021054A1170054A1170054A15
:101FC0001170054A11807047B800002048000020B9
:101FD000490000204A0000204C00002010B50446B3
:101FE0001CB104A0FFF772FF02E006A0FFF76EFF2E
:101FF00010BD00002A4556543A414C41524D0D0A3D
:10200000000000002A4556543A414C41524D204FA1
:1020100046460D0A0000000070B594B005460E4615
:1020200000240BE02DB1285D18B1285D01A90855E9
:1020300002E0202001A90855601CC4B2082CF1DB85
:1020400000208DF80C00334601AA04A104A8FEF775
:10205000E7F904A8FFF73AFF14B070BD2A455654BB
:102060003A4449535020257320253032580D0A0038
:1020700030B591B00446204600F06AFC05462A4679
:1020800004A101A8FEF7CCF901A8FFF71FFF11B0CA
:1020900030BD00002A4556543A4B45592025730D52
:1020A0000A00000010B590B00446224604A168461C
:1020B000FEF7B6F96846FFF709FF10B010BD000043
:1020C0002A4556543A4C454420253032580D0A00D2
:1020D00010B50446012C03D103A0FFF7F7FE02E080
:1020E00006A0FFF7F3FE10BD2A4556543A4D4F4463
:1020F00045204E494748540D0A0000002A455654D1
:102100003A4D4F4445204441590D0A0070B52948C5
:102110000088401C2749088008460088052800DA06
:1021200070BD0020234908802348007800B9F7E7F4
:102130002248007800EB4010214901EB400090F864
:10214000410010B9FFF71EFFEAE71C48007800EBDA
:1021500040101B4901EB4005002404E0285D01F01C
:1021600041FD601CC4B21548007800EB40101449D2
:1021700001EB400090F84000A042EFDC00200F4946
:10218000097801EB41110E4A02EB410181F841004F
:102190000A480078401C0949087008460078102851
:1021A00001DB0020087004480078401E02490870D6
:1021B00000BFB5E74C0000204A0000204900002085
:1021C000B8000020D0F8003412F0010F14BF0B4308
:1021D0008B43C0F8003412F0020FD0F8202414BF53
:1021E000114322EA0101C0F8201470472DE9F003E1
:1021F00001264FF0000C0325C2F3411706FA0CF438
:102200000C4211D0D0F8C48F4FEA4C0405FA04F9FF
:1022100028EA0908C0F8C48FD0F8C48F07FA04F47C
:1022200048EA0404C0F8C44F0CF1010C0CF0FF0C98
:10223000BCF1080FE2D3D0F800C512F0010F14BFB3
:102240004CEA010C2CEA010CC0F800C5D0F804C51A
:1022500012F0020F14BF4CEA010C2CEA010CC0F87A
:1022600004C5D0F808C512F0040F14BF4CEA010CE5
:102270002CEA010CC0F808C5D0F818C512F0080FF8
:1022800014BF4CEA010C2CEA010CC0F818C512F07E
:10229000100FD0F83C2514BF0A438A43C0F83C25F0
:1022A000D0F80C2513F0010F14BF0A438A43C0F87D
:1022B0000C25D0F8102513F0020F14BF0A438A43EF
:1022C000C0F81025D0F8142513F0040F14BF0A43EA
:1022D0008A43C0F81425D0F81C2513F0080F14BF4A
:1022E0000A438A43C0F81C25D0F8442513F4007F24
:1022F00014BF0A438A43C0F84425D0F8402513F49C
:10230000407F14BF0A438A43C0F84025D0F82825EF
:10231000002B0CBF114322EA0101C0F82815BDE8CB
:10232000F00370470E4AC0F30741D26E01238B4081
:102330001A420C4A1ABF02EBC101496852F8311027
:10234000020AD1F82C354FF00F0C0CFA02FC00F009
:102350000F0023EA0C0390401843C1F82C05704786
:1023600000E00F40C042000050F82100704730B537
:102370000C4605460022FFF725FF21462846BDE80A
:10238000304008230122FFF731BF30B50C46054627
:1023900008230122FFF72AFF21462846BDE83040E6
:1023A0000122FFF70FBF30B50C4605460222FFF7AA
:1023B00009FF21462846BDE8304009230122FFF7E6
:1023C00015BF30B50C4605460222FFF7FBFE21463D
:1023D0002846BDE8304008230122FFF707BF30B58B
:1023E0000C4605460222FFF7EDFE21462846BDE8D1
:1023F000304008230122FFF7F9BE40F82120704742
:1024000070B504460E4600BF1B4800F071F8002866
:10241000FAD100222146184800F0B2F83146164899
:1024200000F070F80321144800F068F800BF12486B
:1024300000F05EF80028FAD1012221460E4800F093
:102440009FF80B210C4800F059F800BF0A4800F033
:102450004FF80028FAD1084800F052F8C5B205211B
:10246000054800F04BF800BF034800F041F8002891
:10247000FAD1284670BD0000000002402DE9F0416D
:1024800004460F46154600BF184800F031F80028F2
:10249000FAD100222146154800F072F83946134857
:1024A00000F030F80321114800F028F800BF0F4871
:1024B00000F01EF80028FAD10C4800F02AF8C6B245
:1024C00029460A4800F01EF80521084800F016F8D1
:1024D00000BF064800F00CF80028FAD1034800F0CD
:1024E00018F8C6B23046BDE8F08100000000024096
:1024F000406810F0010018BF01207047416070472C
:102500008068704781607047016A41F01001016284
:102510007047406810F0010F05D110F0120F1CBF7A
:1025200000F01C007047002070470000036A43F071
:1025300010030362002A14BF0E4A0F4A02EB820303
:1025400001EB830302EB820292005B1EB3FBF2F20B
:10255000521EC260D0F8C02F12F0010F08BF7047A2
:10256000064A1144521CB1FBF2F1491E41F08001B0
:10257000C1607047801A0600A08601007F473701BE
:1025800042EA4101016070471649042804BF086807
:1025900040F4803018D0052804BF086840F40030AB
:1025A00012D0062812D00F2815D0102838BF704737
:1025B000103800F01F01012202FA01F142090A4815
:1025C00050F822000160704708607047086840F4C6
:1025D0008020086070474FF0E020016941F002015F
:1025E0000161704724ED00E00C44000010B5FDF7D8
:1025F00074FE002818BF012010BD000010B5FEF7C2
:10260000F5FA10B1FEF7F8FA10BD0D48007818B9C8
:10261000012000F083F811E009480078012803D177
:10262000022000F07BF809E005480078022803D179
:10263000032000F073F801E000F08AF800BFE3E740
:102640007900002070B504460D462E48007818B178
:102650004FF4FA702C4908800A2C50D2DFE804F0BD
:102660000511171D2530414C4D4E3DB125480078D0
:1026700030B100F09FFA00F06BF801E0FFF7BEFF09
:102680003EE02048007808B100F038FA38E01D48F4
:10269000007808B100F06CF932E01A48007818B1FF
:1026A00000F088FA00F054F82AE018480078401C3E
:1026B000C6B2022E00DD00263046FFF769FB1FE0A0
:1026C0001348007830B90120114908700A201149D7
:1026D000088005E000200E49087032200D4908806E
:1026E0000EE00D48007818B90120FFF73BFB02E02F
:1026F0000020FFF737FB03E000BF00BF00E000BF92
:1027000000BF70BD790000207C0000203200002056
:1027100043000020440000203300002010B5044690
:10272000074804700020074908704FF4FA70064902
:10273000088000200549087000F0B0F910BD0000C5
:10274000790000207A0000207C0000207E0000201C
:1027500000200449087004490870044908800449AD
:1027600008707047790000207A0000207C0000206B
:102770007E000020F8B504460E461B48007801286C
:1027800011D11A480078642190FBF1F201FB120587
:10279000164880780090154843782A4614A12046B0
:1027A000FDF73EFE1FE01048007802280AD10F48CE
:1027B000407900900D480379C2780DA12046FDF7BD
:1027C0002FFE10E00848007803280AD10C488078D2
:1027D00000900B484378027805A12046FDF720FEC3
:1027E00001E000202070F8BD790000207F0000206B
:1027F000253032642E253032642E253032640000BC
:102800008600002001480078704700007900002011
:1028100070B506460D4600241FE01248005DD0B199
:1028200034701048005D022801D1012000E0002032
:10283000287029782046FFF705FF00200949085530
:1028400009480078002804DD07480078401E064942
:102850000870012070BD601CC4B20A2CDDDB0020B2
:10286000F8E700000A0500207800002010B5254890
:102870000078012814D12448007808B9632010BDDD
:1028800021480078012801D10C20F8E71E48007883
:10289000022835D11D4A51781078FEF745FCEEE745
:1028A00018480078022810D11748007808B9172076
:1028B000E5E715480078012801D13B20DFE7124801
:1028C000007802281CD13B20D9E70E480078032865
:1028D00016D10D48007808B91720D0E70A480078CB
:1028E000012801D13B20CAE707480078022801D11E
:1028F0003B20C4E704480078032801D11F20BEE72D
:102900003B20BCE7790000207A0000207F000020F7
:102910000D48007801280AD10C480078012800D120
:1029200070470A480078022801D10120F8E70648DC
:102930000078032805D105480078032801D100203C
:10294000EEE70020ECE70000790000207A0000208C
:1029500001460A2903DA034850F82100704702A013
:10296000FCE7000050000020554E4B4E4F574E00E4
:1029700070B5FFF77BFF0546FFF7CAFF0646002448
:1029800028480078012803D026480078022826D15C
:1029900024480078012810D12348007800B9234C3E
:1029A00021480078012801D1204C641C1E48007881
:1029B00002282ED11D4CA41C2BE01B48007808B91E
:1029C0001A4CE41C18480078012801D1174C241D2A
:1029D0001548007802281CD1144C641D19E01148D8
:1029E0000078032815D11048007800B9104C0E4823
:1029F0000078012801D10E4C641C0B480078022895
:102A000001D10B4CA41C08480078032801D1084CC4
:102A1000E41C34B12078401C20702078A84200DDEE
:102A2000267070BD790000207A0000207F00002011
:102A30008600002000200EE001210E4A11540E4AAB
:102A4000115400210D4A11540D4A22F810100D4A5C
:102A50001154411CC8B20A28EEDB00210A4A117049
:102A60000A4A11700A4A11700A4A11800A4A117002
:102A700070470000D8040020E2040020EC0400208D
:102A8000F60400200A0500207800002079000020CC
:102A90007A0000207C0000207E0000201248007890
:102AA000012808D1114812490A6802608A88828088
:102AB0008979817116E00C480078022808D10B4909
:102AC0000B4802680A6082888A808079887109E0F0
:102AD00005480078032805D1064807490A680260BE
:102AE0008988818070470000790000207F000020E5
:102AF0000A00002086000020000000200F4909780D
:102B0000012901D103200CE00C490978022901D1E7
:102B1000032006E009490978032901D1042000E0D7
:102B2000704707490978491C054A11701146097810
:102B3000814201DB0021117000BFF1E77900002024
:102B40007A00002070B501211848FFF70DFC08B18C
:102B5000012000E000201649087202211348FFF707
:102B600003FC08B1012000E0002011494872002157
:102B70002220FFF745FC0446254604F001000C49DD
:102B80000870C4F340004870C4F380008870C4F338
:102B9000C000C870C4F300100871C4F3401048713D
:102BA000C4F380108871E009C87170BD00D0034083
:102BB000D804002010480078012803D00E4800787F
:102BC00002280BD10D480E490A6802608A8882806B
:102BD000897981710020094988710CE006480078E4
:102BE000032808D1074808490A680260898881805B
:102BF0000120044908717047790000200A00002074
:102C00007F000020000000208600002070B5FFF744
:102C100099FF002472E04D48055D4D48065DB542C0
:102C20002CD04C48005D032805DA4A48005D401C62
:102C30004849085560E04648055500204549085573
:102C40001DB9454921F8140056E0434830F81400F6
:102C500050280EDA4148005D58B9414800780A28EA
:102C600007DA01203D4908553D480078401C3C49A1
:102C700008700020384921F814003DE0BDBB3648FB
:102C800030F81400401C344921F81400084630F88C
:102C9000140050280ED13148005D58B930480078F2
:102CA0000A2807DA02202D4908552D480078401CD3
:102CB0002B490870022C16D1274830F814005028F0
:102CC00011DD254830F814000A2190FBF1F201FBD8
:102CD000120040B92348007828B1FFF749FE4FF4AD
:102CE000FA702149088000201A49085504E0FFE7DE
:102CF0000020194921F81400601CC4B20A2C8ADB98
:102D00001848007800B318480088002809DD1648E4
:102D10000088401E144908800846008808B9FFF75B
:102D200017FD12480078401C1049087008460078CA
:102D3000322809DB002008700D48007808B901200E
:102D400000E000200A49087070BD0000D80400208F
:102D5000E2040020EC040020F60400200A05002014
:102D600078000020790000207C0000208C000020EA
:102D70007E00002010B504460A2C03DA002120460C
:102D8000FFF760FC10BD00000C48007808B9012076
:102D900000E00020094908700846007830B1084872
:102DA000007840F001000649087005E0044800780A
:102DB00000F0FE00024908707047000090000020FB
:102DC0008D00002010B500200649087006490870E3
:102DD0000649087006490870FF2201211820FFF7F4
:102DE0004DFB10BD8D0000208E0000208F000020C4
:102DF0009000002000B50121042000F007F8142005
:102E00000149087000BD00008E000020072800DD89
:102E1000704741B101228240D2B2074B1B781A435E
:102E2000054B1A7006E001228240034B1B78934346
:102E3000014A137000BFEBE78D00002000B50121AF
:102E40000520FFF7E3FF14200149087000BD0000D2
:102E50008F00002000B51048007800280BDD0E48D8
:102E60000078401E0C4908700846007818B9002107
:102E70000420FFF7CBFF0948007800280BDD074846
:102E80000078401E054908700846007818B90021EE
:102E90000520FFF7BBFF00BD8E0000208F00002043
:102EA0002DE9F05F81460D464846FDF799FC00F09C
:102EB000FF082846FDF794FC00F0FF0A4FF0000BD6
:102EC00000240BE0285D412806DB285D5A2803DC3E
:102ED0000BF1010000F0FF0B601CC4B25445F1DBA4
:102EE000D84501DBD04502DD0020BDE8F09F00247D
:102EF00016E019F804602F5D612E04DB7A2E02DCE7
:102F0000A6F12000C6B2612F04DB7A2F02DCA7F104
:102F10002000C7B2BE4201D00020E6E7601CC4B268
:102F20004445E6DB0120E0E770B50546286800F07F
:102F30004BFB0446207808B9002070BD264600E00F
:102F4000641C207828B12078202802D02078092815
:102F5000F6D1207820B100202070601C286000E0AD
:102F60002C603046E9E72DE9F843054688462846B7
:102F7000FDF736FCC7B20FB1022F02DD0020BDE81D
:102F8000F883002415E0285D302802DB285D39280D
:102F90000DDD285D412802DB285D462807DD285D20
:102FA000612802DB285D662801DD0020E7E7601C60
:102FB000C4B2BC42E7DB102269462846FDF7CDFBD0
:102FC00006460098007808B10020D8E7FF2E01D906
:102FD0000020D4E788F800600120D0E770B50546EE
:102FE0000D480088401C84B2FF2C00DD00240B48F3
:102FF0000088844203D101200949087070BD094846
:1030000005490988455404480480FFF7F3FE044845
:10301000067800BFF2E70000AC000020AE00002000
:10302000B000002014050020002004E000210A4A1E
:103030001154411C88B2FF28F8DD0021074A118095
:10304000074A1180074A1170074A1170074A117028
:10305000074A11707047000014050020AC000020E2
:10306000AE000020B0000020B100002014060020B7
:10307000540600202DE9F84F05462846FDF7B0FB21
:10308000441E10E0285D0D2808D0285D0A2805D0D0
:10309000285D202802D0285D092803D1002028556A
:1030A000641E00E001E0002CECDA00BF00950098FF
:1030B00000782A2804D06FA000F086F9BDE8F88FC8
:1030C0000098401C00906846FFF72EFF07461FB986
:1030D00068A000F079F9F1E768A13846FFF7E0FE53
:1030E00010B1FEF799F9E9E765A13846FFF7D8FE78
:1030F00010B1FEF77BF9E1E73A213846FDF766FBB0
:103100008146B9F1000F07D0002089F8000009F1CD
:103110000106DDF800800EE06846FFF705FF064671
:1031200016B130783A2803D052A000F04DF9C5E727
:10313000761CDDF8008054A13846FFF7B1FE044646
:1031400052A13846FFF7ACFE824614B9BAF1000F1F
:1031500074D04FA13046FFF7A3FE38B11CB14046F2
:10316000FEF71AFA80E0FEF7C1F87DE04AA130468A
:10317000FFF796FE38B11CB14046FEF70BFC73E03A
:10318000FEF716F970E046A13046FFF789FE38B128
:103190001CB14046FEF74AF966E0FEF777F863E0B7
:1031A00041A13046FFF77CFE38B11CB14046FEF726
:1031B00087FA59E0FEF7BEF856E03DA13046FFF72A
:1031C0006FFE38B11CB14046FEF7ECFA4CE0FEF75A
:1031D000D3F849E038A13046FFF762FE40B11CB198
:1031E0004046FEF7B1FB3FE022A000F0EDF83BE0E7
:1031F00032A13046FFF754FE40B11CB14046FEF705
:103200009DF931E01BA000F0DFF82DE02DA1304644
:10321000FFF746FE40B11CB14046FEF729FB23E014
:1032200014A000F0D1F81FE027A13046FFF738FEC8
:1032300048B124B14046FEF7EDFA15E015E00DA0C7
:1032400000F0C2F810E021A13046FFF729FE40B19E
:103250001CB14046FEF734FB06E006A000F0B4F8CF
:1032600002E004A000F0B0F828E702A000F0ACF8FB
:1032700000BF23E74552524F520D0A0052535400EB
:1032800050494E4700000000534554004745540044
:10329000444154450000000054494D4500000000E1
:1032A000414C41524D000000444953506C6179003B
:1032B000464F524D415400004D5347004245455042
:1032C000000000004C4544004B4559004D4F44451B
:1032D0000000000010B53448007860B133A000F061
:1032E00073F800203049087032490880324908805C
:1032F0003249087010BD4EE031482F490988445CBE
:103300002D480088401C2C49088008460088FF286A
:1033100001DD002008800D2C01D00A2C27D10D2CB6
:1033200016D12548008823490988884210D02448AE
:1033300021490988405C0A280AD11F480088401C9E
:103340001D49088008460088FF2801DD002008800C
:103350001A48007800281EDD00201A49174A127802
:103360008854164908701748FFF784FE13E0134885
:1033700000783F2809DA13481049097844540F4867
:103380000078401C0D49087005E000200B490870CA
:1033900006A000F019F80848008806490988884204
:1033A000AAD100BFA6E70000B00000204552524F4E
:1033B000520D0A00AC000020AE000020B100002039
:1033C00014050020140600202DE9F04FA1B081461D
:1033D0004846FDF705FAC5B2802D00D37F250024AD
:1033E00005E019F8040001A90855601CC4B2AC42FC
:1033F000F7DB002001A948551E480078012829D193
:10340000032D27DD9DF804004F2823D19DF80500EA
:103410004B281FD19DF8060020281BD1CF1C384611
:10342000FDF7DEF900F0FF0800260DE017F806A012
:10343000A8F10100801B385CB855A8F10100801B81
:1034400007F800A0701CC6B208EBD871B6EB610F8C
:10345000ECDB00BF002405E001A9085D00F0C2FB21
:10346000601CC4B2AC42F7DBFFF7E8FCAB4621B00E
:10347000BDE8F08F3300002010B50A4800F020FAB4
:1034800000BF084800F030FA0028FAD003210648AF
:10349000FEF76DFF0A23012203210348FEF7A6FE73
:1034A00010BD0000080800F000D0034010B524480B
:1034B00000F006FA234800F003FA00BF214800F0AC
:1034C00013FA0028FAD02048FEF72CFF1F48FEF719
:1034D00029FF04211E48FEF774FF08211C48FEF74F
:1034E00062FF01221B4801681B48FFF71FF81A48BA
:1034F000FFF70AF8FF220C212220FEF7BFFF044647
:1035000000220D212220FEF7B9FF044300220E21E4
:103510002220FEF7B3FF0443FF2246212220FEF7BC
:10352000ADFF0443002203211820FEF7A7FF044348
:10353000FF2201211820FEF7A1FF044310BD000067
:10354000002000F0010800F002080100020C010058
:1035500000500040940000200000024010B51648C2
:1035600000F0AEF9154800F0ABF900BF134800F0C9
:10357000BBF90028FAD00120FEF7D4FE40F201404A
:10358000FEF7D0FE03214FF04020FEF728FF602316
:103590004FF4E1320A4801680A4800F040FB00227B
:1035A0000121084800F072FB1520FEF7EDFF5021C5
:1035B000044800F070FB10BD001800F0000800F097
:1035C0009400002000C0004000E0401C0178202949
:1035D000FBD001780929F8D0704700002DE9F003ED
:1035E000AD4D02462868AD4B1840A0F18053B3F5AD
:1035F000A02358D002F03809DFF8A482C2F3841463
:10360000B9F1100F24D0B9F1300F04BF47F2305098
:103610004FF400130CD03820904304BF4FF4004007
:10362000C30105D012F0380F1CBF0020034613D091
:103630009C4F12F4605F4FF0000618BF00222CD0A0
:1036400057F8324044457DD307EBC2025268DFE0B1
:10365000002340461524EBE7A4F10900122822D2EA
:103660009148D5F87CC04FF04C7350F824002CF0F2
:103670001C0C072CA8BF4CF0100CC5F87CC02E6D9C
:103680004FF4002C16F4807FD2D1BCF1010C0AD08B
:103690002E6D16F4807FF8D0CAE712F0380F18BFED
:1036A000B9F1100F03D0BDE8F00300207047C2F35A
:1036B0000268DFF8F8C1002257F83290E14503D3E1
:1036C00007EBC202526803E0521C062AF4D33246CA
:1036D000C5F8C020D5F8B020DFF8D4C102EA0C024A
:1036E00042F00042C5F8B020DFF8C8C1A4F10902D9
:1036F0004C1E5CF828C0A444BCFBF1FCD5F8B0100B
:103700001943C5F8B01008EBC80101EB41046A4940
:1037100002EB420201EBC40101EB82046468C5F8CC
:103720006441D5F864416FF0FF0808EB0C2C44EAC3
:103730000C0CC5F864C151F82210D5F8602102F4D0
:10374000000200E05FE01143C5F86011D5F8601198
:10375000D5F86021C1F38921C2F30904D5F86421A9
:10376000C2F3042202F1010CD5F8642102F01F0219
:10377000521CB0FBF2F04A09C2F100084443424334
:1037800001EB481104EB5212484302EB9020B0FBCE
:10379000FCF041080846002257F832C0844503D3A4
:1037A00007EBC200466802E0521C062AF4D3C5F8B3
:1037B000C060D5F8600110F4000F1DBFD5F8B0004F
:1037C00040F08040C5F8B000D5F8600104BF40F477
:1037D0000000C5F860014FF40040D5F8682112F0F0
:1037E000010F02D1401E0028F7DC002808BF00218D
:1037F00048D0D5F8B000184340F0010040F0104028
:10380000C5F8B0003EE0521C062AFFF419AF32465C
:10381000C5F8C020D5F8602122F40002C5F8602167
:10382000D5F8B020DFF894C002EA0C0242F0004262
:10383000C5F8B020002908BF4FF0000C0AD0B0FB3B
:10384000F1FCBCF1000F18BFACF1010C0CF101014F
:10385000B0FBF1F10846002257F83240844203D30E
:1038600007EBC200466802E0521C062AF4D3C5F8F2
:10387000C060D5F8B00043EA8C22104340F000400D
:10388000C5F8B000D5F8B00020F47000C5F8B0005D
:10389000BDE8F0030846704700E00F400000FF70ED
:1038A0000024F400804600006444000040787D015C
:1038B00000FC0FE05C440000D0440000FF0300EF78
:1038C000C0F307230749C0B2194401F07043C1F3A4
:1038D000130143EA411141EA800040F000700122E7
:1038E0000260704700E60F40C0F307220849C0B2EB
:1038F000114401F07042C1F3130142EA411141EA5F
:10390000800040F000700068002818BF0120704758
:1039100000EA0F404FF0E020016941F0050101612C
:1039200070474FF0E020016941F0020101617047EA
:103930004FF0E021401E4861704700000120194906
:10394000087019480088002805DD17480088401EC7
:103950001549088025E009201349088001201349F2
:10396000087013480078002805DD11480078401ED3
:103970000F49087015E009200D49087001200D4914
:1039800008700D480078002805DD0B480078401EBF
:103990000949087005E00920074908700120074916
:1039A00008707047980000209A00002099000020BD
:1039B0009D0000209C0000209F0000209E00002011
:1039C0000448006840F47000024908600248034956
:1039D0000860704788ED00E00024F400B400002087
:1039E0001CB52B492B48FFF7F9FD2B490860084609
:1039F00000684FF47A71B0FBF1F42046FFF798FFAE
:103A0000FFF788FFFFF78DFF002024490870244945
:103A100008700920234908800020234908700920E4
:103A200022490870002022490870092021490870A5
:103A30000020214908602149088021490870FFF7CA
:103A40001BFDFFF733FDFFF789FDFEF7CFFD0020DB
:103A5000009003460122114601901820FDF77CFBDF
:103A6000FDF7B8F8FEF7D4F8FEF7E4FFFDF766FAC5
:103A7000FFF7A8F9FFF7D8FAFEF784FA012107202B
:103A8000FFF7C4F90F4801790120FFF7BFF91CBD0A
:103A9000002D3101500500F1940000209800002015
:103AA000990000209A0000209C0000209D0000202A
:103AB0009E0000209F000020A0000020A400002005
:103AC000A60000200000002010B50121094800F0E8
:103AD00054F808210848FEF747FC28B100220821C5
:103AE0000548FEF78AFC04E0082211460248FEF76A
:103AF00084FC10BD000003400050024010B4C268B6
:103B000022F0010222F48072C2600A0E0260114AA1
:103B10001268114B02EA030CACF18054CBB2C1F332
:103B20000722B4F5202407D043F40071416042F429
:103B30000071816010BC70474FF4704C0CEA111496
:103B4000234343F4007343600CEA1121114341F411
:103B50000071EEE700E00F400000FF70C26840F225
:103B60000113194022EA0101C1607047C26840F2A6
:103B7000011319401143C160704741627047826967
:103B800011438161704711F0FF0F18BF826211F479
:103B90007F4F18BFC262704711F0FF0F18BF02635A
:103BA00011F47F4F18BF42637047000070B50121C8
:103BB0000B4800F074F805462946094800F069F8FA
:103BC00008E0074800F018F80446002C02DBE0B2D9
:103BD000FFF704FA024800F01DF80028F1D170BD8B
:103BE00000C0004010B504462146024800F00CF821
:103BF00010BD000000C00040816911F0100F0CBF23
:103C000000684FF0FF307047826912F0200FFBD13F
:103C1000016070478069012121EA10107047D0F8D7
:103C200018C01CF0080FFAD1D0F82CC02CF0100CE2
:103C3000C0F82CC0D0F830C02CF0010C2CF4407C23
:103C4000C0F830C0D0F830C0B1EB021F34BF4CF028
:103C5000200C2CF0200CC0F830C038BF5208C9002E
:103C6000B1FBF2F1491C49088A09426201F03F01A7
:103C70008162C36200218161C16A41F01001C162A9
:103C8000016B40F2013211430163704711434163FC
:103C9000704741647047826B11438163704700290C
:103CA00014BF006CC06B70472DE9F04387B04FF034
:103CB0000008C146102103A8FEF75CFD0026002580
:103CC000002715E003A8805D2E2809D1002D04DD12
:103CD000681E01218140C8B20743701CC6B207E0CC
:103CE00003A8805D0DF80500701CC6B2681CC5B243
:103CF00003A8FCF775FDC0B2B04201DD082DE1DB81
:103D000004E020200DF80500681CC5B2082DF8DB82
:103D100000208DF808003E480078002868D03D4813
:103D20000078012816D13C48007818B94FF00008F7
:103D30004FF0020938480078012803D14FF00208FB
:103D40004FF0020934480078022844D14FF00408AB
:103D5000814640E02F480078022816D12E4800788E
:103D600018B94FF000084FF002092B4800780128DD
:103D700003D14FF002084FF00209274800780228CB
:103D800029D14FF00408814625E022480078032815
:103D90001ED12148007818B94FF000084FF00209F1
:103DA0001D480078012803D14FF002084FF00209A6
:103DB00019480078022802D14FF0040881461648BD
:103DC0000078032807D14FF006084FF0020902E0FF
:103DD0004FF00008C146444604E020200DF80400DE
:103DE000601CC4B208EB0900A04201DD082CF4DB22
:103DF000002405E01DF8040008490855601CC4B201
:103E0000082CF7DB0648077007B0BDE8F083000018
:103E10007E000020790000207A000020370000207A
:103E20003600002030380A2801D2012070470020D7
:103E30007047000088B000270024002007900690FB
:103E40008246804600250490059000BFFFF7C8FD1C
:103E5000FCF7D8FE11E10CB1FFF73CFA8748007877
:103E600078B10020854908701CB13846FDF71AFF6B
:103E700002E03846FDF716FF781CC7B2082F00DBBA
:103E800000277F48007800287ED000207C490870F9
:103E9000002C7AD0FEF7BAFE03E09DF81C00FEF776
:103EA000E7F806A907A8FEF7B3FC0028F5D1B9F199
:103EB000000F0EDDA9F101001FFA80F9FEF7A2FC48
:103EC00038B900206F4908706F4908706F48FDF7D6
:103ED00073FFFEF797FC8246BAF1000F04D0012170
:103EE0000320FEF793FF03E000210320FEF78EFF7F
:103EF000BAF1000F01D0FFF7D7FEFCF777FE0546B9
:103F00003DB1B8F1000F04D1FDF7BAF80120FEF77A
:103F100065F83DB9B8F1000F04D0FDF7C5F80020F1
:103F2000FEF75CF8A8460DB1FDF778F85848008810
:103F3000002809DD56480088401E5549088008467B
:103F4000008808B9FDF748F852480078C043C6B267
:103F5000324601211820FEF791FAFEF77BFFFEF7AB
:103F600007F808B1FEF7D2F846480078032828D1B0
:103F700049480088401C484908800846008847494D
:103F8000098888421DDB01E01BE005E00020424972
:103F90000880FDF7D7FD14E0FCF75AFE044684B113
:103FA000002038490870384908703D4908700120E0
:103FB0003C4908704FF096093448FDF7FDFEFEF7C6
:103FC00039FD3948007810B100203749087037486A
:103FD0000078002851D0002034490870002C49D0C6
:103FE000FDF7F6F832480068401C31490860274860
:103FF000016804918188ADF8141080798DF816005D
:1040000004A8FCF7BBFD2B48007920B1012108462C
:10401000FEF7FCFE03E000210120FEF7F7FEFCF7AF
:10402000E5FD20B101210220FEF7F0FE03E00021B2
:104030000220FEF7EBFEFEF7A7FE2CB1FEF7E2FB37
:1040400010B904A8FDF7B8FE002605E01A48805D07
:1040500001A98855701CC6B2082EF7DB00208DF828
:104060000C001648037801AA0A48017804A8FDF755
:104070000DFF00BF0648008800BFECE69800002056
:104080009900002032000020330000200A000020A8
:10409000A40000208D0000204600002044000020E5
:1040A00035000020340000209C0000209E000020ED
:1040B000A000002000000020370000203600002073
:1040C00010B500290AD00878002807D005487844A0
:1040D000FCF70CFD002801D0002010BD02487844F8
:1040E00010BD0000860600007E0600004FF0407004
:1040F000E1EE100A70471F1C1F1E1F1E1F1F1E1FF0
:104100001E1F3F065B4F666D7D077F6F777C395EB4
:1041100079713D76301E753837543F7367506D782E
:104120003E3E3E766E5B0000004000401000000006
:104130000080054010000000005000401100000009
:1041400000900540110000000060004012000000D7
:1041500000A00540120000000070004013000000A5
:1041600000B00540130000000040024014000000B1
:1041700000C0054014000000005002402E00000066
:1041800000D005402E000000006002402F0000001B
:1041900000E005402F0000000070024030000000E9
:1041A00000F005403000000000D003404600000051
:1041B00000000640460000000010064047000000D6
:1041C0000020064048000000003006407F0000004C
:1041D00000400640800000000050064084000000BF
:1041E000006006408C00000000400040100000000D
:1041F0000080054010000000005000401100000049
:104200000090054011000000006000401200000016
:1042100000A00540120000000070004013000000E4
:1042200000B00540130000000040024014000000F0
:1042300000C0054014000000005002402E000000A5
:1042400000D005402E000000006002402F0000005A
:1042500000E005402F000000007002403000000028
:1042600000F005403000000000D003404300000093
:10427000000006404300000000100640440000001B
:1042800000200640450000000030064058000000B5
:104290000040064059000000005006405C0000004D
:1042A0000060064064000000007006406C000000E2
:1042B000008006406D000000009006407F00000076
:1042C0000040004000800540005000400090054044
:1042D0000060004000A005400070004000B00540B4
:1042E0000040024000C005400050024000D00540A0
:1042F0000060024000E005400070024000F0054010
:1043000000D00340000006400010064000100640A8
:1043100000200640002006400030064000300640E5
:104320000040064000400640005006400050064055
:1043300000600640006006400070064000700640C5
:104340000080064000800640009006400090064035
:104350000007000000060000000500000004000047
:104360000003000000020000000100000000000047
:104370000000000018ED00E01CED00E020ED00E082
:1043800000E400E004E400E008E400E00CE400E005
:1043900010E400E014E400E018E400E01CE400E0B5
:1043A00020E400E024E400E028E400E02CE400E065
:1043B00030E400E034E400E038E400E03CE400E015
:1043C00040E400E044E400E048E400E04CE400E0C5
:1043D00050E400E054E400E058E400E05CE400E075
:1043E00060E400E064E400E068E400E06CE400E025
:1043F00070E400E074E400E078E400E07CE400E0D5
:1044000080E400E084E400E088E400E000E100E013
:1044100004E100E008E100E00CE100E010E100E070
:1044200080E100E084E100E088E100E08CE100E070
:1044300090E100E000E200E004E200E008E200E0D9
:104440000CE200E010E200E080E200E084E200E044
:1044500088E200E08CE200E090E200E00068890978
:10446000001C4E0E40420F0000201C0080841E00E5
:1044700000802500999E36000040380000093D006C
:1044800000803E0000004B00404B4C0000204E00DE
:10449000808D5B0000C05D000080700000127A001B
:1044A00000007D0080969800001BB7000080BB00D4
:1044B000C0E8CE00647ADA000024F4000000FA00BC
:1044C00080A81201002D310100366E0140787D0177
:1044D0004000000000000000000100003E00080055
:1044E0000000000000010000A00000000200000029
:1044F0000001000034540100000000000001000031
:104500002B700600000000000001000028000000E1
:104510000000000000010000270001000000000072
:104520000001000020000000000000000001000069
:104530005000000002000000000100001AAC000062
:1045400000000000000100001794090000000000B6
:1045500000010000169805000000000000010000A6
:10456000140000000000000000010000138008009B
:104570000000000000010000A00000000800000092
:104580000001000010000000000000000001000019
:1045900028000000020000000001000040000000B0
:1045A00004000000000100006000000000000000A6
:1045B000000100005D000C00000000000001000090
:1045C0005000000000000000000100004E0002004A
:1045D000000000000001000041AC010000000000EC
:1045E000000100003C00000000000000000100008D
:1045F0003A800900000000000001000030000000C7
:104600000000000000010000280000000000000081
:104610000001000027000100000000000001000070
:104620002360060000000000000100002160080077
:1046300000000000000100001E000000000000005B
:10464000000100001DC00400000000000001000087
:1046500050000000020000000001000018000000EF
:104660000000000000010000140000000000000035
:1046700000010000600000000400000000010000D4
:104680000024F40030003000005A620291009100D2
:1046900000879303D200D20000B4C40413011301B5
:1046A00000E1F50554015401000E2707950195011D
:1046B0003031323334353637383941424344454658
:1046C0004030580030313233343536373839616252
:1046D0006364656640307800040000080000000054
:1046E0000000000200010000100000005553455278
:1046F00031000000555345523200000046554E43EC
:10470000000000004144440053504545440000006F
:10471000534156450000000044495350000000003A
:10472000464F524D41540000534849465400000042
:10473000455854006448000000000020B800000004
:104740003C0200001C490000B80000208008000066
:10475000580200001001000043000000F8FFFFFFB6
:104760000040404040404040404041414141414084
:104770004040404040404040404040404040404039
:1047800040050202020202020202020202020202C8
:1047900002202020202020202020200202020202CD
:1047A0000202909090909090101010101010101025
:1047B0001010101010101010101010100202020231
:1047C0000202888888888888080808080808080875
:1047D0000808080808080808080808080202020271
:1047E0004000000000000000000000000000000089
:1047F00000000000000000000000000000000000B9
:1048000000000000000000000000000000000000A8
:104810000000000000000000000000000000000098
:104820000000000000000000000000000000000088
:104830000000000000000000000000000000000078
:104840000000000000000000000000000000000068
:104850000000000000000000000000000000000058
:104860000000000000000000000000000000000048
:1048700000000000000053383030434C4B00000073
:104880000000000000000000000000000000000028
:104890000000000000000000010000202020202077
:1048A0002020200000000100320000000000000075
:1048B00000000000FC4600002847000004470000FC
:1048C000104700001847000008470000204700007C
:1048D00030470000EC460000F446000000000000F5
:1048E00000000000000000000000000000000000C8
:1048F00000000000000000000000000000000000B8
:1049000000000000000000000000000000000000A7
:0C49100000000000000000000024F40083
:04000005000002F500
:00000001FF
